:100000000C9474280C9493280C9493280C949328A3
:100010000C9493280C9493280C9493280C94932874
:100020000C9493280C945D2F0C9493280C94932893
:100030000C947F2D0C9493280C9493280C942D2FC2
:100040000C9493280C9493280C9490630C947575DD
:100050000C94C23B0C9493280C9493280C949328F2
:100060000C9493280C9493280C9493280C94932824
:100070000C9493280C9493280C94384D0C943C7653
:100080000C947B4D0C9493280C94932820332033AC
:10009000AC33AC3308350734083508350835083536
:1000A00008350835083508353634AF34A536A53659
:1000B0003B373B374C38A7374C384C384C384C38EA
:1000C0004C384C384C384C38FA37FA379844C344DB
:1000D000F7442D459844C34483474F457845AA4586
:1000E000E3454F4578450D460D46834711461C466E
:1000F00027465B4611461C468347834783478B460A
:10010000A7468B46A746C546C846CF46F146154783
:100110004A47FA47FE47034808480D481248164820
:100120001A48204836483A483F48434848484D48CE
:10013000524857485D48724876487B488048854811
:1001400089488E48934898489E485D4B624B674B60
:100150007F4B6B4B6F4B734B774B7B4B0A580D5858
:100160002A5836584258FF580E59F75E7F5FF35EA3
:10017000835F1F5F235F275F2B5F2F5F335F375FD7
:100180003B5F3F5F435F475F4B5F4F5F535F575F2F
:100190005B5F5F5F635FD75FDB5FDF5FE35FE75FEF
:1001A000EB5FEF5FF35FF75FFB5FFF5F036064642C
:1001B0007D648D649A644E704E70C464DB64EB643D
:1001C000F8640865156525653465B165C165CE655A
:1001D000DE65EB65FB650F662E66426658666166F6
:1001E00073668A66026712671F672F673C674C67F2
:1001F0005967C367536861688F68D668E468F068B8
:100200005D69EC69AB6ABE6ACA6A1F6B896B116C67
:100210001E6C316C4A6CB76CED6C286D546D656D5D
:10022000716D4E704E704E704E704E704E704E70BE
:100230004E704E704E704E704E704E70396B456BF6
:10024000516B5D6B6B6B776B4E704E70966DB86DCE
:10025000C26DCE6DDC6DE86DF86D186EA46EF26E39
:10026000006F2C6F466F8F6F9B6FB06FBC6FD46F3A
:10027000E26FF46F02700E7021702D7040704E703E
:100280005D735F736A736C7379737B738673B87312
:10029000BF73C773CE73D673DD73B873D6738F73A2
:1002A000E573EA73F373F87301740674E57301740C
:1002B0009A730F74147425742A743B743D744B74D0
:1002C00055747B748274EDE5F220F1E2FFE7E820DB
:1002D000F120DDD12000E5F1F2FC20F1E2FFE7FCA6
:1002E00020F120DDD1004C26472020B9202538738D
:1002F0000025387300256C756400256868753A25FB
:100300006868753A2568687500256868752D2568E0
:1003100068752D25686875000D0A002530386C78E1
:10032000273E0D0A002530386C780025750D0A002F
:100330006C6F676F75742E68746D6C002F00504F72
:1003400053540047455420002B4353513A2025680D
:1003500068752C25686875002B52454345495645FC
:100360002C256868752C256868750052454D4F54DA
:10037000452049503A256868752E256868752E25F0
:100380006868752E2568687500256868752C204397
:100390004C4F5345440025686875202568687520D2
:1003A00025686875202568687500257500256C75B9
:1003B000640000C0C101C30302C2C60607C705C569
:1003C000C404CC0C0DCD0FCFCE0E0ACACB0BC9097D
:1003D00008C8D81819D91BDBDA1A1EDEDF1FDD1D8D
:1003E0001CDC14D4D515D71716D6D21213D311D1BD
:1003F000D010F03031F133F3F23236F6F737F5350D
:1004000034F43CFCFD3DFF3F3EFEFA3A3BFB39F93C
:10041000F83828E8E929EB2B2AEAEE2E2FEF2DED0C
:10042000EC2CE42425E527E7E62622E2E323E1217C
:1004300020E0A06061A163A3A26266A6A767A5658C
:1004400064A46CACAD6DAF6F6EAEAA6A6BAB69A9FC
:10045000A86878B8B979BB7B7ABABE7E7FBF7DBD0C
:10046000BC7CB47475B577B7B67672B2B373B1713C
:1004700070B050909151935352929656579755950C
:1004800094549C5C5D9D5F9F9E5E5A9A9B5B9959BC
:100490005898884849894B8B8A4A4E8E8F4F8D4D8C
:1004A0004C8C4484854587474686824243834181FC
:1004B000804000C1814001C0804101C0804100C135
:1004C000814001C0804100C1814000C1814001C024
:1004D000804101C0804100C1814000C1814001C014
:1004E000804100C1814001C0804101C0804100C104
:1004F000814001C0804100C1814000C1814001C0F4
:10050000804100C1814001C0804101C0804100C1E3
:10051000814000C1814001C0804101C0804100C1D3
:10052000814001C0804100C1814000C1814001C0C3
:10053000804101C0804100C1814000C1814001C0B3
:10054000804100C1814001C0804101C0804100C1A3
:10055000814000C1814001C0804101C0804100C193
:10056000814001C0804100C1814000C1814001C083
:10057000804100C1814001C0804101C0804100C173
:10058000814001C0804100C1814000C1814001C063
:10059000804101C0804100C1814000C1814001C053
:1005A000804100C1814001C0804101C0804100C143
:1005B00081408745C5481934B039041D1017BE0C59
:1005C000C405E032B20C700C1800D105FA057606AD
:1005D0000470066006590649063E062E06240614D7
:1005E000060E06FE05F905E9050A0B0018FCFFFFDB
:1005F000DC0500000000000001546C6F77000A0D5C
:100600000018FCFFFFDC050000000000000154683A
:100610006967680000110600000000FF0000007B11
:1006200029000000424C757067726164650000111A
:100630000600000000FF000000482A000000426F92
:100640006F746C6F61646572000011060000000039
:10065000FF00000075290000005265626F6F740092
:10066000220F000000000002000000000000001542
:100670005469746C65003C48544D4C3E0D0A3C482E
:100680004541443E0D0A3C5449544C453E7B7B7BDE
:100690007B7B7B7B7B7B7B7B7B7B7B7B7B7B7B7BAA
:1006A0007B3C2F5449544C453E0D0A3C6D657461AA
:1006B00020687474702D65717569763D22436F6E84
:1006C00074656E742D547970652220636F6E746545
:1006D0006E743D22746578742F68746D6C3B206372
:1006E0006861727365743D77696E646F77732D31DD
:1006F000323531223E0D0A3C2F484541443E0D0A19
:100700003C424F44593E0D0A0D0A3C48323E454D8D
:100710005265616465722E207B7B7B7B7B7B7B7B60
:100720007B7B7B7B7B7B7B7B7B7B7B7B3C2F483220
:100730003E0D0A49443A207B7B7B7B207B7B7B7B85
:100740007B7B7B7B7B200953573A20332E30373C11
:100750002F42523E0D0A3C48523E0D0A3C61206831
:100760007265663D22696E6465782E68746D6C22D0
:100770003EC3EBE0E2EDE0FF3C2F613E207C200D2C
:100780000A3C6120687265663D22656D657465721C
:100790002E68746D6C223ECDE0F1F2F0EEE9EAE8ED
:1007A00020F1F7E5F2F7E8EAE03C2F613E207C20FB
:1007B0000D0A3C6120687265663D226E6574776F34
:1007C000726B2E68746D6C223ED1E5F2E5E2FBE5BA
:1007D00020EDE0F1F2F0EEE9EAE83C2F613E207C0A
:1007E000200D0A3C6120687265663D2267736D2E9C
:1007F00068746D6C223E47534D2F475052533C2F27
:10080000613E207C200D0A3C6120687265663D22B5
:100810006373642E68746D6C223E4353443C2F61B5
:100820003E207C200D0A3C6120687265663D227383
:10083000797374656D2E68746D6C223ED1E8F1F2A7
:10084000E5ECE03C2F613E207C200D0A3C612068F5
:100850007265663D226C6F676F75742E68746D6C7F
:10086000223EC2FBF5EEE43C2F613E0D0A3C4852AD
:100870003E0D0A0D0A3C666F726D20616374696FEC
:100880006E3D272F27206D6574686F643D274745AF
:1008900054273E0D0A09CDE0E7E2E0EDE8E520EE61
:1008A000E1FAE5EAF2E03A0D0A093C696E70757406
:1008B00020747970653D277465787427206E616DAA
:1008C000653D275469746C65272073697A653D27F7
:1008D0003430272076616C75653D277B7B7B7B7B85
:1008E0007B7B7B7B7B7B7B7B7B7B7B7B7B7B7B27AC
:1008F0003E0D0A093C696E70757420747970653D0F
:10090000277375626D6974272076616C75653D2764
:100910004F4B273E0D0A3C2F666F726D3E0D0A3C11
:100920002F42523E0D0A0D0ACDE0F0E0E1EEF2EA70
:10093000E0203A7B7B7B7B7B7B7B7B7B7B7B20F123
:10094000E5EA0D0A3C464F524D20616374696F6EB3
:100950003D272F27206D6574686F643D27474554F8
:10096000273E0D0A093C696E7075742074797065B4
:100970003D277375626D697427206E616D653D2733
:100980005265626F6F74272076616C75653D2752E2
:1009900065626F6F74273E0D0A3C2F464F524D3EE5
:1009A0000D0AC2E5F0F1E8FF20CFCE3A20332E3019
:1009B000370D0A3C464F524D20616374696F6E3D9E
:1009C000272F27206D6574686F643D27474554279E
:1009D0003E0D0A093C696E70757420747970653D2E
:1009E000277375626D697427206E616D653D2742BE
:1009F0006F6F746C6F61646572272076616C7565CA
:100A00003D27426F6F746C6F616465722720636F5E
:100A10006C6F723D27524544273E0D0A3C2F464FCE
:100A2000524D3E0D0A3C2F42523E0D0A3C464F525B
:100A30004D20616374696F6E3D272F27206D6574AB
:100A4000686F643D27474554273E0D0A093C696E8F
:100A500070757420747970653D277375626D697463
:100A600027206E616D653D27424C75706772616429
:100A700065272076616C75653D27424C75706772FD
:100A8000616465273E0D0A3C2F464F524D3E0D0ACC
:100A90003C2F42523E0D0A3C48323ED2E5ECEFE597
:100AA000F0E0F2F3F0E03C2F48323E0D0AD2E5ECE4
:100AB000EFE5F0E0F2F3F0E03A7B7B7B7B7B7B7B46
:100AC0002623313736433C2F42523E0D0A3C666F97
:100AD000726D20616374696F6E3D272F27206D65ED
:100AE00074686F643D27474554273E0D0A09D2E2DA
:100AF000FBF1EEEAE0FF3A0D0A093C696E7075748D
:100B000020747970653D277465787427206E616D57
:100B1000653D275468696768272073697A653D27B2
:100B200035272076616C75653D277B7B7B7B7B7BE6
:100B30007B273E2623313736430D0A093C696E7008
:100B4000757420747970653D277375626D697427BB
:100B50002076616C75653D274F4B273E0D0A3C2F73
:100B6000666F726D3E0D0A3C2F42523E0D0A3C6686
:100B70006F726D20616374696F6E3D272F27206D42
:100B80006574686F643D27474554273E0D0A09D2B6
:100B9000EDE8E7EAE0FF3A0D0A093C696E7075740A
:100BA00020747970653D277465787427206E616DB7
:100BB000653D27546C6F77272073697A653D27352B
:100BC000272076616C75653D277B7B7B7B7B7B7B00
:100BD000273E2623313736430D0A093C696E70756E
:100BE0007420747970653D277375626D6974272070
:100BF00076616C75653D274F4B273E0D0A3C2F668D
:100C00006F726D3E0D0A3C2F42523E0D0AC1F3F445
:100C1000E5F02047534D2D3E454D3A207B7B7B2F01
:100C2000286D61782032353029E1E0E9F23C2F422D
:100C3000523E0D0AC1F3F4E5F020454D2D3E4753D9
:100C40004D3A207B7B7B2F286D617820323530290F
:100C5000E1E0E9F23C2F42523E0D0A0D0A3C2F42E0
:100C60004F44593E0D0A3C2F48544D4C3E0D0A004E
:100C7000220F00000015220F00000015070A0B00CC
:100C80000000140406000000220F000000151047A9
:100C90000900000209E5050000010A0D000000013D
:100CA0000A0B0000000100630900000000520A0066
:100CB000000073797374656D2E68746D6C0007178E
:100CC000A7162C00CB0CC708E00D02D90DC90DC426
:100CD0000DB40DAF0D9F0D9A0D8A0D850D750D701C
:100CE0000D600D5B0D4B0D460D360D310D210D1CAC
:100CF0000D0C0D070DF70C22D600000000000000BF
:100D00000000000000000D435344390022C90000D8
:100D100000000000000000000000000D43534438B4
:100D20000022BC00000000000000000000000000E5
:100D30000D435344370022AF0000000000000000C4
:100D400000000000000D435344360022A2000000C2
:100D5000000000000000000000000D435344350077
:100D60002295000000000000000000000000000DBF
:100D700043534434002288000000000000000000BB
:100D8000000000000D4353443300227B00000000AC
:100D90000000000000000000000D43534432002218
:100DA0006E000000000000000000000000000D4385
:100DB00053443100226100000000000000000000E8
:100DC0000000000D4353443000015F0000000000AC
:100DD000010000000000000000434C49504F6E002D
:100DE0003C48544D4C3E0D0A3C484541443E0D0A9A
:100DF0003C5449544C453E7B7B7B7B7B7B7B7B7BA4
:100E00007B7B7B7B7B7B7B7B7B7B7B3C2F5449543D
:100E10004C453E0D0A3C6D65746120687474702DFC
:100E200065717569763D22436F6E74656E742D54DD
:100E30007970652220636F6E74656E743D227465EF
:100E400078742F68746D6C3B20636861727365748D
:100E50003D77696E646F77732D31323531223E0DE7
:100E60000A3C2F484541443E0D0A3C424F44593EFE
:100E70000D0A0D0A3C48323E454D5265616465726B
:100E80002E207B7B7B7B7B7B7B7B7B7B7B7B7B7B5A
:100E90007B7B7B7B7B7B3C2F48323E0D0A49443A6F
:100EA000207B7B7B7B207B7B7B7B7B7B7B7B7B20A3
:100EB0000953573A20332E30373C2F42523E0D0A09
:100EC0003C48523E0D0A3C6120687265663D2269CD
:100ED0006E6465782E68746D6C223EC3EBE0E2EDC3
:100EE000E0FF3C2F613E207C200D0A3C61206872AF
:100EF00065663D22656D657465722E68746D6C2241
:100F00003ECDE0F1F2F0EEE9EAE820F1F7E5F2F7A4
:100F1000E8EAE03C2F613E207C200D0A3C6120681D
:100F20007265663D226E6574776F726B2E68746DA4
:100F30006C223ED1E5F2E5E2FBE520EDE0F1F2F0D6
:100F4000EEE9EAE83C2F613E207C200D0A3C61205E
:100F5000687265663D2267736D2E68746D6C223E03
:100F600047534D2F475052533C2F613E207C200D5C
:100F70000A3C6120687265663D226373642E687462
:100F80006D6C223E4353443C2F613E207C200D0A71
:100F90003C6120687265663D2273797374656D2EBD
:100FA00068746D6C223ED1E8F1F2E5ECE03C2F6113
:100FB0003E207C200D0A3C6120687265663D226CF3
:100FC0006F676F75742E68746D6C223EC2FBF5EE10
:100FD000E43C2F613E0D0A3C48523E0D0A3C666FD0
:100FE000726D20616374696F6E3D272F27206D65D8
:100FF00074686F643D27474554273E0D0A09CFF0BA
:10100000EEE2E5F0EAE020EDEEECE5F0E03A0D0A84
:10101000093C53454C454354204E414D453D2243E8
:101020004C49504F6E223E200D0A093C4F50544906
:101030004F4E2056414C55453D30207B7B7B7B7B82
:101040007B7B7B3ECDE5F2200D0A093C4F50544995
:101050004F4E2056414C55453D31207B7B7B7B7B61
:101060007B7B7B3EC4E00D0A093C2F53454C454336
:10107000543E200D0A093C696E70757420747970B5
:10108000653D277375626D6974272076616C75659F
:101090003D274F4B273E0D0A3C2F666F726D3E0D6C
:1010A0000A3C68333ED0E0E7F0E5F8B8EDEDFBE54B
:1010B00020EDEEECE5F0E03C2F68333E3C2F425251
:1010C0003E0D0A3C666F726D20616374696F6E3D00
:1010D000272F27206D6574686F643D274745542787
:1010E0003E0D0A09B9313A200D0A093C696E707546
:1010F0007420747970653D277465787427206E615B
:101100006D653D2743534430272073697A653D2739
:101110003132272076616C75653D277B7B7B7B7B3D
:101120007B7B7B7B7B7B7B273E0D0A093C696E705A
:10113000757420747970653D277375626D697427C5
:101140002076616C75653D274F4B273E0D0A3C2F7D
:10115000666F726D3E0D0A3C666F726D206163743E
:10116000696F6E3D272F27206D6574686F643D277A
:10117000474554273E0D0A09B9323A200D0A093C69
:10118000696E70757420747970653D277465787424
:1011900027206E616D653D274353443127207369D5
:1011A0007A653D273132272076616C75653D277B56
:1011B0007B7B7B7B7B7B7B7B7B7B7B273E0D0A0961
:1011C0003C696E70757420747970653D2773756223
:1011D0006D6974272076616C75653D274F4B273EFE
:1011E0000D0A3C2F666F726D3E0D0A3C666F726D84
:1011F00020616374696F6E3D272F27206D657468C9
:101200006F643D27474554273E0D0A09B9333A20FC
:101210000D0A093C696E70757420747970653D27FC
:101220007465787427206E616D653D2743534432A1
:10123000272073697A653D273132272076616C75E6
:10124000653D277B7B7B7B7B7B7B7B7B7B7B7B27EA
:101250003E0D0A093C696E70757420747970653DA5
:10126000277375626D6974272076616C75653D27FB
:101270004F4B273E0D0A3C2F666F726D3E0D0A3CA8
:10128000666F726D20616374696F6E3D272F272032
:101290006D6574686F643D27474554273E0D0A0904
:1012A000B9343A200D0A093C696E7075742074795E
:1012B00070653D277465787427206E616D653D27E4
:1012C00043534433272073697A653D273132272001
:1012D00076616C75653D277B7B7B7B7B7B7B7B7B3A
:1012E0007B7B7B273E0D0A093C696E707574207408
:1012F0007970653D277375626D6974272076616C1E
:1013000075653D274F4B273E0D0A3C2F666F726D6A
:101310003E0D0A3C666F726D20616374696F6E3DAD
:10132000272F27206D6574686F643D274745542734
:101330003E0D0A09B9353A200D0A093C696E7075EF
:101340007420747970653D277465787427206E6108
:101350006D653D2743534434272073697A653D27E3
:101360003132272076616C75653D277B7B7B7B7BEB
:101370007B7B7B7B7B7B7B273E0D0A093C696E7008
:10138000757420747970653D277375626D69742773
:101390002076616C75653D274F4B273E0D0A3C2F2B
:1013A000666F726D3E0D0A3C666F726D20616374EC
:1013B000696F6E3D272F27206D6574686F643D2728
:1013C000474554273E0D0A09B9363A200D0A093C13
:1013D000696E70757420747970653D2774657874D2
:1013E00027206E616D653D2743534435272073697F
:1013F0007A653D273132272076616C75653D277B04
:101400007B7B7B7B7B7B7B7B7B7B7B273E0D0A090E
:101410003C696E70757420747970653D27737562D0
:101420006D6974272076616C75653D274F4B273EAB
:101430000D0A3C2F666F726D3E0D0A3C666F726D31
:1014400020616374696F6E3D272F27206D65746876
:101450006F643D27474554273E0D0A09B9373A20A6
:101460000D0A093C696E70757420747970653D27AA
:101470007465787427206E616D653D27435344364B
:10148000272073697A653D273132272076616C7594
:10149000653D277B7B7B7B7B7B7B7B7B7B7B7B2798
:1014A0003E0D0A093C696E70757420747970653D53
:1014B000277375626D6974272076616C75653D27A9
:1014C0004F4B273E0D0A3C2F666F726D3E0D0A3C56
:1014D000666F726D20616374696F6E3D272F2720E0
:1014E0006D6574686F643D27474554273E0D0A09B2
:1014F000B9383A200D0A093C696E70757420747908
:1015000070653D277465787427206E616D653D2791
:1015100043534437272073697A653D2731322720AA
:1015200076616C75653D277B7B7B7B7B7B7B7B7BE7
:101530007B7B7B273E0D0A093C696E7075742074B5
:101540007970653D277375626D6974272076616CCB
:1015500075653D274F4B273E0D0A3C2F666F726D18
:101560003E0D0A3C666F726D20616374696F6E3D5B
:10157000272F27206D6574686F643D2747455427E2
:101580003E0D0A09B9393A200D0A093C696E707599
:101590007420747970653D277465787427206E61B6
:1015A0006D653D2743534438272073697A653D278D
:1015B0003132272076616C75653D277B7B7B7B7B99
:1015C0007B7B7B7B7B7B7B273E0D0A093C696E70B6
:1015D000757420747970653D277375626D69742721
:1015E0002076616C75653D274F4B273E0D0A3C2FD9
:1015F000666F726D3E0D0A3C666F726D206163749A
:10160000696F6E3D272F27206D6574686F643D27D5
:10161000474554273E0D0A09B931303A200D0A09D1
:101620003C696E70757420747970653D27746578B7
:101630007427206E616D653D27435344392720731D
:10164000697A653D273132272076616C75653D27C3
:101650007B7B7B7B7B7B7B7B7B7B7B7B273E0D0A4A
:10166000093C696E70757420747970653D277375D7
:10167000626D6974272076616C75653D274F4B2735
:101680003E0D0A3C2F666F726D3E0D0A3C2F425292
:101690003E0D0A203C2F424F44593E0D0A3C2F4834
:1016A000544D4C3E0D0A00220F00000015220F0081
:1016B000000015070A0B0000001404060000001EBD
:1016C0005F006545001E5F0061450022610000006B
:1016D0000D226E0000000D227B0000000D2288000C
:1016E00000000D22950000000D22A20000000D2236
:1016F000AF0000000D22BC0000000D22C900000058
:101700000D22D60000000D6373642E68746D6C00AA
:10171000FB1CCB1C1C001D17CF04FC1704F317E3A4
:1017200017D017C017B317A3179D178D17811771FF
:1017300017651755174917391722FD0000000000DB
:1017400000000000000000000D534D535F4E756D0A
:10175000626572330022F00000000000000000000B
:10176000000000000D534D535F4E756D626572327F
:101770000022E30000000000000000000000000064
:101780000D534D535F4E756D6265723100016000FF
:1017900000000000010000000000000000534D5355
:1017A0004F6E00223A0100000000020000009F2A54
:1017B000000014475052535F61706E5F7073770082
:1017C000224E0100000000020000009F2A000014C9
:1017D000475052535F61706E5F757365725F6E61E3
:1017E0006D650022620100000000020000009F2AD7
:1017F00000001E475052535F61706E003C48544DCC
:101800004C3E0D0A3C484541443E0D0A3C54495467
:101810004C453E7B7B7B7B7B7B7B7B7B7B7B7B7BBA
:101820007B7B7B7B7B7B7B3C2F5449544C453E0D23
:101830000A3C6D65746120687474702D65717569FA
:10184000763D22436F6E74656E742D5479706522F7
:1018500020636F6E74656E743D22746578742F68B2
:10186000746D6C3B20636861727365743D77696E5B
:10187000646F77732D31323531223E0D0A3C2F488B
:101880004541443E0D0A3C424F44593E0D0A0D0A63
:101890003C48323E454D5265616465722E207B7B2B
:1018A0007B7B7B7B7B7B7B7B7B7B7B7B7B7B7B7B88
:1018B0007B7B3C2F48323E0D0A49443A207B7B7BA0
:1018C0007B207B7B7B7B7B7B7B7B7B200953573A1D
:1018D00020332E30373C2F42523E0D0A3C48523EB8
:1018E0000D0A3C6120687265663D22696E64657808
:1018F0002E68746D6C223EC3EBE0E2EDE0FF3C2FFE
:10190000613E207C200D0A3C6120687265663D22A4
:10191000656D657465722E68746D6C223ECDE0F164
:10192000F2F0EEE9EAE820F1F7E5F2F7E8EAE03C68
:101930002F613E207C200D0A3C6120687265663D67
:10194000226E6574776F726B2E68746D6C223ED157
:10195000E5F2E5E2FBE520EDE0F1F2F0EEE9EAE8A0
:101960003C2F613E207C200D0A3C61206872656638
:101970003D2267736D2E68746D6C223E47534D2F68
:10198000475052533C2F613E207C200D0A3C612081
:10199000687265663D226373642E68746D6C223EC6
:1019A0004353443C2F613E207C200D0A3C6120685B
:1019B0007265663D2273797374656D2E68746D6C03
:1019C000223ED1E8F1F2E5ECE03C2F613E207C20A4
:1019D0000D0A3C6120687265663D226C6F676F7509
:1019E000742E68746D6C223EC2FBF5EEE43C2F61F0
:1019F0003E0D0A3C48523E0D0AD3F0EEE2E5EDFC06
:101A000020F1E8E3EDE0EBE0207B7B2028302D3374
:101A100031293C2F42523E0D0A3C68333E4750521A
:101A2000533C2F68333E3C2F42523E0D0A3C666FBA
:101A3000726D20616374696F6E3D272F27206D657D
:101A400074686F643D27474554273E0D0A0941508D
:101A50004E206E616D653A200D0A093C696E707505
:101A60007420747970653D277465787427206E61E1
:101A70006D653D27475052535F61706E2720736933
:101A80007A653D273239272076616C75653D277B65
:101A90007B7B7B7B7B7B7B7B7B7B7B7B7B7B7B7B96
:101AA0007B7B7B7B7B7B7B7B7B7B7B7B273E0D0AF6
:101AB000093C696E70757420747970653D27737583
:101AC000626D6974272076616C75653D274F4B27E1
:101AD0003E0D0A3C2F666F726D3E0D0A3C2F42523E
:101AE0003E0D0A3C666F726D20616374696F6E3DD6
:101AF000272F27206D6574686F643D27474554275D
:101B00003E0D0A0955736572206E616D653A200DB0
:101B10000A093C696E70757420747970653D27748C
:101B200065787427206E616D653D27475052535F7D
:101B300061706E5F757365725F6E616D652720738E
:101B4000697A653D273139272076616C75653D27B7
:101B50007B7B7B7B7B7B7B7B7B7B7B7B7B7B7B7BD5
:101B60007B7B7B273E0D0A093C696E70757420747F
:101B70007970653D277375626D6974272076616C95
:101B800075653D274F4B273E0D0A3C2F666F726DE2
:101B90003E0D0A3C2F42523E0D0A3C666F726D208C
:101BA000616374696F6E3D272F27206D6574686FC0
:101BB000643D27474554273E0D0A095061737377EA
:101BC0006F72643A200D0A093C696E707574207456
:101BD0007970653D277465787427206E616D653D69
:101BE00027475052535F61706E5F70737727207381
:101BF000697A653D273139272076616C75653D2707
:101C00007B7B7B7B7B7B7B7B7B7B7B7B7B7B7B7B24
:101C10007B7B7B273E0D0A093C696E7075742074CE
:101C20007970653D277375626D6974272076616CE4
:101C300075653D274F4B273E0D0A3C2F666F726D31
:101C40000D0A3C2F42523E0D0A3C464F524D206138
:101C50006374696F6E3D272F27206D6574686F640C
:101C60003D27474554273E0D0A093C696E7075743F
:101C700020747970653D277375626D697427206ED5
:101C8000616D653D27526573657447534D27207616
:101C9000616C75653D27526573657447534D273EEA
:101CA0000D0A3C2F464F524D3E0D0A3C2F42523EEC
:101CB0003C2F42523E0D0A203C2F424F44593E0DCC
:101CC0000A3C2F48544D4C3E0D0A00220F000000E4
:101CD00015220F00000015070A0B0000001404066F
:101CE00000000000170600000022620100001E2212
:101CF0004E01000014223A0100001467736D2E6833
:101D0000746D6C00D332D131A000111D4A108721AF
:101D100004782168215421442132212221C11DB19E
:101D20001D192109210021F020E720D720CE20BE57
:101D300020B520A5209C208C20832073206A205A67
:101D40002051204120382028201F200F200620F677
:101D50001FED1FDD1FD41FC41FBB1FAB1FA21F928F
:101D60001F8C1F7C1F761F661F601F501F4A1F3A63
:101D70001F341F241F1E1F0E1F081FF81EF21EE215
:101D80001EDC1ECC1EC61EB61EB01EA01E9A1E8ACB
:101D90001E841E741E6E1E5E1E581E481E421E327B
:101DA0001E281E181E0E1EFE1DF41DE41DDA1DCA7F
:101DB0001D00110600000000FF0000007729000050
:101DC00000526573657447534D00082801000000F8
:101DD00000FFFF00000000000000554450335F503A
:101DE0006F72740008260100000000FFFF00000071
:101DF00000000000554450325F506F727400082498
:101E00000100000000FFFF0000000000000055443A
:101E100050315F506F72740008220100000000FF13
:101E2000FF00000000000000554450305F506F720A
:101E3000740001390100000000FF000000000000F4
:101E4000000055445033340001380100000000FF09
:101E500000000000000000005544503333000137FB
:101E60000100000000FF00000000000000005544D9
:101E70005033320001360100000000FF0000000076
:101E800000000000554450333100013501000000CE
:101E900000FF0000000000000000554450323400F4
:101EA00001340100000000FF0000000000000000FD
:101EB00055445032330001330100000000FF0000A0
:101EC0000000000000005544503232000132010091
:101ED000000000FF000000000000000055445032E8
:101EE000310001310100000000FF0000000000008F
:101EF000000055445031340001300100000000FF63
:101F00000000000000000000554450313300012F54
:101F10000100000000FF0000000000000000554428
:101F200050313200012E0100000000FF00000000CF
:101F300000000000554450313100012D0100000027
:101F400000FF000000000000000055445030340045
:101F5000012C0100000000FF000000000000000054
:101F6000554450303300012B0100000000FF0000F9
:101F7000000000000000554450303200012A0100EA
:101F8000000000FF00000000000000005544503039
:101F90003100011F0100000000FF000000000000F0
:101FA0000000436C69335F49503400011E0100009A
:101FB0000000FF0000000000000000436C69335F78
:101FC00049503300011D0100000000FF0000000027
:101FD00000000000436C69335F49503200011C016E
:101FE00000000000FF0000000000000000436C69DA
:101FF000335F49503100011B0100000000FF000069
:10200000000000000000436C69325F495034000159
:102010001A0100000000FF00000000000000004363
:102020006C69325F4950330001190100000000FF64
:102030000000000000000000436C69325F4950322C
:102040000001180100000000FF0000000000000077
:1020500000436C69325F49503100011701000000F4
:1020600000FF0000000000000000436C69315F4980
:1020700050340001160100000000FF0000000000C5
:10208000000000436C69315F4950330001150100C5
:10209000000000FF0000000000000000436C6931F8
:1020A0005F4950320001140100000000FF000000F1
:1020B0000000000000436C69315F4950310001139A
:1020C0000100000000FF0000000000000000436C61
:1020D00069305F4950340001120100000000FF0028
:1020E00000000000000000436C69305F495033007D
:1020F00001110100000000FF0000000000000000CE
:10210000436C69305F49503200011001000000004B
:10211000FF0000000000000000436C69305F495080
:10212000310011560000000000FFC99A3B0000007A
:1021300000025765624D617853657373696F6E5421
:10214000696D6500080E0100000000FFFF00009FA0
:102150002A0000025443505F434F4E4E4543545FA4
:1021600074696D656F75740008200100000000FF40
:10217000FF00009F2A0000005443505F4C697374B5
:10218000656E506F7274003C48544D4C3E0D0A3CD5
:10219000484541443E0D0A3C5449544C453E7B7BE6
:1021A0007B7B7B7B7B7B7B7B7B7B7B7B7B7B7B7B7F
:1021B0007B7B3C2F5449544C453E0D0A3C6D657465
:1021C0006120687474702D65717569763D22436F66
:1021D0006E74656E742D547970652220636F6E7411
:1021E000656E743D22746578742F68746D6C3B2045
:1021F000636861727365743D77696E646F77732D80
:1022000031323531223E0D0A3C2F484541443E0DC6
:102210000A3C424F44593E0D0A0D0A3C48323E45A5
:102220004D5265616465722E207B7B7B7B7B7B7B63
:102230007B7B7B7B7B7B7B7B7B7B7B7B7B3C2F48AC
:10224000323E0D0A49443A207B7B7B7B207B7B7BA3
:102250007B7B7B7B7B7B200953573A20332E3037A7
:102260003C2F42523E0D0A3C48523E0D0A3C612032
:10227000687265663D22696E6465782E68746D6C5F
:10228000223EC3EBE0E2EDE0FF3C2F613E207C20EC
:102290000D0A3C6120687265663D22656D65746556
:1022A000722E68746D6C223ECDE0F1F2F0EEE9EA38
:1022B000E820F1F7E5F2F7E8EAE03C2F613E207C08
:1022C000200D0A3C6120687265663D226E65747758
:1022D0006F726B2E68746D6C223ED1E5F2E5E2FB05
:1022E000E520EDE0F1F2F0EEE9EAE83C2F613E2076
:1022F0007C200D0A3C6120687265663D2267736D23
:102300002E68746D6C223E47534D2F475052533CFC
:102310002F613E207C200D0A3C6120687265663D7D
:10232000226373642E68746D6C223E4353443C2FC9
:10233000613E207C200D0A3C6120687265663D226A
:1023400073797374656D2E68746D6C223ED1E8F1FB
:10235000F2E5ECE03C2F613E207C200D0A3C612040
:10236000687265663D226C6F676F75742E68746D58
:102370006C223EC2FBF5EEE43C2F613E0D0A3C4868
:10238000523E0D0A0D0A3C68333E5443502F4950CB
:10239000205365727665723C2F68333E0D0A3C66A9
:1023A0006F726D20616374696F6E3D272F27206DFA
:1023B0006574686F643D27474554273E0D0A094CF4
:1023C000697374656E20706F72743A0D0A093C6906
:1023D0006E70757420747970653D27746578742704
:1023E000206E616D653D275443505F4C6973746581
:1023F0006E506F7274272073697A653D27352720E8
:1024000076616C75653D277B7B7B7B7B273E0D0A68
:10241000093C696E70757420747970653D27737519
:10242000626D6974272076616C75653D274F4B2777
:102430003E0D0A3C2F666F726D3E0D0A3C2F4252D4
:102440003E0D0A3C666F726D20616374696F6E3D6C
:10245000272F27206D6574686F643D2747455427F3
:102460003E0D0A095443502F495020636F6E6E652C
:102470006374696F6E2074696D656F75743A0D0AC7
:10248000093C696E70757420747970653D277465B8
:10249000787427206E616D653D275443505F434F2C
:1024A0004E4E4543545F74696D656F757427207394
:1024B000697A653D2737272076616C75653D277BF6
:1024C0007B7B7B7B7B273E7365630D0A093C696ED2
:1024D00070757420747970653D277375626D6974C9
:1024E000272076616C75653D274F4B273E0D0A3CD2
:1024F0002F666F726D3E0D0A3C2F42523E0D0A3C14
:10250000666F726D20616374696F6E3D272F27209F
:102510006D6574686F643D27474554273E0D0A0971
:1025200053657373696F6E2074696D656F75743A66
:102530000D0A093C696E70757420747970653D27C9
:102540007465787427206E616D653D275765624D0F
:10255000617853657373696F6E54696D6527207375
:10256000697A653D2737272076616C75653D277B45
:102570007B7B7B7B7B7B7B7B7B273E7365630D0A51
:10258000093C696E70757420747970653D277375A8
:10259000626D6974272076616C75653D274F4B2706
:1025A0003E0D0A3C2F666F726D3E0D0A3C2F425263
:1025B0003E0D0A0D0A3C68333E495020466972655B
:1025C00077616C6C3C2F68333E0D0A3C666F726D10
:1025D00020616374696F6E3D272F27206D657468D5
:1025E0006F643D27474554273E0D0A094950313A4B
:1025F0000D0A093C696E70757420747970653D2709
:102600007465787427206E616D653D27436C693071
:102610005F495031272073697A653D27332720763B
:10262000616C75653D277B7B7B273E2E0D0A093C3F
:10263000696E70757420747970653D27746578745F
:1026400027206E616D653D27436C69305F495032CC
:10265000272073697A653D2733272076616C75657D
:102660003D277B7B7B273E2E0D0A093C696E7075EA
:102670007420747970653D277465787427206E61C5
:102680006D653D27436C69305F495033272073697E
:102690007A653D2733272076616C75653D277B7B06
:1026A0007B273E2E0D0A093C696E70757420747983
:1026B00070653D277465787427206E616D653D27D0
:1026C000436C69305F495034272073697A653D2730
:1026D00033272076616C75653D277B7B7B273E0D1C
:1026E0000A093C696E70757420747970653D2773B2
:1026F00075626D6974272076616C75653D274F4B57
:10270000273E0D0A3C2F666F726D3E0D0A3C2F422C
:10271000523E0D0A3C666F726D20616374696F6E84
:102720003D272F27206D6574686F643D274745540A
:10273000273E0D0A094950323A0D0A093C696E706C
:10274000757420747970653D277465787427206EE0
:10275000616D653D27436C69315F495031272073B6
:10276000697A653D2733272076616C75653D277B47
:102770007B7B273E2E0D0A093C696E7075742074B0
:102780007970653D277465787427206E616D653DAD
:1027900027436C69315F495032272073697A653D60
:1027A0002733272076616C75653D277B7B7B273E31
:1027B0002E0D0A093C696E70757420747970653D40
:1027C000277465787427206E616D653D27436C69B9
:1027D000315F495033272073697A653D27332720BD
:1027E00076616C75653D277B7B7B273E2E0D0A0944
:1027F0003C696E70757420747970653D27746578D6
:102800007427206E616D653D27436C69315F4950C7
:1028100034272073697A653D2733272076616C75EC
:10282000653D277B7B7B273E0D0A093C696E7075F1
:102830007420747970653D277375626D6974272003
:1028400076616C75653D274F4B273E0D0A3C2F6620
:102850006F726D3E0D0A3C2F42523E0D0A3C666F70
:10286000726D20616374696F6E3D272F27206D653F
:1028700074686F643D27474554273E0D0A09495047
:10288000333A0D0A093C696E70757420747970656D
:102890003D277465787427206E616D653D27436C14
:1028A00069325F495031272073697A653D273327A4
:1028B0002076616C75653D277B7B7B273E2E0D0A5C
:1028C000093C696E70757420747970653D27746574
:1028D000787427206E616D653D27436C69325F49CE
:1028E0005032272073697A653D2733272076616C43
:1028F00075653D277B7B7B273E2E0D0A093C696E63
:1029000070757420747970653D277465787427201C
:102910006E616D653D27436C69325F4950332720F6
:1029200073697A653D2733272076616C75653D278D
:102930007B7B7B273E2E0D0A093C696E70757420E7
:10294000747970653D277465787427206E616D65B4
:102950003D27436C69325F495034272073697A659B
:102960003D2733272076616C75653D277B7B7B2770
:102970003E0D0A093C696E70757420747970653D6E
:10298000277375626D6974272076616C75653D27C4
:102990004F4B273E0D0A3C2F666F726D3E0D0A3C71
:1029A0002F42523E0D0A3C666F726D20616374695E
:1029B0006F6E3D272F27206D6574686F643D274734
:1029C0004554273E0D0A094950343A0D0A093C691D
:1029D0006E70757420747970653D277465787427FE
:1029E000206E616D653D27436C69335F4950312727
:1029F0002073697A653D2733272076616C75653DC4
:102A0000277B7B7B273E2E0D0A093C696E7075740F
:102A100020747970653D277465787427206E616D28
:102A2000653D27436C69335F495032272073697ACB
:102A3000653D2733272076616C75653D277B7B7B61
:102A4000273E2E0D0A093C696E70757420747970EA
:102A5000653D277465787427206E616D653D274359
:102A60006C69335F495033272073697A653D27339A
:102A7000272076616C75653D277B7B7B273E2E0D7D
:102A80000A093C696E70757420747970653D27740D
:102A900065787427206E616D653D27436C69335FEF
:102AA000495034272073697A653D273327207661A2
:102AB0006C75653D277B7B7B273E0D0A093C696E63
:102AC00070757420747970653D277375626D6974D3
:102AD000272076616C75653D274F4B273E0D0A3CDC
:102AE0002F666F726D3E0D0A3C2F42523E0D0A3C1E
:102AF000464F524D20616374696F6E3D272F27202A
:102B00006D6574686F643D27474554273E0D0A097B
:102B10003C696E70757420747970653D27737562B9
:102B20006D697427206E616D653D2752657365740C
:102B300047534D272076616C75653D275265736557
:102B40007447534D273E0D0A3C2F464F524D3E0DC4
:102B50000A3C2F42523E0D0A0D0A0D0A3C68333ED4
:102B6000CEF2F1FBEBEAE020F2E5EAF3F9E8F5203A
:102B7000E4E0EDEDFBF53A3C2F68333E0D0A3C2FC7
:102B800042523E0D0A0D0A3C666F726D20616374FD
:102B9000696F6E3D272F27206D6574686F643D2730
:102BA000474554273E0D0A554450205365727665BB
:102BB00072312049503A0D0A093C696E70757420D3
:102BC000747970653D277465787427206E616D6532
:102BD0003D275544503031272073697A653D2733AE
:102BE000272076616C75653D277B7B7B273E2E0D0C
:102BF0000A093C696E70757420747970653D27749C
:102C000065787427206E616D653D275544503032DC
:102C1000272073697A653D2733272076616C7565B7
:102C20003D277B7B7B273E2E0D0A093C696E707524
:102C30007420747970653D277465787427206E61FF
:102C40006D653D275544503033272073697A653DC3
:102C50002733272076616C75653D277B7B7B273E7C
:102C60002E0D0A093C696E70757420747970653D8B
:102C7000277465787427206E616D653D2755445033
:102C80003034272073697A653D2733272076616CBD
:102C900075653D277B7B7B273E0D0A506F72743A2A
:102CA0000D0A093C696E70757420747970653D2752
:102CB0007465787427206E616D653D2755445030EA
:102CC0005F506F7274272073697A653D273527201E
:102CD00076616C75653D277B7B7B7B7B273E0D0A90
:102CE000093C696E70757420747970653D27737541
:102CF000626D6974272076616C75653D274F4B279F
:102D00003E0D0A3C2F666F726D3E0D0A3C2F4252FB
:102D10003E0D0A3C666F726D20616374696F6E3D93
:102D2000272F27206D6574686F643D27474554271A
:102D30003E0D0A5544502053657276657232204923
:102D4000503A0D0A093C696E70757420747970658B
:102D50003D277465787427206E616D653D27554465
:102D6000503131272073697A653D273327207661FA
:102D70006C75653D277B7B7B273E2E0D0A093C69E0
:102D80006E70757420747970653D2774657874274A
:102D9000206E616D653D275544503132272073699F
:102DA0007A653D2733272076616C75653D277B7BEF
:102DB0007B273E2E0D0A093C696E7075742074796C
:102DC00070653D277465787427206E616D653D27B9
:102DD0005544503133272073697A653D27332720C6
:102DE00076616C75653D277B7B7B273E2E0D0A093E
:102DF0003C696E70757420747970653D27746578D0
:102E00007427206E616D653D27554450313427206D
:102E100073697A653D2733272076616C75653D2798
:102E20007B7B7B273E0D0A506F72743A0D0A093C7A
:102E3000696E70757420747970653D277465787457
:102E400027206E616D653D27554450315F506F728C
:102E500074272073697A653D2735272076616C7564
:102E6000653D277B7B7B7B7B273E0D0A093C696E9A
:102E700070757420747970653D277375626D69741F
:102E8000272076616C75653D274F4B273E0D0A3C28
:102E90002F666F726D3E0D0A3C2F42523E0D0A0D99
:102EA0000A3C666F726D20616374696F6E3D272FF7
:102EB00027206D6574686F643D27474554273E0D94
:102EC0000A55445020536572766572332049503A52
:102ED0000D0A093C696E70757420747970653D2720
:102EE0007465787427206E616D653D2755445032B6
:102EF00031272073697A653D2733272076616C7509
:102F0000653D277B7B7B273E2E0D0A093C696E7051
:102F1000757420747970653D277465787427206E08
:102F2000616D653D275544503232272073697A65BB
:102F30003D2733272076616C75653D277B7B7B279A
:102F40003E2E0D0A093C696E7075742074797065A7
:102F50003D277465787427206E616D653D27554463
:102F6000503233272073697A653D273327207661F5
:102F70006C75653D277B7B7B273E2E0D0A093C69DE
:102F80006E70757420747970653D27746578742748
:102F9000206E616D653D275544503234272073699A
:102FA0007A653D2733272076616C75653D277B7BED
:102FB0007B273E0D0A506F72743A0D0A093C696E08
:102FC00070757420747970653D2774657874272056
:102FD0006E616D653D27554450325F506F727427A6
:102FE0002073697A653D2735272076616C75653DCC
:102FF000277B7B7B7B7B273E0D0A093C696E7075C6
:103000007420747970653D277375626D697427202B
:1030100076616C75653D274F4B273E0D0A3C2F6648
:103020006F726D3E0D0A3C2F42523E0D0A0D0A3C56
:10303000666F726D20616374696F6E3D272F272064
:103040006D6574686F643D27474554273E0D0A55EA
:10305000445020536572766572342049503A0D0A07
:10306000093C696E70757420747970653D277465CC
:10307000787427206E616D653D27554450333127A4
:103080002073697A653D2733272076616C75653D2D
:10309000277B7B7B273E2E0D0A093C696E70757479
:1030A00020747970653D277465787427206E616D92
:1030B000653D275544503332272073697A653D2793
:1030C00033272076616C75653D277B7B7B273E2E01
:1030D0000D0A093C696E70757420747970653D271E
:1030E0007465787427206E616D653D2755445033B3
:1030F00033272073697A653D2733272076616C7505
:10310000653D277B7B7B273E2E0D0A093C696E704F
:10311000757420747970653D277465787427206E06
:10312000616D653D275544503334272073697A65B6
:103130003D2733272076616C75653D277B7B7B2798
:103140003E0D0A506F72743A0D0A093C696E707533
:103150007420747970653D277465787427206E61DA
:103160006D653D27554450335F506F72742720734F
:10317000697A653D2735272076616C75653D277B2B
:103180007B7B7B7B273E0D0A093C696E7075742042
:10319000747970653D277375626D69742720766157
:1031A0006C75653D274F4B273E0D0A3C2F666F72AD
:1031B0006D3E0D0A3C2F42523E0D0A0D0A203C2F57
:1031C000424F44593E0D0A3C2F48544D4C3E0D0A87
:1031D00000220F00000015220F00000015070A0B47
:1031E0000000001404060000000820010000000890
:1031F0000E01000002115600000002011001000043
:103200000001110100000001120100000001130182
:103210000000000114010000000115010000000180
:103220001601000000011701000000011801000054
:1032300000011901000000011A01000000011B013A
:10324000000000011C01000000011D010000000140
:103250001E01000000011F01000000012A01000002
:1032600000012B01000000012C01000000012D01D4
:10327000000000082201000000012E0100000001F2
:103280002F010000000130010000000131010000A9
:103290000008240100000001320100000001330198
:1032A00000000001340100000001350100000008A9
:1032B0002601000000013601000000013701000076
:1032C0000001380100000001390100000008280158
:1032D0000000006E6574776F726B2E68746D6C0001
:1032E00007340000000000001A01ED32003C485491
:1032F0004D4C3E0D0A3C484541443E0D0A3C544964
:10330000544C453ECEF8E8E1EAE020E4EEF1F2F379
:10331000EFE03C2F5449544C453E0D0A3C6D65741A
:103320006120687474702D65717569763D22436FF4
:103330006E74656E742D547970652220636F6E749F
:10334000656E743D22746578742F68746D6C3B20D3
:10335000636861727365743D77696E646F77732D0E
:1033600031323531223E0D0A3C2F484541443E0D55
:103370000A3C63656E7465723E0D0A3C6865616463
:103380003E0D0A3C68333EC2E0F820F3F0EEE2E581
:10339000EDFC20E4EEF1F2F3EFE020EDE520EFEEBE
:1033A000E7E2EEEBFFE5F220EFF0EEF1ECE0F2F019
:1033B000E8E2E0F2FC20FDF2F320F1F2F0E0EDE8CB
:1033C000F6F33C2F68333E0D0A3C61206872656657
:1033D0003D22696E6465782E68746D6C223ECDE086
:1033E000E7E0E420EDE020E3EBE0E2EDF3FE20F1A6
:1033F000F2F0E0EDE8F6F33C2F613E0D0A3C2F6859
:10340000746D6C3E0D0A006163636573735F657272
:10341000726F722E68746D6C00A439000000000099
:10342000007E05263400000001000100101000009D
:1034300001000800680500001600000028000000D8
:103440001000000020000000010008000000000043
:10345000000100000000000000000000000100006A
:1034600000000000271FED00A4A1F8005953F1004F
:103470007570F4002D25EE00C7C5FA003932EF0053
:10348000F0EFFE008B87F500A7A4F8003C35EF00B5
:10349000FFFFFF00C3C1FA00332BEE006862F300A8
:1034A000F6F5FE00ADAAF800B9B7F9002C24EE003D
:1034B0002921ED003B34EF00C2C0FA00251DED00CC
:1034C000DBDAFC00322AEE00E8E7FD00938FF6001D
:1034D000807BF5002B23EE00E1E0FD007C78F4001A
:1034E000342DEE00A29FF700D7D6FC009B98F70082
:1034F000241CED00B8B5F900000000000000000039
:1035000000000000000000000000000000000000BB
:1035100000000000000000000000000000000000AB
:10352000000000000000000000000000000000009B
:10353000000000000000000000000000000000008B
:10386000000000000B0B0B0B0B0B0B0B0B0B0B0BD4
:103870000B0B0B0B0B0023232323232323232323B3
:1038800023230A0B0B232323231C1E09010E1623BB
:103890002323180B0B2323230D210B0B0B0B2416B7
:1038A0002323180B0B232323200B0B0B0B0B0B03D6
:1038B0002323180B0B232316070B0B0B0B0B0B0CE3
:1038C0002323180B0B2323180B0B0B0B0B0B0B1DBC
:1038D0002323180B0B2323040B0B0B0B0B0B0B17C6
:1038E0002323180B0B232323190B0B0B0B0B0B118F
:1038F0002323180B0B232323100B0B0B0B0B0B1B7E
:103900002323180B0B232323020B0B0B0B0B0F1F73
:103910002323180B0B23232323150B0B0B0B1A2329
:103920002323180B0B2323232314190B0B05132319
:103930002323180B0B2323232323062208122323DC
:103940002323180B0B0023232323232323232323A5
:1039500023230A0B0B0B0B0B0B0B0B0B0B0B0B0B88
:103960000B0B0B0B0000000000000000000000002B
:103970000000000000000000000000000000000047
:103980000000000000000000000000000000000037
:103990000000000000000000000000000000000027
:1039A0000000000066617669636F6E2E69636F00C8
:1039B0007B4587431C00BD390009873A027C3A6C7D
:1039C0003A673A573A513A413A3A3A2A3A213A1141
:1039D0003AE939D939083AF8390808003C000000BA
:1039E000FFFF000000000000004375727244617424
:1039F00061506572696F6400010A000000000001F7
:103A000000000000000000004175746F53656E6493
:103A1000000028090000000001000000C24B000067
:103A20000053746F70426974730000FE050000005B
:103A3000000200000000000000005061726974790B
:103A40000000560A00000000030000000000000013
:103A500000426974517400004F0A00000000080021
:103A600000000000000000526174650001290000A0
:103A700000000004000000EE4B000000454D65749E
:103A8000657254797065003C48544D4C3E0D0A3CBB
:103A9000484541443E0D0A3C5449544C453E7B7BCD
:103AA0007B7B7B7B7B7B7B7B7B7B7B7B7B7B7B7B66
:103AB0007B7B3C2F5449544C453E0D0A3C6D65744C
:103AC0006120687474702D65717569763D22436F4D
:103AD0006E74656E742D547970652220636F6E74F8
:103AE000656E743D22746578742F68746D6C3B202C
:103AF000636861727365743D77696E646F77732D67
:103B000031323531223E0D0A3C2F484541443E0DAD
:103B10000A3C424F44593E0D0A0D0A3C48323E458C
:103B20004D5265616465722E207B7B7B7B7B7B7B4A
:103B30007B7B7B7B7B7B7B7B7B7B7B7B7B3C2F4893
:103B4000323E0D0A49443A207B7B7B7B207B7B7B8A
:103B50007B7B7B7B7B7B200953573A20332E30378E
:103B60003C2F42523E0D0A3C48523E0D0A3C612019
:103B7000687265663D22696E6465782E68746D6C46
:103B8000223EC3EBE0E2EDE0FF3C2F613E207C20D3
:103B90000D0A3C6120687265663D22656D6574653D
:103BA000722E68746D6C223ECDE0F1F2F0EEE9EA1F
:103BB000E820F1F7E5F2F7E8EAE03C2F613E207CEF
:103BC000200D0A3C6120687265663D226E6574773F
:103BD0006F726B2E68746D6C223ED1E5F2E5E2FBEC
:103BE000E520EDE0F1F2F0EEE9EAE83C2F613E205D
:103BF0007C200D0A3C6120687265663D2267736D0A
:103C00002E68746D6C223E47534D2F475052533CE3
:103C10002F613E207C200D0A3C6120687265663D64
:103C2000226373642E68746D6C223E4353443C2FB0
:103C3000613E207C200D0A3C6120687265663D2251
:103C400073797374656D2E68746D6C223ED1E8F1E2
:103C5000F2E5ECE03C2F613E207C200D0A3C612027
:103C6000687265663D226C6F676F75742E68746D3F
:103C70006C223EC2FBF5EEE43C2F613E0D0A3C484F
:103C8000523E0D0A3C68333ED1F7B8F2F7E8EAE855
:103C900020FDEBE5EAF2F0EEFDEDE5F0E3E8E83AD1
:103CA0003C2F68333E0D0A412B207B7B7B7B7B7B4B
:103CB0007B7B7B7B7B20EAC2F22AF7207C20412D94
:103CC000207B7B7B7B7B7B7B7B7B7B7B20EAC2F2CD
:103CD0002AF7207C20522B207B7B7B7B7B7B7B7B92
:103CE0007B7B7B20EAC2C0F02AF7207C20522D206B
:103CF0007B7B7B7B7B7B7B7B7B7B7B20EAC2C0F0FF
:103D00002AF70D0A3C2F42523E0D0A3C68333ED240
:103D1000E8EF20FDEBE5EAF2F0EEF1F7B8F2F7E8B4
:103D2000EAE03A3C2F68333E0D0A3C666F726D2024
:103D3000616374696F6E3D272F27206D6574686F0E
:103D4000643D27474554273E0D0A093C53454C45E1
:103D50004354204E414D453D22454D657465725496
:103D6000797065223E200D0A3C4F5054494F4E2039
:103D700056414C55453D30207B7B7B7B7B7B7B7B61
:103D80003ECDE5F2200D0A3C4F5054494F4E20568F
:103D9000414C55453D31207B7B7B7B7B7B7B7B3E58
:103DA0004C616E646973264779720D0A3C4F50541A
:103DB000494F4E2056414C55453D32207B7B7B7B05
:103DC0007B7B7B7B3EDDCBC2C8CD0D0A3C4F505484
:103DD000494F4E2056414C55453D33207B7B7B7BE4
:103DE0007B7B7B7B3ECCE5F0EAF3F0E8E9323330D5
:103DF0000D0A3C4F5054494F4E2056414C55453DBD
:103E000034207B7B7B7B7B7B7B7B3EDDCBC2C8CD49
:103E100020ECEEE4E5EC0D0A093C2F53454C4543FC
:103E2000543E200D0A093C696E70757420747970D7
:103E3000653D277375626D6974272076616C7565C1
:103E40003D274F4B273E0D0A3C2F666F726D3E0D8E
:103E50000A3C2F42523E0D0A0D0A3C68333ECFE029
:103E6000F0E0ECE5F2F0FB2052533233322F5253A4
:103E70003438353A3C2F68333E0D0A3C666F726D1C
:103E800020616374696F6E3D272F27206D6574680C
:103E90006F643D27474554273E0D0A0D0A09D1EAB4
:103EA000EEF0EEF1F2FC3A0D0A093C53454C454365
:103EB00054204E414D453D2252617465223E200DF5
:103EC0000A093C4F5054494F4E2056414C55453DF0
:103ED00030207B7B7B7B7B7B7B7B3E313230306257
:103EE00070730D0A093C4F5054494F4E2056414CB7
:103EF00055453D31207B7B7B7B7B7B7B7B3E32341E
:103F000030306270730D0A093C4F5054494F4E20B7
:103F100056414C55453D32207B7B7B7B7B7B7B7BBD
:103F20003E343830306270730D0A093C4F505449AA
:103F30004F4E2056414C55453D33207B7B7B7B7B50
:103F40007B7B7B3E393630306270730D0A093C4F03
:103F50005054494F4E2056414C55453D34207B7BB3
:103F60007B7B7B7B7B7B3E31343430306270730DE6
:103F70000A093C4F5054494F4E2056414C55453D3F
:103F800035207B7B7B7B7B7B7B7B3E3139323030CA
:103F90006270730D0A093C4F5054494F4E205641F0
:103FA0004C55453D36207B7B7B7B7B7B7B7B3E3250
:103FB000383830306270730D0A093C4F5054494F05
:103FC0004E2056414C55453D37207B7B7B7B7B7B90
:103FD0007B7B3E33383430306270730D0A093C4FBE
:103FE0005054494F4E2056414C55453D38207B7B1F
:103FF0007B7B7B7B7B7B3E35373630306270730D4D
:104000000A093C2F53454C4543543E0D0A0D0A09FD
:10401000CAEEEBE8F7E5F1F2E2EE20E1E8F23A0D64
:104020000A093C53454C454354204E414D453D22E1
:104030004269745174223E200D0A093C4F50544984
:104040004F4E2056414C55453D30207B7B7B7B7B42
:104050007B7B7B3E350D0A093C4F5054494F4E2027
:1040600056414C55453D31207B7B7B7B7B7B7B7B6D
:104070003E360D0A093C4F5054494F4E2056414C94
:1040800055453D32207B7B7B7B7B7B7B7B3E370DAD
:104090000A093C4F5054494F4E2056414C55453D1E
:1040A00033207B7B7B7B7B7B7B7B3E380D0A093C13
:1040B0002F53454C4543543E200D0A0D0A09D7B8ED
:1040C000F2EDEEF1F2FC3A0D0A093C53454C454342
:1040D00054204E414D453D22506172697479223E13
:1040E000200D0A093C4F5054494F4E2056414C5523
:1040F000453D30207B7B7B7B7B7B7B7B3EEDE5F214
:104100000D0A093C4F5054494F4E2056414C5545DD
:104110003D31207B7B7B7B7B7B7B7B3EF7E5F2ED40
:10412000FBE90D0A093C4F5054494F4E2056414C73
:1041300055453D32207B7B7B7B7B7B7B7B3EEDE56E
:10414000F7B8F2EDFBE90D0A093C2F53454C454306
:10415000543E200D0A0D0A09D1F2EEEF2DE1E8F2EE
:10416000FB3A0D0A093C53454C454354204E414D02
:10417000453D2253746F7042697473223E200D0ACC
:10418000093C4F5054494F4E2056414C55453D3007
:10419000207B7B7B7B7B7B7B7B3E310D0A093C4F0D
:1041A0005054494F4E2056414C55453D31207B7B64
:1041B0007B7B7B7B7B7B3E320D0A093C2F53454C3E
:1041C0004543543E200D0A0D0A093C696E70757412
:1041D00020747970653D277375626D697427207648
:1041E000616C75653D274F4B273E0D0A3C2F666F6E
:1041F000726D3E0D0A3C2F42523E0D0A3C68333E22
:10420000CEEFF0EEF120F1F7B8F2F7E8EAE03A3C51
:104210002F68333E3C2F42523E0D0A3C666F726D52
:1042200020616374696F6E3D272F27206D65746868
:104230006F643D27474554273E0D0A093C53454CC2
:10424000454354204E414D453D224175746F5365A1
:104250006E64223E200D0A093C4F5054494F4E20B7
:1042600056414C55453D30207B7B7B7B7B7B7B7B6C
:104270003ECDE5F2200D0A093C4F5054494F4E20E7
:1042800056414C55453D31207B7B7B7B7B7B7B7B4B
:104290003EC4E00D0A093C2F53454C4543543E2093
:1042A0000D0A093C696E70757420747970653D273C
:1042B0007375626D6974272076616C75653D274F53
:1042C0004B273E0D0A3C2F666F726D3E0D0A3C6611
:1042D0006F726D20616374696F6E3D272F27206DAB
:1042E0006574686F643D27474554273E0D0A20CF0B
:1042F000E5F0E8EEE43A0D0A093C696E7075742049
:10430000747970653D277465787427206E616D65DA
:104310003D274375727244617461506572696F64C0
:10432000272073697A653D2735272076616C75658E
:104330003D277B7B7B7B7B273E0D0A09F1E5EA0D60
:104340000A093C696E70757420747970653D277335
:1043500075626D6974272076616C75653D274F4BDA
:10436000273E0D0A3C2F666F726D3E0D0A3C2F42B0
:10437000523E0D0A3C2F424F44593E0D0A3C2F48F5
:10438000544D4C3E0D0A00220F00000015220F0074
:10439000000015070A0B00000014040600000010BE
:1043A0003E0200000310420200000310460200001B
:1043B00003104A020000031E29005745001E290071
:1043C0004D45001E29004345001E29003945001EA9
:1043D00029002F45001D4F0A1D45001D4F0A0B45A2
:1043E000001D4F0AF944001D4F0AE744001D4F0A03
:1043F000D544001D4F0AC344001D4F0AB144001D9F
:104400004F0A9F44001D4F0A8D44001D560A8544E3
:10441000001D560A7D44001D560A7544001D560AAB
:104420006D44001DFE056744001DFE056144001D2E
:10443000FE055B44001D28095744001D280953440C
:10444000001E0A006545001E0A00614500080800BC
:1044500000000072456945694572457245724569BB
:1044600045724569457245694572457245724572A6
:10447000457245694572457245694572457245699F
:10448000457245724569457245724572457245727D
:10449000457245724572457245724572456945726D
:1044A000457245724572457245724572456945725D
:1044B000457245724572457245724572456945724D
:1044C000457245724572457245724572456945723D
:1044D000457245724572457245724572456945722D
:1044E000457245724572457245724572456945721D
:1044F000457245724572457245724572456945720D
:1045000045724572457245724572457245694572FC
:1045100045724572457245724572457245694572EC
:1045200045724572457245724572457245724572D3
:1045300045724572457245694572457245724569D5
:1045400045724572457245694572457245724569C5
:1045500045724572457245694572457245724572AC
:1045600045724569456945724573656C6563746557
:104570006400202020202020202000656D657465C7
:10458000722E68746D6C00BA487E4800000000EA24
:10459000029445003C48544D4C3E0D0A3C48454170
:1045A000443E0D0A3C5449544C453E7B7B7B7B7B0F
:1045B0007B7B7B7B7B7B7B7B7B7B7B7B7B7B7B3C8A
:1045C0002F5449544C453E0D0A3C6D65746120687A
:1045D0007474702D65717569763D22436F6E7465D4
:1045E0006E742D547970652220636F6E74656E74DD
:1045F0003D22746578742F68746D6C3B206368612C
:10460000727365743D77696E646F77732D313235DF
:1046100031223E0D0A3C2F484541443E0D0A3C42A2
:104620004F44593E0D0A0D0A3C48323E454D5265F5
:10463000616465722E207B7B7B7B7B7B7B7B7B7BC2
:104640007B7B7B7B7B7B7B7B7B7B3C2F48323E0D6C
:104650000A49443A207B7B7B7B207B7B7B7B7B7B7B
:104660007B7B7B200953573A20332E30373C2F4237
:10467000523E0D0A3C48523E0D0A3C61206872656C
:10468000663D22696E6465782E68746D6C223EC347
:10469000EBE0E2EDE0FF3C2F613E207C200D0A3C88
:1046A0006120687265663D22656D657465722E686D
:1046B000746D6C223ECDE0F1F2F0EEE9EAE820F113
:1046C000F7E5F2F7E8EAE03C2F613E207C200D0A96
:1046D0003C6120687265663D226E6574776F726B0F
:1046E0002E68746D6C223ED1E5F2E5E2FBE520ED2B
:1046F000E0F1F2F0EEE9EAE83C2F613E207C200D8B
:104700000A3C6120687265663D2267736D2E68748D
:104710006D6C223E47534D2F475052533C2F613E04
:10472000207C200D0A3C6120687265663D2263731F
:10473000642E68746D6C223E4353443C2F613E20CE
:104740007C200D0A3C6120687265663D2273797396
:1047500074656D2E68746D6C223ED1E8F1F2E5EC63
:10476000E03C2F613E207C200D0A3C612068726590
:10477000663D226C6F676F75742E68746D6C223E97
:10478000C2FBF5EEE43C2F613E0D0A3C48523E0D63
:104790000A3C68333ED1F7B8F2F7E8EAE820FDEBCF
:1047A000E5EAF2F0EEFDEDE5F0E3E8E83A3C2F68EB
:1047B000333E0D0A412B207B7B7B7B7B7B7B7B7B92
:1047C0007B7B20EAC2F22AF7207C20412D207B7BD4
:1047D0007B7B7B7B7B7B7B7B7B20EAC2F22AF72087
:1047E0007C20522B207B7B7B7B7B7B7B7B7B7B7B47
:1047F00020EAC2C0F02AF7207C20522D207B7B7B50
:104800007B7B7B7B7B7B7B7B20EAC2C0F02AF70D26
:104810000A3C68333ED3F0EEE2E5EDFC20F1E8E33C
:10482000EDE0EBE03A3C2F68333E0D0A207B7B2025
:1048300028302D3331293C2F42523E0D0A3C68333B
:104840003ECDE0F0E0E1EEF2EAE0203A3C2F6833C2
:104850003E0D0A7B7B7B7B7B7B7B7B7B7B7B20F1A9
:10486000E5EA0D0A3C2F42523E0D0A3C2F424F44CE
:10487000593E0D0A3C2F48544D4C3E0D0A00220F64
:1048800000000015220F00000015070A0B000000B1
:10489000140406000000103E020000031042020053
:1048A0000003104602000003104A02000003001734
:1048B00006000000104709000002696E6465782E4A
:1048C00068746D6C00D44BEC4A0800D248E30109CF
:1048D00049000349F348EA48DA4821E705000000A7
:1048E00000020000007F2900000B70617373776F76
:1048F00072640021DB0900000000020000000000DB
:104900000000106C6F67696E003C48544D4C3E0DC2
:104910000A3C484541443E0D0A3C5449544C453EEE
:104920007B7B7B7B7B7B7B7B7B7B7B7B7B7B7B7BD7
:104930007B7B7B7B3C2F5449544C453E0D0A3C6DA0
:1049400065746120687474702D65717569763D2297
:10495000436F6E74656E742D547970652220636F99
:104960006E74656E743D22746578742F68746D6C16
:104970003B20636861727365743D77696E646F771D
:10498000732D31323531223E0D0A3C2F48454144CA
:104990003E0D0A3C424F445920414C49474E3D434D
:1049A000454E5445523E0D0A7B7B7B7B7B7B7B7B5C
:1049B0007B7B7B7B7B7B7B7B7B7B7B7B7B7B7B7B47
:1049C0007B7B7B7B7B7B7B7B7B7B7B7B7B7B7B7B37
:1049D0007B7B7B7B7B7B7B7B7B3C2F42523E3C2FDC
:1049E00042523E0D0A4944207B7B7B7B207B7B7BB4
:1049F0007B7B7B7B7B7B3C2F42523E3C2F42523E5B
:104A00000D0A3C464F524D20616374696F6E3D271D
:104A10002F27206D6574686F643D27504F535427CE
:104A20003E0D0A094C6F67696E203C696E707574A3
:104A300020747970653D277465787427206E616DE8
:104A4000653D276C6F67696E272073697A653D271E
:104A50003135273E3C2F42523E3C2F42523E0D0AFA
:104A60000950617373776F7264203C696E7075745E
:104A700020747970653D2770617373776F72642756
:104A8000206E616D653D2770617373776F72642767
:104A90002073697A653D273130273E3C2F42523ED4
:104AA0003C2F42523E090D0A093C696E7075742014
:104AB000747970653D277375626D6974272076611E
:104AC0006C75653D274F4B273E3C2F42523E0D0AE9
:104AD0003C2F464F524D3E0D0A3C2F424F44593E0B
:104AE0000D0A3C2F48544D4C3E0D0A00220F000089
:104AF00000151DFC05044B00070A0B000000140400
:104B000006000000A24B704B3E4B0C4B5061737380
:104B1000776F7264206973206E6F742076616C69A0
:104B20006421202020202020202020202020202040
:104B300020202020202020202020202020004C6F1A
:104B400067696E206973206E6F742076616C69648A
:104B50002120202020202020202020202020202054
:104B60002020202020202020202020202020200065
:104B7000454D526561646572206973206275737971
:104B8000206E6F772E20416E6F746865722075738A
:104B900065722073746172742073657373696F6ECC
:104BA0002E0057656C636F6D6520746F20454D5204
:104BB00065616465722120506C65617365206C6F5E
:104BC0006720696E21202020202020202020202006
:104BD000202020006C6F67696E2E68746D6C004237
:104BE0003003750D0A4E4F20434152524945520D34
:104BF0000A000D0A434F4E4E4543540D0A000D0A5C
:104C000052494E470D0A000D0A4F4B0D0A00415400
:104C1000410D002B2B2B4154480D00415445300DC4
:104C20000041545A0D0041540D00000816008F86B3
:104C3000000816214F9E000816114F8A000500003B
:104C400010250001010101010101017781063035C4
:104C500030002F3F2100462E462E3000302E302EC1
:104C60003000432E36322E3200432E36322E3000A4
:104C7000432E36312E3200432E36312E3000432E55
:104C800036302E3200432E36302E300031362E375D
:104C90002E300037312E372E300035312E372E3062
:104CA0000033312E372E300037322E372E3000357C
:104CB000322E372E300033322E372E3000342E383D
:104CC0002E3000332E382E3000322E382E30003168
:104CD0002E382E3000302E392E3100302E392E3223
:104CE00000504F5354202F00474554202F00000000
:104CF0000000000000007500FB4C00485454502F89
:104D0000312E3020343034204E6F7420466F756E53
:104D1000640D0A436F6E74656E742D547970653A34
:104D200020746578742F68746D6C3B2063686172C1
:104D30007365743D77696E646F77732D31323531E9
:104D40000D0A436F6E6E656374696F6E3A20636C13
:104D50006F73650D0A0D0A3C68313E343034202DE6
:104D6000204E6F7420466F756E643C2F68313E0094
:104D70003F5345535349443D003C696E7075742060
:104D8000747970653D2768696464656E27206E617B
:104D90006D653D27534553534944272076616C7513
:104DA000653D2700436F6E6E656374696F6E3A20D0
:104DB000636C6F73650D0A0D0A006A7065670067A2
:104DC00069660069636F0068746D6C00696D616786
:104DD000652F00746578742F68746D6C3B20636870
:104DE00061727365743D77696E646F77732D3132CC
:104DF00035310D0A000D0A436F6E74656E742D4CCB
:104E0000656E6774683A2000436F6E74656E742D2A
:104E1000547970653A2000485454502F312E302078
:104E2000323030204F4B0D0A0029F2E5F1F2EEE26C
:104E3000EEE520F1EEEEE1F9E5EDE8E50000000039
:104E400061006200026100620001610062000434DE
:104E50000035003300020134003500330001013A0F
:104E6000003B00390001003A003B003900020041DC
:104E70005448004154410041542B43535100415484
:104E80002B43474154543D300041542B4349505328
:104E90004855540041542B434950434C4F53453DD2
:104EA000310041542B434950434C4F53453D782CDE
:104EB000310041542B43495053454E443D00415429
:104EC0002B4349505345525645523D300041542BD7
:104ED0004349505345525645523D312C0041542BC5
:104EE00043495053544152543D302C225544502292
:104EF0002C0041542B43494653520041542B434903
:104F00004943520041542B435354540041542B43C2
:104F10004950435347503D312C220041542B4347C5
:104F20004154543D310041542B4349504D55583D57
:104F3000310041542B4349504D55583D30004154A8
:104F40002B4349504D4F44453D310041542B43497B
:104F5000504D4F44453D300041542B434D47533D48
:104F6000222B0041542B43534D503D31372C3136C9
:104F7000372C302C300041542B434D47463D3100F7
:104F800041542B434349440041542B434C49503D29
:104F9000310041542B43474D4D00415445300041B1
:104FA0005426570041542B4950523D393630300079
:104FB0004154002B2B2B00434F4E4E454354203978
:104FC0003630300053485554204F4B002B4353513B
:104FD0003A00782C20434C4F5345204F4B00434C14
:104FE0004F5345204F4B00782C2053454E44204FC3
:104FF0004B0053455256455220434C4F53450053A6
:105000004552564552204F4B00782C20434F4E4E70
:10501000454354204F4B004F4B004E4F20434152CD
:10502000524945520052494E47002B5044502044AB
:1050300045414354002C20434C4F534544002B52D0
:105040004543454956452C00434F4E4E4543540079
:1050500052454D4F544520495000534D5320526501
:105060006164790043616C6C20526561647900521F
:1050700044590053494D434F4D5F53494D383030EB
:105080000053494D434F4D5F53494D393030520025
:1050900052005100AA2844004300B0289C009B0005
:1050A0009A009D0098009900A228A728A828A9285E
:1050B0004203FFA001FBCF007D67003F44002A337D
:1050C000001F22001B19001B10001BD7030800EE55
:1050D0000308006E0826005C0A1E00006364696E07
:1050E0006F70737578585B0011241FBECFEFD0E14D
:1050F000DEBFCDBF12E0A0E0B1E0E6E4F3E001E006
:105100000BBF02C007900D92A033B107D9F72EE074
:10511000A0E3B2E001C01D92AE32B207E1F70E94F7
:1051200030770C94B9770C940000FC0180810895CD
:10513000FC0184910895A0E0B0E01196ABBFFC01A2
:105140008791089582B390E1892782BB08950895DD
:10515000089508958FE083BF87B7826087BF089561
:105160008DE085BD87B7806887BF089560E076E0F1
:10517000262F30E0729FF001739FF00D1124E0574D
:10518000FF4A45915491E62FF0E08417950711F0FE
:105190006F5FEECFE552FF4AE491EE2319F0E13064
:1051A000F9F00895F22FEE27E65DF24F9081F901B4
:1051B000E051FC4F8081981799F0F901E752FC4FBC
:1051C00081E08083F90184E0EE0FFF1F8A95E1F70B
:1051D000E45FF44F808191810196918380830895EB
:1051E0003091F60A81E090E0022E01C0880F0A9407
:1051F000EAF7382B3093F60A0895282F30E094E12F
:10520000899FF0011124E256FF4AA591B4919C9127
:10521000F901E154F74F408151E0540F508354E1BC
:10522000529FF001539FF00D1124E456FF4AA591BF
:10523000B4915C91F22FEE27E40FF11DE65DF24F81
:10524000508393FF0EC0F90124E0EE0FFF1F2A9553
:10525000E1F7E45FF44F268537852F5F3F4F3787AF
:1052600026879C7159F021E030E001C0220F8A9519
:10527000EAF780916302822B80936302089543E0F2
:10528000849FF0011124E35CF14B25913491E82FC8
:10529000F0E0E750FA4F8081A90164E0869F400D5D
:1052A000511D1124CA0108958FE49EE4F894FC0175
:1052B000A591B491AC014A5F5F4FFA0134913095EA
:1052C0002C9123232C939C012E5F3F4FF901A59134
:1052D000B491FA0144912C91242B2C937894089644
:1052E000FEE48F369F0711F70895F894FFCF8FE4FF
:1052F000809319060895F894E0E0FFEF099481E0A7
:1053000080932C0808950C94627F0F931F93CF9382
:10531000DF93C82FD0E0FE01EC5EF94F9081923010
:1053200009F1FE01A4E0EE0FFF1FAA95E1F7ED528F
:10533000FF4A059114910E943F290196FC01859135
:105340009491C150DA4F2881FC0137E0239FE00D92
:10535000F11D1124359685919491880F991F800F26
:10536000911F09C073E0CC0FDD1F7A95E1F7C55A94
:10537000DD4F8E819F81DF91CF911F910F91089515
:10538000FC01659175918591949108958F929F92FA
:10539000AF92BF92CF92DF92EF92FF920F931F9343
:1053A000CF93DF9300D000D0CDB7DEB74C015B01C7
:1053B000C12CD12C7601C216D306E406F506F9F00D
:1053C000C5018C0D9D1D29833A834B835C83F401B9
:1053D00009958027682F70E0FB01EE54FB4F049184
:1053E0000127FB01EE54FC4F1491FFEFCF1ADF0AA7
:1053F000EF0AFF0A5C814B813A812981DCCF802F43
:1054000090E0912B0F900F900F900F90DF91CF9124
:105410001F910F91FF90EF90DF90CF90BF90AF90D2
:105420009F908F9008950F931F930FEF1FEF0E948F
:10543000C6291F910F9108950F931F932FE831E014
:1054400040E050E060E070E083E899E20E94132AB7
:105450002BEF3FE02F58314040E050E08C0164E9F1
:1054600071E083E899E20E94C6291F910F91089587
:1054700080915B0A81FD07C00E941C2ABC0181E962
:1054800091E00C94957F08950E94807F0C94382AB7
:10549000F8946FEF8FEF9FE00E94442AFFCF0E94A5
:1054A000957F0C94382A0E948D7F0C94382A0E9494
:1054B000767F0C94382A0F931F9320E030E041E070
:1054C00050E060E070E088E998E20E94132A8C01C5
:1054D00020E030E041E050E060E070E08BE998E2ED
:1054E0000E94C6291F910F91089583E991E00E94BF
:1054F000627F811113C00E945B2ABC018FE891E09A
:105500000E94957F0E941C2ABC0181E991E00E94C3
:10551000957F61E083E991E00C94807F08958FB7D7
:1055200080788093D603F8948091D6030895809173
:10553000D603882309F078948091D60308950E94B9
:105540008F2A87E290E00E94707F90936F0880938B
:105550006E084EE150E062E671E080E798E00E945C
:10556000527F44E150E06EE471E08EE898E00E94E2
:10557000527F44E150E06AE371E082EA98E00E94E1
:10558000527F80E291E00E94707F9093B7088093F1
:10559000B6088EE091E00E94707F9093B9088093E6
:1055A000B8080C94972AA8952FE088E190E00FB6F0
:1055B000F894A89581BD0FBE21BD089580910D017D
:1055C00091E0980F90930D01089580910C0191E066
:1055D000980F90930C0108951F93CF93DF931F9220
:1055E000CDB7DEB7182F69830E948F2AE12FF0E034
:1055F000E256FC4F69816083E12FE695E695E695DA
:105600001770F0E0EB58FD4F808121E030E0012E73
:1056100001C0220F0A94EAF7662321F0209528237F
:10562000208302C0822B80830F90DF91CF911F9146
:105630000C94972A1F93CF93DF93182FEB010E94AE
:105640008F2AE12FF0E0EE0FFF1FE25EFC4FD183C7
:10565000C083E12FE695E695E6951770F0E0E459F2
:10566000FD4F808121E030E0012E01C0220F0A941D
:10567000EAF7CD2B21F020952823208302C0822B2E
:105680008083DF91CF911F910C94972A282F30E0CF
:10569000F901EE0FFF1FEE0FFF1FEB5AFD4F1082B7
:1056A000118212821382F901EE51FC4F608194E65F
:1056B000699FB0011124909154029F5F890F0C944F
:1056C0001A2B4F925F926F927F928F929F92AF921E
:1056D000BF92CF92DF92EF92FF920F931F93CF93DF
:1056E000DF93982E83E0989EF0011124E15CF14B4A
:1056F0007490812C612C092D10E0E801C750DA4F1D
:105700009801220F331FF901E15DF64F5F01C901D6
:10571000835D974F6C017801EE0CFF1CEE0CFF1CB3
:10572000F701EB5AFD4F7F0198819F5F9883971196
:1057300027C018826090540263946394690C0E949D
:105740008F2AA62DB0E0AA0FBB1FA25EBC4F4D90C2
:105750005C900E94972A920120953095F501318343
:105760002083F601408151814217530710F43183A1
:1057700020836FEF7FEF862D0E941A2B662463949F
:10578000F7014081518162817381088004C0769560
:105790006795579547950A94D2F740FF03C08394C5
:1057A000871410F2871009C0892D0E94462B98811A
:1057B0009F5F9883981101C01882F801E150FA4F59
:1057C0001082862DDF91CF911F910F91FF90EF9066
:1057D000DF90CF90BF90AF909F908F907F906F9011
:1057E0005F904F9008950F931F93CF93DF93282FCF
:1057F00030E0F901EC5EF94F9081923011F41082A3
:1058000054C0F901D4E0EE0FFF1FDA95E1F7E45F31
:10581000F44F408551854F5F5F4F51874087F901B5
:10582000E75AFD4F90819F5F9083D901A654B74FEF
:105830004C9194133AC0D901A750BA4F41E050E0BF
:1058400060E070E00C9004C0440F551F661F771F86
:105850000A94D2F7D901AA0FBB1FAA0FBB1FED01F3
:10586000C950D54F088119812A813B81042B152B02
:10587000262B372B088319832A833B83AB5ABD4FD2
:105880000D911D912D913C911397042B152B262BD7
:10589000372B0D931D932D933C9313971082DF911B
:1058A000CF911F910F910C94612B80E0DF91CF91EC
:1058B0001F910F9108951F93CF93DF9300D000D0D5
:1058C000CDB7DEB7182F49835A836B837C830E9440
:1058D0008F2A84E0189FF0011124E258FD4F49817E
:1058E0005A816B817C814083518362837383E12F72
:1058F000E695E695E6951770F0E0EA59FD4F808150
:1059000021E030E0012E01C0220F0A94EAF7452B76
:10591000462B472B21F020952823208302C0822B81
:1059200080830F900F900F900F90DF91CF911F9178
:105930000C94972AA82FA695A695A695B0E0AB58EB
:10594000BD4F2C9130E0982F977002C03595279568
:105950009A95E2F720FF07C0E82FF0E0E256FC4FEF
:10596000908181E0911180E00895CF93C82F0E942B
:105970008F2AAC2FA695A695A695B0E0A459BD4F49
:105980002C9130E08C2F877002C0359527958A9531
:10599000E2F720FF0BC0EC2FF0E0EE0FFF1FE25EFE
:1059A000FC4F20813181C1E0232B09F0C0E00E942F
:1059B000972A8C2FCF910895CF93C82F0E948F2ABA
:1059C000AC2FA695A695A695B0E0AA59BD4F2C91EF
:1059D00030E08C2F877002C0359527958A95E2F7C5
:1059E00020FF0FC084E0C89FF0011124E258FD4F52
:1059F0004081518162817381C1E0452B462B472B49
:105A000009F0C0E00E94972A8C2FCF910895CF9380
:105A1000C82F0E948F2AAC2FA695A695A695B0E018
:105A2000A459BD4F8C919C2F977021E030E001C0AC
:105A3000220F9A95EAF7822B8C93EC2FF0E0EE0F71
:105A4000FF1FE25EFC4F11821082CF910C94972AC7
:105A5000609115068BE891E00E94442A60912A0E1D
:105A600070912B0E89E891E00C944F2A0E94D32A62
:105A70001FBC8AEE8EBD80E29EE49BBD8ABD87B7C7
:105A8000806187BF80E090E02FEFFC01EB58FD4F75
:105A90002083019687309105C1F780E090E03FEFC9
:105AA000FC01E459FD4F2FEF3083019689309105B9
:105AB000B9F720936602209367022093680220932F
:105AC000690220936A0220936B028BE891E00E94A6
:105AD000627F8093150689E891E00E94707F909321
:105AE0002B0E80932A0E089580910B0191E0980F60
:105AF00090930B01809365026FEF0C94EC2A1F9238
:105B00000F920FB60F9211240BB60F922F933F9363
:105B10004F935F936F938F939F93EF93FF93809136
:105B200064028F5F8093640280E090E041E050E087
:105B300020917C0230E0082E02C0359527950A940A
:105B4000E2F720FD13C0FC01E253FC4F20812150FD
:105B5000208321110BC060917C029A01082E01C0A4
:105B6000220F0A94EAF7622B60937C020196883038
:105B70009105F1F6FF91EF919F918F916F915F9158
:105B80004F913F912F910F900BBE0F900FBE0F9032
:105B90001F901895EF92FF920F931F93CF93DF936F
:105BA000F8940091640210926402789410E0EE245C
:105BB000E394F12C101709F4E2C080914709909109
:105BC0004809A0914909B0914A090196A11DB11D4A
:105BD0008093470990934809A0934909B0934A09D3
:105BE00080E090E0F894E82FE695E695E695F0E001
:105BF000EB58FD4F2081582F577030E0052E02C022
:105C0000359527950A94E2F720FD11C0DC01A256D4
:105C1000BC4F3C9131503C93311109C040819701F8
:105C2000052E01C0220F0A94EAF7422B4083789494
:105C3000019680339105B1F680E090E0F894E82F6A
:105C4000E695E695E695F0E0E459FD4F2081582F62
:105C5000577030E0052E02C0359527950A94E2F77B
:105C600020FD18C0DC01AA0FBB1FA25EBC4F2D9106
:105C70003C9111972150310911963C932E93232B7F
:105C800049F440819701052E01C0220F0A94EAF7DA
:105C9000422B4083789401968034910579F620E078
:105CA00030E0F894E22FE695E695E695F0E0EA59C3
:105CB000FD4F8081622F677090E0062E02C095959F
:105CC00087950A94E2F780FD20C0A901440F551F73
:105CD000440F551F42585D4FEA0188819981AA817E
:105CE000BB810197A109B10988839983AA83BB83EA
:105CF000892B8A2B8B2B49F44081C701062E01C0CA
:105D0000880F0A94EAF7482B408378942F5F3F4F1F
:105D10002832310531F680913D028F5F80933D023C
:105D2000843659F510923D0280912B0990912C09EF
:105D3000909356098093550910922C0910922B09C3
:105D40008091F20A8F5F8093F20A8C33B1F4109243
:105D5000F20A809115068F5F809315068C3369F4E3
:105D60001092150680912A0E90912B0E0196909319
:105D70002B0E80932A0E0E94282D1F5F1BCFDF91D0
:105D8000CF911F910F91FF90EF900895A89580916A
:105D90002B0990912C09019690932C0980932B0943
:105DA00080916502E82FF0E0E256FC4F90819095DB
:105DB0009093240920911606291710F49093160643
:105DC0006FEF0C94EC2ABC0180E090E00E94927985
:105DD0002DEC3CEC4CE45FE30E94207A0E94667953
:105DE0006115710539F085E08A95F1F70000615081
:105DF0007109F6CF08958C9A9498089581110AC07C
