S00E000076656D5F6B652E737265639F
S11300000C94F3270C9412280C9412280C941228A4
S11300100C9412280C9412280C9412280C94122874
S11300200C9412280C94DA2E0C9412280C94122896
S11300300C94FE2C0C9412280C9412280C94AA2EC6
S11300400C9412280C9412280C9423570C94956940
S11300500C94473B0C9412280C9412280C941228EC
S11300600C9412280C9412280C9412280C94122824
S11300700C9412280C9412280C94344C0C945C6A42
S11300800C94774C0C9412280C9412289D329D32B7
S11300902933293385348433853485348534853450
S11300A08534853485348534B3332C342236223672
S11300B0B836B836C9372437C937C937C937C93705
S11300C0C937C937C937C937773777370B44364407
S11300D06A44A0440B443644F646C244EB441D45EE
S11300E05645C244EB4480458045F64684458F45D9
S11300F09A45CE4584458F45F646F646F646FE4576
S11301001A46FE451A4638463B46424664468846E9
S1130110BD466D47714776477B478047854789478A
S11301208D479347A947AD47B247B647BB47C0473A
S1130130C547CA47D047E547E947EE47F347F8477D
S1130140FC47014806480B481148CC4AD14AD64AD4
S1130150EE4ADA4ADE4AE24AE64AEA4A8A52125346
S113016086521653B252B652BA52BE52C252C652F6
S1130170CA52CE52D252D652DA52DE52E252E6522B
S1130180EA52EE52F252F6526A536E537253765357
S11301907A537E53825386538A538E539253965383
S11301A0F757125822582F58706470645958705871
S11301B080588D589D58AA58BA58C9584659565906
S11301C063597359805990599D59AD59BA59D059A9
S11301D0D959EB59025A7A5A8A5A975AA75AB45A91
S11301E0C45AD15A335B925BA05BAE5BD45BFA5BBF
S11301F0055C135C1E5C495CD95CE75C155D5C5D69
S11302006A5D765DE35D725E315F445F505FA55F5A
S11302100F609760A460B760D0603D617361AE61A8
S1130220DA61EB61F76170647064706470647064C7
S1130230706470647064706470647064706470641A
S1130240BF5FCB5FD75FE35FF15FFD5F7064706496
S11302501C623E624862546262626E627E629E62A8
S1130260C26210631C6346636863B163BD63D26397
S1130270DE63F663046416642464306443644F6488
S1130280626470647D677F678A678C6799679B6720
S1130290A667D867DF67E767EE67F667FD67D86725
S11302A0F667AF6705680A681368186821682668E6
S11302B005682168BA672F68346845684A685B68CE
S11302C05D686B6875689B68A268EDE5F220F1E2F1
S11302D0FFE7E820F120DDD12000E5F1F2FC20F178
S11302E0E2FFE7FC20F120DDD1004C26472020B9B5
S11302F020253873002530386C78273E0D0A0025F8
S113030030386C780025750D0A006C6F676F757452
S11303102E68746D6C002F002B4353513A202568CE
S113032068752C25686875002B5245434549564528
S11303302C256868752C256868750052454D4F5406
S1130340452049503A256868752E256868752E251C
S11303506868752E2568687500256868752C2043C3
S11303604C4F5345440025686875202568687520FE
S113037025686875202568687500257500256C75E5
S1130380640000C0C101C30302C2C60607C705C595
S1130390C404CC0C0DCD0FCFCE0E0ACACB0BC909A9
S11303A008C8D81819D91BDBDA1A1EDEDF1FDD1DB9
S11303B01CDC14D4D515D71716D6D21213D311D1E9
S11303C0D010F03031F133F3F23236F6F737F53539
S11303D034F43CFCFD3DFF3F3EFEFA3A3BFB39F969
S11303E0F83828E8E929EB2B2AEAEE2E2FEF2DED39
S11303F0EC2CE42425E527E7E62622E2E323E121A9
S113040020E0A06061A163A3A26266A6A767A565B8
S113041064A46CACAD6DAF6F6EAEAA6A6BAB69A928
S1130420A86878B8B979BB7B7ABABE7E7FBF7DBD38
S1130430BC7CB47475B577B7B67672B2B373B17168
S113044070B0509091519353529296565797559538
S113045094549C5C5D9D5F9F9E5E5A9A9B5B9959E8
S11304605898884849894B8B8A4A4E8E8F4F8D4DB8
S11304704C8C448485458747468682424383418128
S1130480804000C1814001C0804101C0804100C161
S1130490814001C0804100C1814000C1814001C050
S11304A0804101C0804100C1814000C1814001C040
S11304B0804100C1814001C0804101C0804100C130
S11304C0814001C0804100C1814000C1814001C020
S11304D0804100C1814001C0804101C0804100C110
S11304E0814000C1814001C0804101C0804100C100
S11304F0814001C0804100C1814000C1814001C0F0
S1130500804101C0804100C1814000C1814001C0DF
S1130510804100C1814001C0804101C0804100C1CF
S1130520814000C1814001C0804101C0804100C1BF
S1130530814001C0804100C1814000C1814001C0AF
S1130540804100C1814001C0804101C0804100C19F
S1130550814001C0804100C1814000C1814001C08F
S1130560804101C0804100C1814000C1814001C07F
S1130570804100C1814001C0804101C0804100C16F
S1130580814057459548E9338039D41CE0168E0CD8
S11305909405B032820C400C1800A105FA054606F9
S11305A00440063006290619060E06FE05F405E485
S11305B005DE05CE05C905B9050A0B0018FCFFFFC9
S11305C0DC0500000000000001546C6F77000A0D88
S11305D00018FCFFFFDC0500000000000001546867
S11305E06967680000190600000000FF000000FAB7
S11305F028000000424C7570677261646500001940
S11306000600000000FF000000C729000000426F40
S11306106F746C6F6164657200001906000000005D
S1130620FF000000F4280000005265626F6F740040
S1130630220F00000000000200000000000000156E
S11306405469746C65003C48544D4C3E0D0A3C485A
S11306504541443E0D0A3C5449544C453E7B7B7B0A
S11306607B7B7B7B7B7B7B7B7B7B7B7B7B7B7B7BD6
S11306707B3C2F5449544C453E0D0A3C6D657461D6
S113068020687474702D65717569763D22436F6EB0
S113069074656E742D547970652220636F6E746571
S11306A06E743D22746578742F68746D6C3B20639E
S11306B06861727365743D77696E646F77732D3109
S11306C0323531223E0D0A3C2F484541443E0D0A45
S11306D03C424F44593E0D0A0D0A3C48323E454DBA
S11306E05265616465722E207B7B7B7B7B7B7B7B8D
S11306F07B7B7B7B7B7B7B7B7B7B7B7B3C2F48324D
S11307003E0D0A49443A207B7B7B7B207B7B7B7BB1
S11307107B7B7B7B7B200953573A20332E30373C3D
S11307202F42523E0D0A3C48523E0D0A3C6120685D
S11307307265663D22696E6465782E68746D6C22FC
S11307403EC3EBE0E2EDE0FF3C2F613E207C200D58
S11307500A3C6120687265663D22656D6574657248
S11307602E68746D6C223ECDE0F1F2F0EEE9EAE819
S113077020F1F7E5F2F7E8EAE03C2F613E207C2027
S11307800D0A3C6120687265663D226E6574776F60
S1130790726B2E68746D6C223ED1E5F2E5E2FBE5E6
S11307A020EDE0F1F2F0EEE9EAE83C2F613E207C36
S11307B0200D0A3C6120687265663D2267736D2EC8
S11307C068746D6C223E47534D2F475052533C2F53
S11307D0613E207C200D0A3C6120687265663D22E2
S11307E06373642E68746D6C223E4353443C2F61E2
S11307F03E207C200D0A3C6120687265663D2273B0
S1130800797374656D2E68746D6C223ED1E8F1F2D3
S1130810E5ECE03C2F613E207C200D0A3C61206821
S11308207265663D226C6F676F75742E68746D6CAB
S1130830223EC2FBF5EEE43C2F613E0D0A3C4852D9
S11308403E0D0A0D0A3C666F726D20616374696F18
S11308506E3D272F27206D6574686F643D274745DB
S113086054273E0D0A09CDE0E7E2E0EDE8E520EE8D
S1130870E1FAE5EAF2E03A0D0A093C696E70757432
S113088020747970653D277465787427206E616DD6
S1130890653D275469746C65272073697A653D2723
S11308A03430272076616C75653D277B7B7B7B7BB1
S11308B07B7B7B7B7B7B7B7B7B7B7B7B7B7B7B27D8
S11308C03E0D0A093C696E70757420747970653D3B
S11308D0277375626D6974272076616C75653D2791
S11308E04F4B273E0D0A3C2F666F726D3E0D0A3C3E
S11308F02F42523E0D0A0D0ACDE0F0E0E1EEF2EA9D
S1130900E0203A7B7B7B7B7B7B7B7B7B7B7B20F14F
S1130910E5EA0D0A3C464F524D20616374696F6EDF
S11309203D272F27206D6574686F643D2747455424
S1130930273E0D0A093C696E7075742074797065E0
S11309403D277375626D697427206E616D653D275F
S11309505265626F6F74272076616C75653D27520E
S113096065626F6F74273E0D0A3C2F464F524D3E11
S11309700D0AC2E5F0F1E8FF20CFCE3A20332E3045
S1130980370D0A3C464F524D20616374696F6E3DCA
S1130990272F27206D6574686F643D2747455427CA
S11309A03E0D0A093C696E70757420747970653D5A
S11309B0277375626D697427206E616D653D2742EA
S11309C06F6F746C6F61646572272076616C7565F6
S11309D03D27426F6F746C6F616465722720636F8B
S11309E06C6F723D27524544273E0D0A3C2F464FFB
S11309F0524D3E0D0A3C2F42523E0D0A3C464F5288
S1130A004D20616374696F6E3D272F27206D6574D7
S1130A10686F643D27474554273E0D0A093C696EBB
S1130A2070757420747970653D277375626D69748F
S1130A3027206E616D653D27424C75706772616455
S1130A4065272076616C75653D27424C7570677229
S1130A50616465273E0D0A3C2F464F524D3E0D0AF8
S1130A603C2F42523E0D0A3C48323ED2E5ECEFE5C3
S1130A70F0E0F2F3F0E03C2F48323E0D0AD2E5EC10
S1130A80EFE5F0E0F2F3F0E03A7B7B7B7B7B7B7B72
S1130A902623313736433C2F42523E0D0A3C666FC3
S1130AA0726D20616374696F6E3D272F27206D6519
S1130AB074686F643D27474554273E0D0A09D2E206
S1130AC0FBF1EEEAE0FF3A0D0A093C696E707574B9
S1130AD020747970653D277465787427206E616D84
S1130AE0653D275468696768272073697A653D27DF
S1130AF035272076616C75653D277B7B7B7B7B7B13
S1130B007B273E2623313736430D0A093C696E7034
S1130B10757420747970653D277375626D697427E7
S1130B202076616C75653D274F4B273E0D0A3C2F9F
S1130B30666F726D3E0D0A3C2F42523E0D0A3C66B2
S1130B406F726D20616374696F6E3D272F27206D6E
S1130B506574686F643D27474554273E0D0A09D2E2
S1130B60EDE8E7EAE0FF3A0D0A093C696E70757436
S1130B7020747970653D277465787427206E616DE3
S1130B80653D27546C6F77272073697A653D273557
S1130B90272076616C75653D277B7B7B7B7B7B7B2C
S1130BA0273E2623313736430D0A093C696E70759A
S1130BB07420747970653D277375626D697427209C
S1130BC076616C75653D274F4B273E0D0A3C2F66B9
S1130BD06F726D3E0D0A3C2F42523E0D0AC1F3F472
S1130BE0E5F02047534D2D3E454D3A207B7B7B2F2E
S1130BF0286D61782032353029E1E0E9F23C2F425A
S1130C00523E0D0AC1F3F4E5F020454D2D3E475305
S1130C104D3A207B7B7B2F286D617820323530293B
S1130C20E1E0E9F23C2F42523E0D0A0D0A3C2F420C
S1130C304F44593E0D0A3C2F48544D4C3E0D0A007A
S1130C40220F00000015220F0000001507140B00EE
S1130C500000140C06000000220F000000151050C4
S1130C600900000209EC050000010A0D0000000162
S1130C700A0B00000001006C09000000005B0A0080
S1130C80000073797374656D2E68746D6C00D716EB
S1130C9077162C009B0CC708B00D02A90D990D9472
S1130CA00D840D7F0D6F0D6A0D5A0D550D450D40C8
S1130CB00D300D2B0D1B0D160D060D010DF10CEC59
S1130CC00CDC0CD70CC70C22D6000000000000007E
S1130CD00000000000000D435344390022C9000005
S1130CE000000000000000000000000D43534438E1
S1130CF00022BC0000000000000000000000000012
S1130D000D435344370022AF0000000000000000F0
S1130D1000000000000D435344360022A2000000EE
S1130D20000000000000000000000D4353443500A3
S1130D302295000000000000000000000000000DEB
S1130D4043534434002288000000000000000000E7
S1130D50000000000D4353443300227B00000000D8
S1130D600000000000000000000D43534432002244
S1130D706E000000000000000000000000000D43B1
S1130D805344310022610000000000000000000014
S1130D900000000D4353443000015F0000000000D8
S1130DA0010000000000000000434C49504F6E0059
S1130DB03C48544D4C3E0D0A3C484541443E0D0AC6
S1130DC03C5449544C453E7B7B7B7B7B7B7B7B7BD0
S1130DD07B7B7B7B7B7B7B7B7B7B7B3C2F5449546A
S1130DE04C453E0D0A3C6D65746120687474702D29
S1130DF065717569763D22436F6E74656E742D540A
S1130E007970652220636F6E74656E743D2274651B
S1130E1078742F68746D6C3B2063686172736574B9
S1130E203D77696E646F77732D31323531223E0D13
S1130E300A3C2F484541443E0D0A3C424F44593E2A
S1130E400D0A0D0A3C48323E454D52656164657297
S1130E502E207B7B7B7B7B7B7B7B7B7B7B7B7B7B86
S1130E607B7B7B7B7B7B3C2F48323E0D0A49443A9B
S1130E70207B7B7B7B207B7B7B7B7B7B7B7B7B20CF
S1130E800953573A20332E30373C2F42523E0D0A35
S1130E903C48523E0D0A3C6120687265663D2269F9
S1130EA06E6465782E68746D6C223EC3EBE0E2EDEF
S1130EB0E0FF3C2F613E207C200D0A3C61206872DB
S1130EC065663D22656D657465722E68746D6C226D
S1130ED03ECDE0F1F2F0EEE9EAE820F1F7E5F2F7D1
S1130EE0E8EAE03C2F613E207C200D0A3C6120684A
S1130EF07265663D226E6574776F726B2E68746DD1
S1130F006C223ED1E5F2E5E2FBE520EDE0F1F2F002
S1130F10EEE9EAE83C2F613E207C200D0A3C61208A
S1130F20687265663D2267736D2E68746D6C223E2F
S1130F3047534D2F475052533C2F613E207C200D88
S1130F400A3C6120687265663D226373642E68748E
S1130F506D6C223E4353443C2F613E207C200D0A9D
S1130F603C6120687265663D2273797374656D2EE9
S1130F7068746D6C223ED1E8F1F2E5ECE03C2F613F
S1130F803E207C200D0A3C6120687265663D226C1F
S1130F906F676F75742E68746D6C223EC2FBF5EE3C
S1130FA0E43C2F613E0D0A3C48523E0D0A3C666FFC
S1130FB0726D20616374696F6E3D272F27206D6504
S1130FC074686F643D27474554273E0D0A09CFF0E6
S1130FD0EEE2E5F0EAE020EDEEECE5F0E03A0D0AB1
S1130FE0093C53454C454354204E414D453D224315
S1130FF04C49504F6E223E200D0A093C4F50544933
S11310004F4E2056414C55453D30207B7B7B7B7BAE
S11310107B7B7B3ECDE5F2200D0A093C4F505449C1
S11310204F4E2056414C55453D31207B7B7B7B7B8D
S11310307B7B7B3EC4E00D0A093C2F53454C454362
S1131040543E200D0A093C696E70757420747970E1
S1131050653D277375626D6974272076616C7565CB
S11310603D274F4B273E0D0A3C2F666F726D3E0D98
S11310700A3C68333ED0E0E7F0E5F8B8EDEDFBE577
S113108020EDEEECE5F0E03C2F68333E3C2F42527D
S11310903E0D0A3C666F726D20616374696F6E3D2C
S11310A0272F27206D6574686F643D2747455427B3
S11310B03E0D0A09B9313A200D0A093C696E707572
S11310C07420747970653D277465787427206E6187
S11310D06D653D2743534430272073697A653D2766
S11310E03132272076616C75653D277B7B7B7B7B6A
S11310F07B7B7B7B7B7B7B273E0D0A093C696E7087
S1131100757420747970653D277375626D697427F1
S11311102076616C75653D274F4B273E0D0A3C2FA9
S1131120666F726D3E0D0A3C666F726D206163746A
S1131130696F6E3D272F27206D6574686F643D27A6
S1131140474554273E0D0A09B9323A200D0A093C95
S1131150696E70757420747970653D277465787450
S113116027206E616D653D27435344312720736901
S11311707A653D273132272076616C75653D277B82
S11311807B7B7B7B7B7B7B7B7B7B7B273E0D0A098D
S11311903C696E70757420747970653D277375624F
S11311A06D6974272076616C75653D274F4B273E2A
S11311B00D0A3C2F666F726D3E0D0A3C666F726DB0
S11311C020616374696F6E3D272F27206D657468F5
S11311D06F643D27474554273E0D0A09B9333A2029
S11311E00D0A093C696E70757420747970653D2729
S11311F07465787427206E616D653D2743534432CE
S1131200272073697A653D273132272076616C7512
S1131210653D277B7B7B7B7B7B7B7B7B7B7B7B2716
S11312203E0D0A093C696E70757420747970653DD1
S1131230277375626D6974272076616C75653D2727
S11312404F4B273E0D0A3C2F666F726D3E0D0A3CD4
S1131250666F726D20616374696F6E3D272F27205E
S11312606D6574686F643D27474554273E0D0A0930
S1131270B9343A200D0A093C696E7075742074798A
S113128070653D277465787427206E616D653D2710
S113129043534433272073697A653D27313227202D
S11312A076616C75653D277B7B7B7B7B7B7B7B7B66
S11312B07B7B7B273E0D0A093C696E707574207434
S11312C07970653D277375626D6974272076616C4A
S11312D075653D274F4B273E0D0A3C2F666F726D97
S11312E03E0D0A3C666F726D20616374696F6E3DDA
S11312F0272F27206D6574686F643D274745542761
S11313003E0D0A09B9353A200D0A093C696E70751B
S11313107420747970653D277465787427206E6134
S11313206D653D2743534434272073697A653D270F
S11313303132272076616C75653D277B7B7B7B7B17
S11313407B7B7B7B7B7B7B273E0D0A093C696E7034
S1131350757420747970653D277375626D6974279F
S11313602076616C75653D274F4B273E0D0A3C2F57
S1131370666F726D3E0D0A3C666F726D2061637418
S1131380696F6E3D272F27206D6574686F643D2754
S1131390474554273E0D0A09B9363A200D0A093C3F
S11313A0696E70757420747970653D2774657874FE
S11313B027206E616D653D274353443527207369AB
S11313C07A653D273132272076616C75653D277B30
S11313D07B7B7B7B7B7B7B7B7B7B7B273E0D0A093B
S11313E03C696E70757420747970653D27737562FD
S11313F06D6974272076616C75653D274F4B273ED8
S11314000D0A3C2F666F726D3E0D0A3C666F726D5D
S113141020616374696F6E3D272F27206D657468A2
S11314206F643D27474554273E0D0A09B9373A20D2
S11314300D0A093C696E70757420747970653D27D6
S11314407465787427206E616D653D274353443677
S1131450272073697A653D273132272076616C75C0
S1131460653D277B7B7B7B7B7B7B7B7B7B7B7B27C4
S11314703E0D0A093C696E70757420747970653D7F
S1131480277375626D6974272076616C75653D27D5
S11314904F4B273E0D0A3C2F666F726D3E0D0A3C82
S11314A0666F726D20616374696F6E3D272F27200C
S11314B06D6574686F643D27474554273E0D0A09DE
S11314C0B9383A200D0A093C696E70757420747934
S11314D070653D277465787427206E616D653D27BE
S11314E043534437272073697A653D2731322720D7
S11314F076616C75653D277B7B7B7B7B7B7B7B7B14
S11315007B7B7B273E0D0A093C696E7075742074E1
S11315107970653D277375626D6974272076616CF7
S113152075653D274F4B273E0D0A3C2F666F726D44
S11315303E0D0A3C666F726D20616374696F6E3D87
S1131540272F27206D6574686F643D27474554270E
S11315503E0D0A09B9393A200D0A093C696E7075C5
S11315607420747970653D277465787427206E61E2
S11315706D653D2743534438272073697A653D27B9
S11315803132272076616C75653D277B7B7B7B7BC5
S11315907B7B7B7B7B7B7B273E0D0A093C696E70E2
S11315A0757420747970653D277375626D6974274D
S11315B02076616C75653D274F4B273E0D0A3C2F05
S11315C0666F726D3E0D0A3C666F726D20616374C6
S11315D0696F6E3D272F27206D6574686F643D2702
S11315E0474554273E0D0A09B931303A200D0A09FE
S11315F03C696E70757420747970653D27746578E4
S11316007427206E616D653D274353443927207349
S1131610697A653D273132272076616C75653D27EF
S11316207B7B7B7B7B7B7B7B7B7B7B7B273E0D0A76
S1131630093C696E70757420747970653D27737503
S1131640626D6974272076616C75653D274F4B2761
S11316503E0D0A3C2F666F726D3E0D0A3C2F4252BE
S11316603E0D0A203C2F424F44593E0D0A3C2F4860
S1131670544D4C3E0D0A00220F00000015220F00AD
S113168000001507140B000000140C060000001ED7
S11316905F003545001E5F003145002261000000F7
S11316A00D226E0000000D227B0000000D22880038
S11316B000000D22950000000D22A20000000D2262
S11316C0AF0000000D22BC0000000D22C900000084
S11316D00D22D60000000D6373642E68746D6C00D7
S11316E0CB1C9B1C1C00ED16CF04CC1704C317B3F2
S11316F017A0179017831773176D175D17511741AC
S113170017351725171917091722FD0000000000C7
S113171000000000000000000D534D535F4E756D36
S1131720626572330022F000000000000000000037
S1131730000000000D534D535F4E756D62657232AB
S11317400022E30000000000000000000000000090
S11317500D534D535F4E756D62657231000160002B
S113176000000000010000000000000000534D5381
S11317704F6E0022520100000000020000001E2AE9
S1131780000014475052535F61706E5F70737700AE
S113179022660100000000020000001E2A0000145E
S11317A0475052535F61706E5F757365725F6E610F
S11317B06D6500227A0100000000020000001E2A6C
S11317C000001E475052535F61706E003C48544DF8
S11317D04C3E0D0A3C484541443E0D0A3C54495494
S11317E04C453E7B7B7B7B7B7B7B7B7B7B7B7B7BE7
S11317F07B7B7B7B7B7B7B3C2F5449544C453E0D50
S11318000A3C6D65746120687474702D6571756926
S1131810763D22436F6E74656E742D547970652223
S113182020636F6E74656E743D22746578742F68DE
S1131830746D6C3B20636861727365743D77696E87
S1131840646F77732D31323531223E0D0A3C2F48B7
S11318504541443E0D0A3C424F44593E0D0A0D0A8F
S11318603C48323E454D5265616465722E207B7B57
S11318707B7B7B7B7B7B7B7B7B7B7B7B7B7B7B7BB4
S11318807B7B3C2F48323E0D0A49443A207B7B7BCC
S11318907B207B7B7B7B7B7B7B7B7B200953573A49
S11318A020332E30373C2F42523E0D0A3C48523EE4
S11318B00D0A3C6120687265663D22696E64657834
S11318C02E68746D6C223EC3EBE0E2EDE0FF3C2F2A
S11318D0613E207C200D0A3C6120687265663D22D1
S11318E0656D657465722E68746D6C223ECDE0F191
S11318F0F2F0EEE9EAE820F1F7E5F2F7E8EAE03C95
S11319002F613E207C200D0A3C6120687265663D93
S1131910226E6574776F726B2E68746D6C223ED183
S1131920E5F2E5E2FBE520EDE0F1F2F0EEE9EAE8CC
S11319303C2F613E207C200D0A3C61206872656664
S11319403D2267736D2E68746D6C223E47534D2F94
S1131950475052533C2F613E207C200D0A3C6120AD
S1131960687265663D226373642E68746D6C223EF2
S11319704353443C2F613E207C200D0A3C61206887
S11319807265663D2273797374656D2E68746D6C2F
S1131990223ED1E8F1F2E5ECE03C2F613E207C20D0
S11319A00D0A3C6120687265663D226C6F676F7535
S11319B0742E68746D6C223EC2FBF5EEE43C2F611C
S11319C03E0D0A3C48523E0D0AD3F0EEE2E5EDFC32
S11319D020F1E8E3EDE0EBE0207B7B2028302D33A1
S11319E031293C2F42523E0D0A3C68333E47505247
S11319F0533C2F68333E3C2F42523E0D0A3C666FE7
S1131A00726D20616374696F6E3D272F27206D65A9
S1131A1074686F643D27474554273E0D0A094150B9
S1131A204E206E616D653A200D0A093C696E707531
S1131A307420747970653D277465787427206E610D
S1131A406D653D27475052535F61706E272073695F
S1131A507A653D273239272076616C75653D277B91
S1131A607B7B7B7B7B7B7B7B7B7B7B7B7B7B7B7BC2
S1131A707B7B7B7B7B7B7B7B7B7B7B7B273E0D0A22
S1131A80093C696E70757420747970653D277375AF
S1131A90626D6974272076616C75653D274F4B270D
S1131AA03E0D0A3C2F666F726D3E0D0A3C2F42526A
S1131AB03E0D0A3C666F726D20616374696F6E3D02
S1131AC0272F27206D6574686F643D274745542789
S1131AD03E0D0A0955736572206E616D653A200DDD
S1131AE00A093C696E70757420747970653D2774B9
S1131AF065787427206E616D653D27475052535FAA
S1131B0061706E5F757365725F6E616D65272073BA
S1131B10697A653D273139272076616C75653D27E3
S1131B207B7B7B7B7B7B7B7B7B7B7B7B7B7B7B7B01
S1131B307B7B7B273E0D0A093C696E7075742074AB
S1131B407970653D277375626D6974272076616CC1
S1131B5075653D274F4B273E0D0A3C2F666F726D0E
S1131B603E0D0A3C2F42523E0D0A3C666F726D20B8
S1131B70616374696F6E3D272F27206D6574686FEC
S1131B80643D27474554273E0D0A09506173737716
S1131B906F72643A200D0A093C696E707574207482
S1131BA07970653D277465787427206E616D653D95
S1131BB027475052535F61706E5F707377272073AD
S1131BC0697A653D273139272076616C75653D2733
S1131BD07B7B7B7B7B7B7B7B7B7B7B7B7B7B7B7B51
S1131BE07B7B7B273E0D0A093C696E7075742074FB
S1131BF07970653D277375626D6974272076616C11
S1131C0075653D274F4B273E0D0A3C2F666F726D5D
S1131C100D0A3C2F42523E0D0A3C464F524D206164
S1131C206374696F6E3D272F27206D6574686F6438
S1131C303D27474554273E0D0A093C696E7075746B
S1131C4020747970653D277375626D697427206E01
S1131C50616D653D27526573657447534D27207642
S1131C60616C75653D27526573657447534D273E16
S1131C700D0A3C2F464F524D3E0D0A3C2F42523E18
S1131C803C2F42523E0D0A203C2F424F44593E0DF8
S1131C900A3C2F48544D4C3E0D0A00220F00000010
S1131CA015220F0000001507140B000000140C0689
S1131CB0000000001F06000000227A0100001E221E
S1131CC0660100001422520100001467736D2E682F
S1131CD0746D6C00A332A131A000E11C4A1057219D
S1131CE00448213821242114210221F220911D814C
S1131CF01DE920D920D020C020B720A7209E208E07
S1131D0020852075206C205C20532043203A202A13
S1131D1020212011200820F81FEF1FDF1FD61FC627
S1131D201FBD1FAD1FA41F941F8B1F7B1F721F623B
S1131D301F5C1F4C1F461F361F301F201F1A1F0A0F
S1131D401F041FF41EEE1EDE1ED81EC81EC21EB2C5
S1131D501EAC1E9C1E961E861E801E701E6A1E5A77
S1131D601E541E441E3E1E2E1E281E181E121E0227
S1131D701EF81DE81DDE1DCE1DC41DB41DAA1D9A2E
S1131D801D00190600000000FF000000F6280000F6
S1131D9000526573657447534D000830010000001C
S1131DA000FFFF00000000000000554450335F5066
S1131DB06F727400082E0100000000FFFF00000095
S1131DC000000000554450325F506F727400082CBC
S1131DD00100000000FFFF00000000000000554467
S1131DE050315F506F727400082A0100000000FF38
S1131DF0FF00000000000000554450305F506F7237
S1131E00740001510100000000FF00000000000008
S1131E10000055445033340001500100000000FF1D
S1131E200000000000000000554450333300014F0F
S1131E300100000000FF0000000000000000554405
S1131E4050333200014E0100000000FF000000008A
S1131E5000000000554450333100014D01000000E2
S1131E6000FF000000000000000055445032340020
S1131E70014C0100000000FF000000000000000011
S1131E80554450323300014B0100000000FF0000B4
S1131E90000000000000554450323200014A0100A5
S1131EA0000000FF00000000000000005544503214
S1131EB0310001490100000000FF000000000000A3
S1131EC0000055445031340001480100000000FF77
S1131ED00000000000000000554450313300014769
S1131EE00100000000FF0000000000000000554455
S1131EF05031320001460100000000FF00000000E4
S1131F00000000005544503131000145010000003B
S1131F1000FF000000000000000055445030340071
S1131F2001440100000000FF000000000000000068
S1131F3055445030330001430100000000FF00000D
S1131F4000000000000055445030320001420100FE
S1131F50000000FF00000000000000005544503065
S1131F603100011F0100000000FF0000000000001C
S1131F700000436C69335F49503400011E010000C6
S1131F800000FF0000000000000000436C69335FA4
S1131F9049503300011D0100000000FF0000000053
S1131FA000000000436C69335F49503200011C019A
S1131FB000000000FF0000000000000000436C6906
S1131FC0335F49503100011B0100000000FF000095
S1131FD0000000000000436C69325F495034000186
S1131FE01A0100000000FF00000000000000004390
S1131FF06C69325F4950330001190100000000FF91
S11320000000000000000000436C69325F49503258
S11320100001180100000000FF00000000000000A3
S113202000436C69325F4950310001170100000020
S113203000FF0000000000000000436C69315F49AC
S113204050340001160100000000FF0000000000F1
S1132050000000436C69315F4950330001150100F1
S1132060000000FF0000000000000000436C693124
S11320705F4950320001140100000000FF0000001D
S11320800000000000436C69315F495031000113C6
S11320900100000000FF0000000000000000436C8D
S11320A069305F4950340001120100000000FF0054
S11320B000000000000000436C69305F49503300A9
S11320C001110100000000FF0000000000000000FA
S11320D0436C69305F495032000110010000000078
S11320E0FF0000000000000000436C69305F4950AD
S11320F0310011560000000000FFC99A3B000000A7
S113210000025765624D617853657373696F6E544D
S1132110696D6500080E0100000000FFFF00001E4D
S11321202A0000025443505F434F4E4E4543545FD0
S113213074696D656F75740008200100000000FF6C
S1132140FF00001E2A0000005443505F4C69737462
S1132150656E506F7274003C48544D4C3E0D0A3C01
S1132160484541443E0D0A3C5449544C453E7B7B12
S11321707B7B7B7B7B7B7B7B7B7B7B7B7B7B7B7BAB
S11321807B7B3C2F5449544C453E0D0A3C6D657491
S11321906120687474702D65717569763D22436F92
S11321A06E74656E742D547970652220636F6E743D
S11321B0656E743D22746578742F68746D6C3B2071
S11321C0636861727365743D77696E646F77732DAC
S11321D031323531223E0D0A3C2F484541443E0DF3
S11321E00A3C424F44593E0D0A0D0A3C48323E45D2
S11321F04D5265616465722E207B7B7B7B7B7B7B90
S11322007B7B7B7B7B7B7B7B7B7B7B7B7B3C2F48D8
S1132210323E0D0A49443A207B7B7B7B207B7B7BCF
S11322207B7B7B7B7B7B200953573A20332E3037D3
S11322303C2F42523E0D0A3C48523E0D0A3C61205E
S1132240687265663D22696E6465782E68746D6C8B
S1132250223EC3EBE0E2EDE0FF3C2F613E207C2018
S11322600D0A3C6120687265663D22656D65746582
S1132270722E68746D6C223ECDE0F1F2F0EEE9EA64
S1132280E820F1F7E5F2F7E8EAE03C2F613E207C34
S1132290200D0A3C6120687265663D226E65747784
S11322A06F726B2E68746D6C223ED1E5F2E5E2FB31
S11322B0E520EDE0F1F2F0EEE9EAE83C2F613E20A2
S11322C07C200D0A3C6120687265663D2267736D4F
S11322D02E68746D6C223E47534D2F475052533C29
S11322E02F613E207C200D0A3C6120687265663DAA
S11322F0226373642E68746D6C223E4353443C2FF6
S1132300613E207C200D0A3C6120687265663D2296
S113231073797374656D2E68746D6C223ED1E8F127
S1132320F2E5ECE03C2F613E207C200D0A3C61206C
S1132330687265663D226C6F676F75742E68746D84
S11323406C223EC2FBF5EEE43C2F613E0D0A3C4894
S1132350523E0D0A0D0A3C68333E5443502F4950F7
S1132360205365727665723C2F68333E0D0A3C66D5
S11323706F726D20616374696F6E3D272F27206D26
S11323806574686F643D27474554273E0D0A094C20
S1132390697374656E20706F72743A0D0A093C6932
S11323A06E70757420747970653D27746578742730
S11323B0206E616D653D275443505F4C69737465AD
S11323C06E506F7274272073697A653D2735272014
S11323D076616C75653D277B7B7B7B7B273E0D0A95
S11323E0093C696E70757420747970653D27737546
S11323F0626D6974272076616C75653D274F4B27A4
S11324003E0D0A3C2F666F726D3E0D0A3C2F425200
S11324103E0D0A3C666F726D20616374696F6E3D98
S1132420272F27206D6574686F643D27474554271F
S11324303E0D0A095443502F495020636F6E6E6558
S11324406374696F6E2074696D656F75743A0D0AF3
S1132450093C696E70757420747970653D277465E4
S1132460787427206E616D653D275443505F434F58
S11324704E4E4543545F74696D656F7574272073C0
S1132480697A653D2737272076616C75653D277B22
S11324907B7B7B7B7B273E7365630D0A093C696EFE
S11324A070757420747970653D277375626D6974F5
S11324B0272076616C75653D274F4B273E0D0A3CFE
S11324C02F666F726D3E0D0A3C2F42523E0D0A3C40
S11324D0666F726D20616374696F6E3D272F2720CC
S11324E06D6574686F643D27474554273E0D0A099E
S11324F053657373696F6E2074696D656F75743A93
S11325000D0A093C696E70757420747970653D27F5
S11325107465787427206E616D653D275765624D3B
S1132520617853657373696F6E54696D65272073A1
S1132530697A653D2737272076616C75653D277B71
S11325407B7B7B7B7B7B7B7B7B273E7365630D0A7D
S1132550093C696E70757420747970653D277375D4
S1132560626D6974272076616C75653D274F4B2732
S11325703E0D0A3C2F666F726D3E0D0A3C2F42528F
S11325803E0D0A0D0A3C68333E4950204669726587
S113259077616C6C3C2F68333E0D0A3C666F726D3C
S11325A020616374696F6E3D272F27206D65746801
S11325B06F643D27474554273E0D0A094950313A77
S11325C00D0A093C696E70757420747970653D2735
S11325D07465787427206E616D653D27436C69309E
S11325E05F495031272073697A653D273327207668
S11325F0616C75653D277B7B7B273E2E0D0A093C6C
S1132600696E70757420747970653D27746578748B
S113261027206E616D653D27436C69305F495032F8
S1132620272073697A653D2733272076616C7565A9
S11326303D277B7B7B273E2E0D0A093C696E707516
S11326407420747970653D277465787427206E61F1
S11326506D653D27436C69305F49503327207369AA
S11326607A653D2733272076616C75653D277B7B32
S11326707B273E2E0D0A093C696E707574207479AF
S113268070653D277465787427206E616D653D27FC
S1132690436C69305F495034272073697A653D275C
S11326A033272076616C75653D277B7B7B273E0D48
S11326B00A093C696E70757420747970653D2773DE
S11326C075626D6974272076616C75653D274F4B83
S11326D0273E0D0A3C2F666F726D3E0D0A3C2F4259
S11326E0523E0D0A3C666F726D20616374696F6EB1
S11326F03D272F27206D6574686F643D2747455437
S1132700273E0D0A094950323A0D0A093C696E7098
S1132710757420747970653D277465787427206E0C
S1132720616D653D27436C69315F495031272073E2
S1132730697A653D2733272076616C75653D277B73
S11327407B7B273E2E0D0A093C696E7075742074DC
S11327507970653D277465787427206E616D653DD9
S113276027436C69315F495032272073697A653D8C
S11327702733272076616C75653D277B7B7B273E5D
S11327802E0D0A093C696E70757420747970653D6C
S1132790277465787427206E616D653D27436C69E5
S11327A0315F495033272073697A653D27332720E9
S11327B076616C75653D277B7B7B273E2E0D0A0970
S11327C03C696E70757420747970653D2774657802
S11327D07427206E616D653D27436C69315F4950F4
S11327E034272073697A653D2733272076616C7519
S11327F0653D277B7B7B273E0D0A093C696E70751E
S11328007420747970653D277375626D697427202F
S113281076616C75653D274F4B273E0D0A3C2F664C
S11328206F726D3E0D0A3C2F42523E0D0A3C666F9C
S1132830726D20616374696F6E3D272F27206D656B
S113284074686F643D27474554273E0D0A09495073
S1132850333A0D0A093C696E707574207479706599
S11328603D277465787427206E616D653D27436C40
S113287069325F495031272073697A653D273327D0
S11328802076616C75653D277B7B7B273E2E0D0A88
S1132890093C696E70757420747970653D277465A0
S11328A0787427206E616D653D27436C69325F49FA
S11328B05032272073697A653D2733272076616C6F
S11328C075653D277B7B7B273E2E0D0A093C696E8F
S11328D070757420747970653D2774657874272049
S11328E06E616D653D27436C69325F495033272023
S11328F073697A653D2733272076616C75653D27BA
S11329007B7B7B273E2E0D0A093C696E7075742013
S1132910747970653D277465787427206E616D65E0
S11329203D27436C69325F495034272073697A65C7
S11329303D2733272076616C75653D277B7B7B279C
S11329403E0D0A093C696E70757420747970653D9A
S1132950277375626D6974272076616C75653D27F0
S11329604F4B273E0D0A3C2F666F726D3E0D0A3C9D
S11329702F42523E0D0A3C666F726D20616374698A
S11329806F6E3D272F27206D6574686F643D274760
S11329904554273E0D0A094950343A0D0A093C6949
S11329A06E70757420747970653D2774657874272A
S11329B0206E616D653D27436C69335F4950312753
S11329C02073697A653D2733272076616C75653DF0
S11329D0277B7B7B273E2E0D0A093C696E7075743C
S11329E020747970653D277465787427206E616D55
S11329F0653D27436C69335F495032272073697AF8
S1132A00653D2733272076616C75653D277B7B7B8D
S1132A10273E2E0D0A093C696E7075742074797016
S1132A20653D277465787427206E616D653D274385
S1132A306C69335F495033272073697A653D2733C6
S1132A40272076616C75653D277B7B7B273E2E0DA9
S1132A500A093C696E70757420747970653D277439
S1132A6065787427206E616D653D27436C69335F1B
S1132A70495034272073697A653D273327207661CE
S1132A806C75653D277B7B7B273E0D0A093C696E8F
S1132A9070757420747970653D277375626D6974FF
S1132AA0272076616C75653D274F4B273E0D0A3C08
S1132AB02F666F726D3E0D0A3C2F42523E0D0A3C4A
S1132AC0464F524D20616374696F6E3D272F272056
S1132AD06D6574686F643D27474554273E0D0A09A8
S1132AE03C696E70757420747970653D27737562E6
S1132AF06D697427206E616D653D27526573657439
S1132B0047534D272076616C75653D275265736583
S1132B107447534D273E0D0A3C2F464F524D3E0DF0
S1132B200A3C2F42523E0D0A0D0A0D0A3C68333E00
S1132B30CEF2F1FBEBEAE020F2E5EAF3F9E8F52066
S1132B40E4E0EDEDFBF53A3C2F68333E0D0A3C2FF3
S1132B5042523E0D0A0D0A3C666F726D2061637429
S1132B60696F6E3D272F27206D6574686F643D275C
S1132B70474554273E0D0A554450205365727665E7
S1132B8072312049503A0D0A093C696E70757420FF
S1132B90747970653D277465787427206E616D655E
S1132BA03D275544503031272073697A653D2733DA
S1132BB0272076616C75653D277B7B7B273E2E0D38
S1132BC00A093C696E70757420747970653D2774C8
S1132BD065787427206E616D653D27554450303209
S1132BE0272073697A653D2733272076616C7565E4
S1132BF03D277B7B7B273E2E0D0A093C696E707551
S1132C007420747970653D277465787427206E612B
S1132C106D653D275544503033272073697A653DEF
S1132C202733272076616C75653D277B7B7B273EA8
S1132C302E0D0A093C696E70757420747970653DB7
S1132C40277465787427206E616D653D275544505F
S1132C503034272073697A653D2733272076616CE9
S1132C6075653D277B7B7B273E0D0A506F72743A56
S1132C700D0A093C696E70757420747970653D277E
S1132C807465787427206E616D653D275544503016
S1132C905F506F7274272073697A653D273527204A
S1132CA076616C75653D277B7B7B7B7B273E0D0ABC
S1132CB0093C696E70757420747970653D2773756D
S1132CC0626D6974272076616C75653D274F4B27CB
S1132CD03E0D0A3C2F666F726D3E0D0A3C2F425228
S1132CE03E0D0A3C666F726D20616374696F6E3DC0
S1132CF0272F27206D6574686F643D274745542747
S1132D003E0D0A554450205365727665723220494F
S1132D10503A0D0A093C696E7075742074797065B7
S1132D203D277465787427206E616D653D27554491
S1132D30503131272073697A653D27332720766126
S1132D406C75653D277B7B7B273E2E0D0A093C690C
S1132D506E70757420747970653D27746578742776
S1132D60206E616D653D27554450313227207369CB
S1132D707A653D2733272076616C75653D277B7B1B
S1132D807B273E2E0D0A093C696E70757420747998
S1132D9070653D277465787427206E616D653D27E5
S1132DA05544503133272073697A653D27332720F2
S1132DB076616C75653D277B7B7B273E2E0D0A096A
S1132DC03C696E70757420747970653D27746578FC
S1132DD07427206E616D653D27554450313427209A
S1132DE073697A653D2733272076616C75653D27C5
S1132DF07B7B7B273E0D0A506F72743A0D0A093CA7
S1132E00696E70757420747970653D277465787483
S1132E1027206E616D653D27554450315F506F72B8
S1132E2074272073697A653D2735272076616C7590
S1132E30653D277B7B7B7B7B273E0D0A093C696EC6
S1132E4070757420747970653D277375626D69744B
S1132E50272076616C75653D274F4B273E0D0A3C54
S1132E602F666F726D3E0D0A3C2F42523E0D0A0DC5
S1132E700A3C666F726D20616374696F6E3D272F23
S1132E8027206D6574686F643D27474554273E0DC0
S1132E900A55445020536572766572332049503A7E
S1132EA00D0A093C696E70757420747970653D274C
S1132EB07465787427206E616D653D2755445032E2
S1132EC031272073697A653D2733272076616C7535
S1132ED0653D277B7B7B273E2E0D0A093C696E707E
S1132EE0757420747970653D277465787427206E35
S1132EF0616D653D275544503232272073697A65E8
S1132F003D2733272076616C75653D277B7B7B27C6
S1132F103E2E0D0A093C696E7075742074797065D3
S1132F203D277465787427206E616D653D2755448F
S1132F30503233272073697A653D27332720766121
S1132F406C75653D277B7B7B273E2E0D0A093C690A
S1132F506E70757420747970653D27746578742774
S1132F60206E616D653D27554450323427207369C6
S1132F707A653D2733272076616C75653D277B7B19
S1132F807B273E0D0A506F72743A0D0A093C696E34
S1132F9070757420747970653D2774657874272082
S1132FA06E616D653D27554450325F506F727427D2
S1132FB02073697A653D2735272076616C75653DF8
S1132FC0277B7B7B7B7B273E0D0A093C696E7075F2
S1132FD07420747970653D277375626D6974272058
S1132FE076616C75653D274F4B273E0D0A3C2F6675
S1132FF06F726D3E0D0A3C2F42523E0D0A0D0A3C83
S1133000666F726D20616374696F6E3D272F272090
S11330106D6574686F643D27474554273E0D0A5516
S1133020445020536572766572342049503A0D0A33
S1133030093C696E70757420747970653D277465F8
S1133040787427206E616D653D27554450333127D0
S11330502073697A653D2733272076616C75653D59
S1133060277B7B7B273E2E0D0A093C696E707574A5
S113307020747970653D277465787427206E616DBE
S1133080653D275544503332272073697A653D27BF
S113309033272076616C75653D277B7B7B273E2E2D
S11330A00D0A093C696E70757420747970653D274A
S11330B07465787427206E616D653D2755445033DF
S11330C033272073697A653D2733272076616C7531
S11330D0653D277B7B7B273E2E0D0A093C696E707C
S11330E0757420747970653D277465787427206E33
S11330F0616D653D275544503334272073697A65E3
S11331003D2733272076616C75653D277B7B7B27C4
S11331103E0D0A506F72743A0D0A093C696E70755F
S11331207420747970653D277465787427206E6106
S11331306D653D27554450335F506F72742720737B
S1133140697A653D2735272076616C75653D277B57
S11331507B7B7B7B273E0D0A093C696E707574206E
S1133160747970653D277375626D69742720766183
S11331706C75653D274F4B273E0D0A3C2F666F72D9
S11331806D3E0D0A3C2F42523E0D0A0D0A203C2F83
S1133190424F44593E0D0A3C2F48544D4C3E0D0AB3
S11331A000220F00000015220F0000001507140B69
S11331B0000000140C0600000008200100000008B4
S11331C00E0100000211560000000201100100006F
S11331D000011101000000011201000000011301AF
S11331E000000001140100000001150100000001AD
S11331F01601000000011701000000011801000081
S113320000011901000000011A01000000011B0166
S1133210000000011C01000000011D01000000016C
S11332201E01000000011F01000000014201000016
S113323000014301000000014401000000014501B8
S1133240000000082A0100000001460100000001FE
S1133250470100000001480100000001490100008D
S113326000082C01000000014A01000000014B018C
S1133270000000014C01000000014D0100000008A5
S11332802E01000000014E01000000014F0100006A
S1133290000150010000000151010000000830014C
S11332A00000006E6574776F726B2E68746D6C002D
S11332B0D7330000000000001A01BD32003C48541E
S11332C04D4C3E0D0A3C484541443E0D0A3C544990
S11332D0544C453ECEF8E8E1EAE020E4EEF1F2F3A6
S11332E0EFE03C2F5449544C453E0D0A3C6D657447
S11332F06120687474702D65717569763D22436F21
S11333006E74656E742D547970652220636F6E74CB
S1133310656E743D22746578742F68746D6C3B20FF
S1133320636861727365743D77696E646F77732D3A
S113333031323531223E0D0A3C2F484541443E0D81
S11333400A3C63656E7465723E0D0A3C686561648F
S11333503E0D0A3C68333EC2E0F820F3F0EEE2E5AD
S1133360EDFC20E4EEF1F2F3EFE020EDE520EFEEEA
S1133370E7E2EEEBFFE5F220EFF0EEF1ECE0F2F045
S1133380E8E2E0F2FC20FDF2F320F1F2F0E0EDE8F7
S1133390F6F33C2F68333E0D0A3C61206872656683
S11333A03D22696E6465782E68746D6C223ECDE0B2
S11333B0E7E0E420EDE020E3EBE0E2EDF3FE20F1D2
S11333C0F2F0E0EDE8F6F33C2F613E0D0A3C2F6885
S11333D0746D6C3E0D0A006163636573735F65729F
S11333E0726F722E68746D6C0074390000000000F6
S11333F0007E05F6330000000100010010100000FB
S11334000100080068050000160000002800000004
S1133410100000002000000001000800000000006F
S11334200001000000000000000000000001000096
S113343000000000271FED00A4A1F8005953F1007B
S11334407570F4002D25EE00C7C5FA003932EF007F
S1133450F0EFFE008B87F500A7A4F8003C35EF00E1
S1133460FFFFFF00C3C1FA00332BEE006862F300D4
S1133470F6F5FE00ADAAF800B9B7F9002C24EE0069
S11334802921ED003B34EF00C2C0FA00251DED00F8
S1133490DBDAFC00322AEE00E8E7FD00938FF60049
S11334A0807BF5002B23EE00E1E0FD007C78F40046
S11334B0342DEE00A29FF700D7D6FC009B98F700AE
S11334C0241CED00B8B5F900000000000000000065
S11334D000000000000000000000000000000000E8
S11334E000000000000000000000000000000000D8
S11334F000000000000000000000000000000000C8
S113350000000000000000000000000000000000B7
S1133830000000000B0B0B0B0B0B0B0B0B0B0B0B00
S11338400B0B0B0B0B0023232323232323232323DF
S113385023230A0B0B232323231C1E09010E1623E7
S11338602323180B0B2323230D210B0B0B0B2416E3
S11338702323180B0B232323200B0B0B0B0B0B0302
S11338802323180B0B232316070B0B0B0B0B0B0C0F
S11338902323180B0B2323180B0B0B0B0B0B0B1DE8
S11338A02323180B0B2323040B0B0B0B0B0B0B17F2
S11338B02323180B0B232323190B0B0B0B0B0B11BB
S11338C02323180B0B232323100B0B0B0B0B0B1BAA
S11338D02323180B0B232323020B0B0B0B0B0F1FA0
S11338E02323180B0B23232323150B0B0B0B1A2356
S11338F02323180B0B2323232314190B0B05132346
S11339002323180B0B232323232306220812232308
S11339102323180B0B0023232323232323232323D1
S113392023230A0B0B0B0B0B0B0B0B0B0B0B0B0BB4
S11339300B0B0B0B00000000000000000000000057
S11339400000000000000000000000000000000073
S11339500000000000000000000000000000000063
S11339600000000000000000000000000000000053
S11339700000000066617669636F6E2E69636F00F4
S11339804B4557431C008D390009573A024C3A3CC9
S11339903A373A273A213A113A0A3AFA39F139E1EF
S11339A039B939A939D839C8390808003C000000A8
S11339B0FFFF000000000000004375727244617450
S11339C061506572696F6400010A00000000000123
S11339D000000000000000004175746F53656E64C0
S11339E0000030090000000001000000314B00001D
S11339F00053746F7042697473000006060000007F
S1133A000002000000000000000050617269747937
S1133A1000005F0A00000000030000000000000036
S1133A200042697451740000580A00000000080044
S1133A3000000000000000526174650001290000CC
S1133A40000000040000005D4B000000454D65745B
S1133A50657254797065003C48544D4C3E0D0A3CE7
S1133A60484541443E0D0A3C5449544C453E7B7BF9
S1133A707B7B7B7B7B7B7B7B7B7B7B7B7B7B7B7B92
S1133A807B7B3C2F5449544C453E0D0A3C6D657478
S1133A906120687474702D65717569763D22436F79
S1133AA06E74656E742D547970652220636F6E7424
S1133AB0656E743D22746578742F68746D6C3B2058
S1133AC0636861727365743D77696E646F77732D93
S1133AD031323531223E0D0A3C2F484541443E0DDA
S1133AE00A3C424F44593E0D0A0D0A3C48323E45B9
S1133AF04D5265616465722E207B7B7B7B7B7B7B77
S1133B007B7B7B7B7B7B7B7B7B7B7B7B7B3C2F48BF
S1133B10323E0D0A49443A207B7B7B7B207B7B7BB6
S1133B207B7B7B7B7B7B200953573A20332E3037BA
S1133B303C2F42523E0D0A3C48523E0D0A3C612045
S1133B40687265663D22696E6465782E68746D6C72
S1133B50223EC3EBE0E2EDE0FF3C2F613E207C20FF
S1133B600D0A3C6120687265663D22656D65746569
S1133B70722E68746D6C223ECDE0F1F2F0EEE9EA4B
S1133B80E820F1F7E5F2F7E8EAE03C2F613E207C1B
S1133B90200D0A3C6120687265663D226E6574776B
S1133BA06F726B2E68746D6C223ED1E5F2E5E2FB18
S1133BB0E520EDE0F1F2F0EEE9EAE83C2F613E2089
S1133BC07C200D0A3C6120687265663D2267736D36
S1133BD02E68746D6C223E47534D2F475052533C10
S1133BE02F613E207C200D0A3C6120687265663D91
S1133BF0226373642E68746D6C223E4353443C2FDD
S1133C00613E207C200D0A3C6120687265663D227D
S1133C1073797374656D2E68746D6C223ED1E8F10E
S1133C20F2E5ECE03C2F613E207C200D0A3C612053
S1133C30687265663D226C6F676F75742E68746D6B
S1133C406C223EC2FBF5EEE43C2F613E0D0A3C487B
S1133C50523E0D0A3C68333ED1F7B8F2F7E8EAE881
S1133C6020FDEBE5EAF2F0EEFDEDE5F0E3E8E83AFD
S1133C703C2F68333E0D0A412B207B7B7B7B7B7B77
S1133C807B7B7B7B7B20EAC2F22AF7207C20412DC0
S1133C90207B7B7B7B7B7B7B7B7B7B7B20EAC2F2F9
S1133CA02AF7207C20522B207B7B7B7B7B7B7B7BBE
S1133CB07B7B7B20EAC2C0F02AF7207C20522D2097
S1133CC07B7B7B7B7B7B7B7B7B7B7B20EAC2C0F02B
S1133CD02AF70D0A3C2F42523E0D0A3C68333ED26D
S1133CE0E8EF20FDEBE5EAF2F0EEF1F7B8F2F7E8E1
S1133CF0EAE03A3C2F68333E0D0A3C666F726D2051
S1133D00616374696F6E3D272F27206D6574686F3A
S1133D10643D27474554273E0D0A093C53454C450D
S1133D204354204E414D453D22454D6574657254C2
S1133D30797065223E200D0A3C4F5054494F4E2065
S1133D4056414C55453D30207B7B7B7B7B7B7B7B8D
S1133D503ECDE5F2200D0A3C4F5054494F4E2056BB
S1133D60414C55453D31207B7B7B7B7B7B7B7B3E84
S1133D704C616E646973264779720D0A3C4F505446
S1133D80494F4E2056414C55453D32207B7B7B7B31
S1133D907B7B7B7B3EDDCBC2C8CD0D0A3C4F5054B0
S1133DA0494F4E2056414C55453D33207B7B7B7B10
S1133DB07B7B7B7B3ECCE5F0EAF3F0E8E932333001
S1133DC00D0A3C4F5054494F4E2056414C55453DE9
S1133DD034207B7B7B7B7B7B7B7B3EDDCBC2C8CD76
S1133DE020ECEEE4E5EC0D0A093C2F53454C454329
S1133DF0543E200D0A093C696E7075742074797004
S1133E00653D277375626D6974272076616C7565ED
S1133E103D274F4B273E0D0A3C2F666F726D3E0DBA
S1133E200A3C2F42523E0D0A0D0A3C68333ECFE055
S1133E30F0E0ECE5F2F0FB2052533233322F5253D0
S1133E403438353A3C2F68333E0D0A3C666F726D48
S1133E5020616374696F6E3D272F27206D65746838
S1133E606F643D27474554273E0D0A0D0A09D1EAE0
S1133E70EEF0EEF1F2FC3A0D0A093C53454C454391
S1133E8054204E414D453D2252617465223E200D21
S1133E900A093C4F5054494F4E2056414C55453D1C
S1133EA030207B7B7B7B7B7B7B7B3E313230306283
S1133EB070730D0A093C4F5054494F4E2056414CE3
S1133EC055453D31207B7B7B7B7B7B7B7B3E32344A
S1133ED030306270730D0A093C4F5054494F4E20E4
S1133EE056414C55453D32207B7B7B7B7B7B7B7BEA
S1133EF03E343830306270730D0A093C4F505449D7
S1133F004F4E2056414C55453D33207B7B7B7B7B7C
S1133F107B7B7B3E393630306270730D0A093C4F2F
S1133F205054494F4E2056414C55453D34207B7BDF
S1133F307B7B7B7B7B7B3E31343430306270730D12
S1133F400A093C4F5054494F4E2056414C55453D6B
S1133F5035207B7B7B7B7B7B7B7B3E3139323030F6
S1133F606270730D0A093C4F5054494F4E2056411C
S1133F704C55453D36207B7B7B7B7B7B7B7B3E327C
S1133F80383830306270730D0A093C4F5054494F31
S1133F904E2056414C55453D37207B7B7B7B7B7BBC
S1133FA07B7B3E33383430306270730D0A093C4FEA
S1133FB05054494F4E2056414C55453D38207B7B4B
S1133FC07B7B7B7B7B7B3E35373630306270730D79
S1133FD00A093C2F53454C4543543E0D0A0D0A092A
S1133FE0CAEEEBE8F7E5F1F2E2EE20E1E8F23A0D91
S1133FF00A093C53454C454354204E414D453D220E
S11340004269745174223E200D0A093C4F505449B0
S11340104F4E2056414C55453D30207B7B7B7B7B6E
S11340207B7B7B3E350D0A093C4F5054494F4E2053
S113403056414C55453D31207B7B7B7B7B7B7B7B99
S11340403E360D0A093C4F5054494F4E2056414CC0
S113405055453D32207B7B7B7B7B7B7B7B3E370DD9
S11340600A093C4F5054494F4E2056414C55453D4A
S113407033207B7B7B7B7B7B7B7B3E380D0A093C3F
S11340802F53454C4543543E200D0A0D0A09D7B819
S1134090F2EDEEF1F2FC3A0D0A093C53454C45436E
S11340A054204E414D453D22506172697479223E3F
S11340B0200D0A093C4F5054494F4E2056414C554F
S11340C0453D30207B7B7B7B7B7B7B7B3EEDE5F240
S11340D00D0A093C4F5054494F4E2056414C55450A
S11340E03D31207B7B7B7B7B7B7B7B3EF7E5F2ED6D
S11340F0FBE90D0A093C4F5054494F4E2056414CA0
S113410055453D32207B7B7B7B7B7B7B7B3EEDE59A
S1134110F7B8F2EDFBE90D0A093C2F53454C454332
S1134120543E200D0A0D0A09D1F2EEEF2DE1E8F21A
S1134130FB3A0D0A093C53454C454354204E414D2E
S1134140453D2253746F7042697473223E200D0AF8
S1134150093C4F5054494F4E2056414C55453D3033
S1134160207B7B7B7B7B7B7B7B3E310D0A093C4F39
S11341705054494F4E2056414C55453D31207B7B90
S11341807B7B7B7B7B7B3E320D0A093C2F53454C6A
S11341904543543E200D0A0D0A093C696E7075743E
S11341A020747970653D277375626D697427207674
S11341B0616C75653D274F4B273E0D0A3C2F666F9A
S11341C0726D3E0D0A3C2F42523E0D0A3C68333E4E
S11341D0CEEFF0EEF120F1F7B8F2F7E8EAE03A3C7E
S11341E02F68333E3C2F42523E0D0A3C666F726D7F
S11341F020616374696F6E3D272F27206D65746895
S11342006F643D27474554273E0D0A093C53454CEE
S1134210454354204E414D453D224175746F5365CD
S11342206E64223E200D0A093C4F5054494F4E20E3
S113423056414C55453D30207B7B7B7B7B7B7B7B98
S11342403ECDE5F2200D0A093C4F5054494F4E2013
S113425056414C55453D31207B7B7B7B7B7B7B7B77
S11342603EC4E00D0A093C2F53454C4543543E20BF
S11342700D0A093C696E70757420747970653D2768
S11342807375626D6974272076616C75653D274F7F
S11342904B273E0D0A3C2F666F726D3E0D0A3C663D
S11342A06F726D20616374696F6E3D272F27206DD7
S11342B06574686F643D27474554273E0D0A20CF37
S11342C0E5F0E8EEE43A0D0A093C696E7075742075
S11342D0747970653D277465787427206E616D6507
S11342E03D274375727244617461506572696F64ED
S11342F0272073697A653D2735272076616C7565BB
S11343003D277B7B7B7B7B273E0D0A09F1E5EA0D8C
S11343100A093C696E70757420747970653D277361
S113432075626D6974272076616C75653D274F4B06
S1134330273E0D0A3C2F666F726D3E0D0A3C2F42DC
S1134340523E0D0A3C2F424F44593E0D0A3C2F4821
S1134350544D4C3E0D0A00220F00000015220F00A0
S113436000001507140B000000140C0600000010D8
S11343704002000003104402000003104802000041
S113438003104C020000031E29002745001E2900CB
S11343901D45001E29001345001E29000945001E65
S11343A02900FF44001D580AED44001D580ADB444F
S11343B0001D580AC944001D580AB744001D580A74
S11343C0A544001D580A9344001D580A8144001D49
S11343D0580A6F44001D580A5D44001D5F0A554485
S11343E0001D5F0A4D44001D5F0A4544001D5F0A1D
S11343F03D44001D06063744001D06063144001DD9
S113440006062B44001D30092744001D30092344AF
S1134410001E0A003545001E0A0031450008080048
S11344200000004245394539454245424542453937
S11344304542453945424539454245424542454252
S1134440454245394542454245394542454245394B
S11344504542454245394542454245424542454229
S11344604542454245424542454245424539454219
S11344704542454245424542454245424539454209
S113448045424542454245424542454245394542F9
S113449045424542454245424542454245394542E9
S11344A045424542454245424542454245394542D9
S11344B045424542454245424542454245394542C9
S11344C045424542454245424542454245394542B9
S11344D045424542454245424542454245394542A9
S11344E04542454245424542454245424539454299
S11344F04542454245424542454245424542454280
S11345004542454245424539454245424542453981
S11345104542454245424539454245424542453971
S11345204542454245424539454245424542454258
S113453045424539453945424573656C6563746543
S11345406400202020202020202000656D657465F3
S1134550722E68746D6C008A484E4800000000EAB0
S1134560026445003C48544D4C3E0D0A3C484541CC
S1134570443E0D0A3C5449544C453E7B7B7B7B7B3B
S11345807B7B7B7B7B7B7B7B7B7B7B7B7B7B7B3CB6
S11345902F5449544C453E0D0A3C6D6574612068A6
S11345A07474702D65717569763D22436F6E746500
S11345B06E742D547970652220636F6E74656E7409
S11345C03D22746578742F68746D6C3B2063686158
S11345D0727365743D77696E646F77732D3132350C
S11345E031223E0D0A3C2F484541443E0D0A3C42CF
S11345F04F44593E0D0A0D0A3C48323E454D526522
S1134600616465722E207B7B7B7B7B7B7B7B7B7BEE
S11346107B7B7B7B7B7B7B7B7B7B3C2F48323E0D98
S11346200A49443A207B7B7B7B207B7B7B7B7B7BA7
S11346307B7B7B200953573A20332E30373C2F4263
S1134640523E0D0A3C48523E0D0A3C612068726598
S1134650663D22696E6465782E68746D6C223EC373
S1134660EBE0E2EDE0FF3C2F613E207C200D0A3CB4
S11346706120687265663D22656D657465722E6899
S1134680746D6C223ECDE0F1F2F0EEE9EAE820F13F
S1134690F7E5F2F7E8EAE03C2F613E207C200D0AC2
S11346A03C6120687265663D226E6574776F726B3B
S11346B02E68746D6C223ED1E5F2E5E2FBE520ED57
S11346C0E0F1F2F0EEE9EAE83C2F613E207C200DB7
S11346D00A3C6120687265663D2267736D2E6874BA
S11346E06D6C223E47534D2F475052533C2F613E31
S11346F0207C200D0A3C6120687265663D2263734C
S1134700642E68746D6C223E4353443C2F613E20FA
S11347107C200D0A3C6120687265663D22737973C2
S113472074656D2E68746D6C223ED1E8F1F2E5EC8F
S1134730E03C2F613E207C200D0A3C6120687265BC
S1134740663D226C6F676F75742E68746D6C223EC3
S1134750C2FBF5EEE43C2F613E0D0A3C48523E0D8F
S11347600A3C68333ED1F7B8F2F7E8EAE820FDEBFB
S1134770E5EAF2F0EEFDEDE5F0E3E8E83A3C2F6817
S1134780333E0D0A412B207B7B7B7B7B7B7B7B7BBE
S11347907B7B20EAC2F22AF7207C20412D207B7B00
S11347A07B7B7B7B7B7B7B7B7B20EAC2F22AF720B3
S11347B07C20522B207B7B7B7B7B7B7B7B7B7B7B73
S11347C020EAC2C0F02AF7207C20522D207B7B7B7C
S11347D07B7B7B7B7B7B7B7B20EAC2C0F02AF70D53
S11347E00A3C68333ED3F0EEE2E5EDFC20F1E8E369
S11347F0EDE0EBE03A3C2F68333E0D0A207B7B2052
S113480028302D3331293C2F42523E0D0A3C683367
S11348103ECDE0F0E0E1EEF2EAE0203A3C2F6833EE
S11348203E0D0A7B7B7B7B7B7B7B7B7B7B7B20F1D5
S1134830E5EA0D0A3C2F42523E0D0A3C2F424F44FA
S1134840593E0D0A3C2F48544D4C3E0D0A00220F90
S113485000000015220F0000001507140B000000D3
S1134860140C060000001040020000031044020073
S11348700003104802000003104C02000003001F54
S113488006000000105009000002696E6465782E6D
S113489068746D6C00A44BBC4A0800A248E301D9BB
S11348A04800D348C348BA48AA4821EE050000008E
S11348B00002000000FE2800000B70617373776F24
S11348C072640021E40900000000020000000000FE
S11348D00000106C6F67696E003C48544D4C3E0DEF
S11348E00A3C484541443E0D0A3C5449544C453E1B
S11348F07B7B7B7B7B7B7B7B7B7B7B7B7B7B7B7B04
S11349007B7B7B7B3C2F5449544C453E0D0A3C6DCC
S113491065746120687474702D65717569763D22C3
S1134920436F6E74656E742D547970652220636FC5
S11349306E74656E743D22746578742F68746D6C42
S11349403B20636861727365743D77696E646F7749
S1134950732D31323531223E0D0A3C2F48454144F6
S11349603E0D0A3C424F445920414C49474E3D4379
S1134970454E5445523E0D0A7B7B7B7B7B7B7B7B88
S11349807B7B7B7B7B7B7B7B7B7B7B7B7B7B7B7B73
S11349907B7B7B7B7B7B7B7B7B7B7B7B7B7B7B7B63
S11349A07B7B7B7B7B7B7B7B7B3C2F42523E3C2F08
S11349B042523E0D0A4944207B7B7B7B207B7B7BE0
S11349C07B7B7B7B7B7B3C2F42523E3C2F42523E87
S11349D00D0A3C464F524D20616374696F6E3D274A
S11349E02F27206D6574686F643D27504F535427FB
S11349F03E0D0A094C6F67696E203C696E707574D0
S1134A0020747970653D277465787427206E616D14
S1134A10653D276C6F67696E272073697A653D274A
S1134A203135273E3C2F42523E3C2F42523E0D0A26
S1134A300950617373776F7264203C696E7075748A
S1134A4020747970653D2770617373776F72642782
S1134A50206E616D653D2770617373776F72642793
S1134A602073697A653D273130273E3C2F42523E00
S1134A703C2F42523E090D0A093C696E7075742040
S1134A80747970653D277375626D6974272076614A
S1134A906C75653D274F4B273E3C2F42523E0D0A15
S1134AA03C2F464F524D3E0D0A3C2F424F44593E37
S1134AB00D0A3C2F48544D4C3E0D0A00220F0000B5
S1134AC000151D0306D44A0007140B000000140C43
S1134AD006000000724B404B0E4BDC4A506173736E
S1134AE0776F7264206973206E6F742076616C69CD
S1134AF0642120202020202020202020202020206D
S1134B0020202020202020202020202020004C6F46
S1134B1067696E206973206E6F742076616C6964B6
S1134B202120202020202020202020202020202080
S1134B302020202020202020202020202020200091
S1134B40454D52656164657220697320627573799D
S1134B50206E6F772E20416E6F74686572207573B6
S1134B6065722073746172742073657373696F6EF8
S1134B702E0057656C636F6D6520746F20454D5230
S1134B8065616465722120506C65617365206C6F8A
S1134B906720696E21202020202020202020202032
S1134BA0202020006C6F67696E2E68746D6C005055
S1134BB04F5354202F00474554202F00000000007D
S1134BC0000000007500C94B00485454502F312E8A
S1134BD03020343034204E6F7420466F756E640D6F
S1134BE00A436F6E74656E742D547970653A20743F
S1134BF06578742F68746D6C3B20636861727365AB
S1134C00743D77696E646F77732D313235310D0AD7
S1134C10436F6E6E656374696F6E3A20636C6F7375
S1134C20650D0A0D0A3C68313E343034202D204E87
S1134C306F7420466F756E643C2F68313E003F539D
S1134C4045535349443D003C696E70757420747932
S1134C5070653D2768696464656E27206E616D65C3
S1134C603D27534553534944272076616C75653D70
S1134C702700436F6E6E656374696F6E3A20636CD0
S1134C806F73650D0A0D0A006A70656700676966CF
S1134C900069636F0068746D6C00696D6167652FEE
S1134CA000746578742F68746D6C3B20636861725E
S1134CB07365743D77696E646F77732D3132353166
S1134CC00D0A000D0A436F6E74656E742D4C656E8B
S1134CD06774683A2000436F6E74656E742D54795E
S1134CE070653A2000485454502F312E3020323011
S1134CF030204F4B0D0A0029F2E5F1F2EEE2EEE529
S1134D0020F1EEEEE1F9E5EDE8E5000000006100D8
S1134D106200026100620001610062000434003537
S1134D20003300020134003500330001013A003B36
S1134D3000390001003A003B0039000200415448A8
S1134D40004154410041542B4353510041542B43DF
S1134D50474154543D300041542B43495053485526
S1134D60540041542B434950434C4F53453D31006B
S1134D7041542B434950434C4F53453D782C31000B
S1134D8041542B43495053454E443D0041544F0038
S1134D9041542B4349505354415455530041542BCF
S1134DA04349505345525645523D300041542B43DC
S1134DB049505345525645523D312C0041542B43E2
S1134DC0495053544152543D22544350222C0041E3
S1134DD0542B43495053544152543D302C22554492
S1134DE050222C0041542B43494653520041542B2A
S1134DF043494943520041542B43535454004154B2
S1134E002B434950435347503D312C220041542BEE
S1134E1043474154543D310041542B4349504D556F
S1134E20583D300041542B4349504D4F44453D318A
S1134E300041542B434D47533D222B0041542B43F7
S1134E40534D503D31372C3136372C302C30004106
S1134E50542B434D47463D310041542B4343494471
S1134E600041542B434C49503D310041542B43479E
S1134E704D4D004154453000415426570041542BB8
S1134E804950523D39363030004154004D6F64650D
S1134E906D3D393930002B2B2B0053544154453A86
S1134EA020434F4E4E454354204F4B00434F4E4EEC
S1134EB045435420393630300053485554204F4B25
S1134EC0002B4353513A00782C20434C4F53452038
S1134ED04F4B00434C4F5345204F4B00782C2053ED
S1134EE0454E44204F4B0053455256455220434CA7
S1134EF04F534500534552564552204F4B00782C92
S1134F0020434F4E4E454354204F4B00434F4E4E8B
S1134F10454354004F4B004E4F20434152524945A4
S1134F20520052494E47002B5044502044454143BF
S1134F3054002C20434C4F534544002B52454345C9
S1134F404956452C00434F4E4E4543540052454D5F
S1134F504F544520495000534D53205265616479A4
S1134F600043616C6C2052656164790052445900BD
S1134F7053494D434F4D5F53494D383030005349E9
S1134F804D434F4D5F53494D39303052005200511B
S1134F90002928440043002F289C009B009A009D70
S1134FA0009800990021282628272828284203FF52
S1134FB0A001FBCF007D67003F44002A33001F227D
S1134FC0001B19001B10001BD9030800F003080084
S1134FD076082600650A1E00006364696E6F7073AC
S1134FE07578585B000011241FBECFEFD0E1DEBFFF
S1134FF0CDBF12E0A0E0B1E0EEE5FBEE00E00BBFB8
S113500002C007900D92A433B107D9F72EE0A4E3B0
S1135010B2E001C01D92A933B207E1F70E943C6BD4
S11350200C94C56B0C940000FC0180810895FC0174
S113503084910895A0E0B0E01196ABBFFC01879184
S1135040089582B390E1892782BB08950895089555
S113505008958FE083BF87B7826087BF08958DE08E
S113506085BD87B7806887BF089560E076E0262F06
S113507030E0729FF001739FF00D1124E357F04B61
S113508045915491E62FF0E08417950711F06F5F76
S1135090EECFE852F04BE491EE2319F0E130F9F051
S11350A00895F22FEE27EB5CF24F9081F901EE5058
S11350B0FC4F8081981799F0F901E552FC4F81E08B
S11350C08083F90184E0EE0FFF1F8A95E1F7EA5E21
S11350D0F44F80819181019691838083089530916A
S11350E0000B81E090E0022E01C0880F0A94EAF7D9
S11350F0382B3093000B0895282F30E094E1899FDA
S1135100F0011124E556F04BA591B4919C91F9015D
S1135110E953F74F408151E0540F508354E1529FBB
S1135120F001539FF00D1124E756F04BA591B49173
S11351305C91F22FEE27E40FF11DEB5CF24F5083EC
S113514093FF0EC0F90124E0EE0FFF1F2A95E1F74B
S1135150EA5EF44F268537852F5F3F4F37872687D2
S11351609C7159F021E030E001C0220F8A95EAF7E2
S113517080916502822B80936502089543E0849FA9
S1135180F0011124E55FF24B25913491E82FF0E012
S1135190E050FA4F8081A90164E0869F400D511DC3
S11351A01124CA0108958DE19DE4F894FC01A591B0
S11351B0B491AC014A5F5F4FFA01349130952C9160
S11351C023232C939C012E5F3F4FF901A591B491A9
S11351D0FA0144912C91242B2C9378940896FDE4A5
S11351E08D339F0711F70895F894FFCF88E58093D6
S11351F021060895F894E0E0FFEF099481E080939C
S1135200340808950C946E730F931F93CF93DF9318
S1135210C82FD0E0FE01E45EF94F9081923009F18D
S1135220FE01A4E0EE0FFF1FAA95E1F7E053F04B57
S1135230059114910E94BE280196FC0185919491D8
S1135240C95FD94F2881FC0137E0239FE00DF11D90
S11352501124359685919491880F991F800F911F81
S113526009C073E0CC0FDD1F7A95E1F7C35ADD4F17
S11352708E819F81DF91CF911F910F910895FC0141
S1135280659175918591949108958F929F92AF92B3
S1135290BF92CF92DF92EF92FF920F931F93CF931F
S11352A0DF9300D000D0CDB7DEB74C015B01C12C39
S11352B0D12C7601C216D306E406F506F9F0C50131
S11352C08C0D9D1D29833A834B835C83F4010995DE
S11352D08027682F70E0FB01EE57FB4F04910127F4
S11352E0FB01EE57FC4F1491FFEFCF1ADF0AEF0AD0
S11352F0FF0A5C814B813A812981DCCF802F90E0C9
S1135300912B0F900F900F900F90DF91CF911F91E1
S11353100F91FF90EF90DF90CF90BF90AF909F9050
S11353208F9008950F931F930FEF1FEF0E9445294D
S11353301F910F9108950F931F9327EA31E040E0E6
S113534050E060E070E082E099E20E9492292BEF45
S11353503FE0275A314040E050E08C016CEA71E0B4
S113536082E099E20E9445291F910F91089580914E
S1135370640A81FD07C00E949B29BC0189EA91E06F
S11353800C94A17308950E948C730C94B729F8941B
S11353906FEF8FEF9FE00E94C329FFCF0E94A1739C
S11353A00C94B7290E9499730C94B7290E948273B4
S11353B00C94B7290F931F9320E030E041E050E0B4
S11353C060E070E087E198E20E9492298C0120E07D
S11353D030E041E050E060E070E08AE198E20E9451
S11353E045291F910F9108958BEA91E00E946E73F5
S11353F0811113C00E94DA29BC0187EA91E00E945E
S1135400A1730E949B29BC0189EA91E00E94A173C7
S113541061E08BEA91E00C948C7308958FB78078E7
S11354208093D803F8948091D80308958091D80389
S1135430882309F078948091D80308950E940E2A55
S113544087E290E00E947C739093770880937608BB
S11354504EE150E06AE771E088E798E00E945E73ED
S113546044E150E066E671E086E998E00E945E73EC
S113547044E150E062E571E08AEA98E00E945E73DC
S113548080E291E00E947C739093BF088093BE08F1
S11354908EE091E00E947C739093C1088093C008D1
S11354A00C94162AA8952FE088E190E00FB6F894A2
S11354B0A89581BD0FBE21BD08958091110191E091
S11354C0980F9093110108958091100191E0980F25
S11354D09093100108951F93CF93DF931F92CDB73C
S11354E0DEB7182F69830E940E2AE12FF0E0E05600
S11354F0FC4F69816083E12FE695E695E695177088
S1135500F0E0E958FD4F808121E030E0012E01C038
S1135510220F0A94EAF7662321F02095282320839A
S113552002C0822B80830F90DF91CF911F910C9446
S1135530162A1F93CF93DF93182FEB010E940E2A94
S1135540E12FF0E0EE0FFF1FE05EFC4FD183C0833C
S1135550E12FE695E695E6951770F0E0E259FD4FE8
S1135560808121E030E0012E01C0220F0A94EAF785
S1135570CD2B21F020952823208302C0822B808309
S1135580DF91CF911F910C94162A282F30E0F90156
S1135590EE0FFF1FEE0FFF1FE95AFD4F108211821D
S11355A012821382F901EC51FC4F608194E6699FE9
S11355B0B0011124909156029F5F890F0C94992A8F
S11355C04F925F926F927F928F929F92AF92BF920F
S11355D0CF92DF92EF92FF920F931F93CF93DF93BB
S11355E0982E83E0989EF0011124E35FF24B7490AF
S11355F0812C612C092D10E0E801C050DA4F98018C
S1135600220F331FF901E95CF64F5F01C9018B5C7E
S1135610974F6C017801EE0CFF1CEE0CFF1CF70198
S1135620E95AFD4F7F0198819F5F9883971127C0A6
S113563018826090560263946394690C0E940E2A47
S1135640A62DB0E0AA0FBB1FA05EBC4F4D905C908E
S11356500E94162A920120953095F501318320830A
S1135660F601408151814217530710F4318320839E
S11356706FEF7FEF862D0E94992A66246394F701C9
S11356804081518162817381088004C07695679559
S1135690579547950A94D2F740FF03C08394871423
S11356A010F2871009C0892D0E94C52A98819F5F36
S11356B09883981101C01882F801E95FF94F1082AC
S11356C0862DDF91CF911F910F91FF90EF90DF9086
S11356D0CF90BF90AF909F908F907F906F905F908E
S11356E04F9008950F931F93CF93DF93282F30E0AB
S11356F0F901E45EF94F9081923011F4108254C0A4
S1135700F901D4E0EE0FFF1FDA95E1F7EA5EF44FFA
S1135710408551854F5F5F4F51874087F901E55AB6
S1135720FD4F90819F5F9083D901AE53B74F4C9149
S113573094133AC0D901A050BA4F41E050E060E060
S113574070E00C9004C0440F551F661F771F0A9425
S1135750D2F7D901AA0FBB1FAA0FBB1FED01CF5F60
S1135760D44F088119812A813B81042B152B262BC8
S1135770372B088319832A833B83A95ABD4F0D9184
S11357801D912D913C911397042B152B262B372B10
S11357900D931D932D933C9313971082DF91CF911A
S11357A01F910F910C94E02A80E0DF91CF911F911B
S11357B00F9108951F93CF93DF9300D000D0CDB7FE
S11357C0DEB7182F49835A836B837C830E940E2A89
S11357D084E0189FF0011124E058FD4F49815A815B
S11357E06B817C814083518362837383E12FE695CF
S11357F0E695E6951770F0E0E859FD4F808121E0C9
S113580030E0012E01C0220F0A94EAF7452B462B03
S1135810472B21F020952823208302C0822B8083EC
S11358200F900F900F900F90DF91CF911F910C94D8
S1135830162AA82FA695A695A695B0E0A958BD4FFF
S11358402C9130E0982F977002C0359527959A9542
S1135850E2F720FF07C0E82FF0E0E056FC4F90810C
S113586081E0911180E00895CF93C82F0E940E2A01
S1135870AC2FA695A695A695B0E0A259BD4F2C9144
S113588030E08C2F877002C0359527958A95E2F712
S113589020FF0BC0EC2FF0E0EE0FFF1FE05EFC4F8B
S11358A020813181C1E0232B09F0C0E00E94162A37
S11358B08C2FCF910895CF93C82F0E940E2AAC2F1E
S11358C0A695A695A695B0E0A859BD4F2C9130E0B9
S11358D08C2F877002C0359527958A95E2F720FFB3
S11358E00FC084E0C89FF0011124E058FD4F4081AF
S11358F0518162817381C1E0452B462B472B09F00E
S1135900C0E00E94162A8C2FCF910895CF93C82F00
S11359100E940E2AAC2FA695A695A695B0E0A25992
S1135920BD4F8C919C2F977021E030E001C0220F75
S11359309A95EAF7822B8C93EC2FF0E0EE0FFF1F81
S1135940E05EFC4F11821082CF910C94162A609174
S11359501D0683EA91E00E94C3296091350E70917F
S1135960360E81EA91E00C94CE290E94522A1FBC83
S11359708AEE8EBD80E29EE49BBD8ABD87B78061BE
S113598087BF80E090E02FEFFC01E958FD4F2083B2
S1135990019687309105C1F780E090E03FEFFC016C
S11359A0E259FD4F2FEF3083019689309105B9F705
S11359B0209368022093690220936A0220936B0269
S11359C020936C0220936D0283EA91E00E946E732F
S11359D080931D0681EA91E00E947C739093360EB9
S11359E08093350E089580910F0191E0980F909364
S11359F00F01809367026FEF0C946B2A1F920F9232
S1135A000FB60F9211240BB60F922F933F934F931F
S1135A105F936F938F939F93EF93FF9380916602AD
S1135A208F5F8093660280E090E041E050E0209137
S1135A307E0230E0082E02C0359527950A94E2F7DD
S1135A4020FD13C0FC01E053FC4F20812150208332
S1135A5021110BC060917E029A01082E01C0220F11
S1135A600A94EAF7622B60937E02019688309105CE
S1135A70F1F6FF91EF919F918F916F915F914F910B
S1135A803F912F910F900BBE0F900FBE0F901F9060
S1135A901895EF92FF920F931F93CF93DF93F8948F
S1135AA00091660210926602789410E0EE24E3946A
S1135AB0F12C101709F4E2C080915009909151091A
S1135AC0A0915209B09153090196A11DB11D809373
S1135AD0500990935109A0935209B093530980E05F
S1135AE090E0F894E82FE695E695E695F0E0E9581D
S1135AF0FD4F2081582F577030E0052E02C0359598
S1135B0027950A94E2F720FD11C0DC01A056BC4F92
S1135B103C9131503C93311109C040819701052ECD
S1135B2001C0220F0A94EAF7422B4083789401962D
S1135B3080339105B1F680E090E0F894E82FE69583
S1135B40E695E695F0E0E259FD4F2081582F577015
S1135B5030E0052E02C0359527950A94E2F720FD22
S1135B6018C0DC01AA0FBB1FA05EBC4F2D913C9155
S1135B7011972150310911963C932E93232B49F40C
S1135B8040819701052E01C0220F0A94EAF7422BA7
S1135B904083789401968034910579F620E030E0D2
S1135BA0F894E22FE695E695E695F0E0E859FD4F86
S1135BB08081622F677090E0062E02C095958795CC
S1135BC00A94E2F780FD20C0A901440F551F440F39
S1135BD0551F40585D4FEA0188819981AA81BB8194
S1135BE00197A109B10988839983AA83BB83892B6F
S1135BF08A2B8B2B49F44081C701062E01C0880FE4
S1135C000A94EAF7482B408378942F5F3F4F283259
S1135C10310531F680913F028F5F80933F028436D5
S1135C2059F510923F028091330990913409909371
S1135C305F0980935E0910923409109233098091B0
S1135C40FB0A8F5F8093FB0A8C33B1F41092FB0A3A
S1135C5080911D068F5F80931D068C3369F410922A
S1135C601D068091350E9091360E01969093360E56
S1135C708093350E0E94A72C1F5F1BCFDF91CF911D
S1135C801F910F91FF90EF900895A895809133098B
S1135C90909134090196909334098093330980914B
S1135CA06702E82FF0E0E056FC4F908190959093C6
S1135CB02C0920911E06291710F490931E066FEFED
S1135CC00C946B2ABC0180E090E00E949E6D2DEC48
S1135CD03CEC4CE45FE30E942C6E0E94726D6115F3
S1135CE0710539F085E08A95F1F70000615071097A
S1135CF0F6CF08958C9A9498089581110AC08091E2
S1135D006400816080936400809165008E7F80933D
S1135D106500089581110AC0809164008E7F80938C
S1135D206400809165008E7F809365000895F894E7
S1135D30179A78940895F8941F9878940895F8948D
S1135D401F9A789408958D9A0895959808958E9839
S1135D50969A08951F920F920FB60F9211240BB6C4
S1135D600F922F933F934F935F936F937F938F93F0
S1135D709F93AF93BF93EF93FF9383B7887F83BFC2
S1135D8087B78D7F87BF82E590E00E943528FF9119
S1135D90EF91BF91AF919F918F917F916F915F919F
S1135DA04F913F912F910F900BBE0F900FBE0F900C
S1135DB01F9018951F920F920FB60F9211240BB6D5
S1135DC00F922F933F934F935F936F937F938F9390
S1135DD09F93AF93BF93EF93FF9385B5887F85BD62
S1135DE087B78F7787BF84E490E00E943528FF91BE
S1135DF0EF91BF91AF919F918F917F916F915F913F
S1135E004F913F912F910F900BBE0F900FBE0F90AB
S1135E101F901895FF920F931F93CF93DF93082F32
S1135E2010E0E801CC0FDD1FC00FD11FCE01835657
S1135E309E4F0E946E73F82EC256DE4FCE010E9412
S1135E406E73F11004C0813039F496E808C091E013
S1135E50F91204C096EA03C09EE801C096EB24E15F
S1135E60209FF001219FF00D1124E156F04BA591E4
S1135E70B4919C93FF2059F0813049F061E0CE0148
S1135E80DF91CF911F910F91FF900C94C329DF9163
S1135E90CF911F910F91FF900895CF93DF93C82F57
S1135EA0D0E0CE01880F991F8C0F9D1F81569E4F05
S1135EB00E946E73FE01E45AF64F808323E0829FB2
S1135EC0C00111248355904B24E12C9FF0012D9F98
S1135ED0F00D1124ED55F04BA591B491FC012491E2
S1135EE02C9324E12C9FF0012D9FF00D1124EF55EC
S1135EF0F04BA591B491FC013196E491EC9326E02A
S1135F002C9FF0012D9FF00D1124E157F04BA5912A
S1135F10B491FC01329684918C93DF91CF910895D2
S1135F20CF93DF93C82FD0E0FE01E552FC4F83E00E
S1135F30808384E18C9FF0018D9FF00D1124EB553B
S1135F40F04B85919491FC01099584E18C9FF001BB
S1135F508D9FF00D1124E756F04BA591B491FC2FC1
S1135F60EE27EB5CF24F80818C9384E18C9FF001EF
S1135F708D9FF00D1124E556F04BA591B4918C91B1
S1135F8080648C9384E18C9FF0018D9FF00D11242B
S1135F90E356F04BA591B4918C9180628C93DF9180
S1135FA0CF910895CF93DF93DC0180E094E1C82F73
S1135FB0D0E09C9FF0019D9FF00D1124E756F04B1B
S1135FC025913491A217B30711F08F5FF0CFFE0132
S1135FD0E552FC4F90819230A1F140F5992351F1A3
S1135FE0913009F03BC092E0908321E030E0082E2C
S1135FF001C0220F0A94EAF720959091650292233A
S113600090936502FE01E953F74F10820E947C28A9
