:100000000C94FD250C941C260C941C260C941C2688
:100010000C941C260C941C260C941C260C941C2658
:100020000C941C260C9483350C941C260C941C26D2
:100030000C94A0520C941C260C941C260C94B335E2
:100040000C941C260C941C260C945C440C94D243F7
:100050000C944A390C941C260C941C260C941C26D7
:100060000C941C260C941C260C941C260C941C2608
:100070000C941C260C941C260C9445410C9424458D
:100080000C9488410C941C260C941C260E568A56FF
:100090000B56365639563C563F56425645564856EC
:1000A0004B564E565156545657565B565E566156F1
:1000B000655668566C566F560C680F6818681B6852
:1000C0002668296832684A684E68536857685C68D1
:1000D00060684A685C68396865686B6872687868E7
:1000E0007F68856865687F6843688C689268A068E7
:1000F000A668B468C168D268FA6826692B69986AEC
:10010000C36AED6A266B986AC36A5A6E546B876B32
:10011000C36B096C546B876B436C436C5A6E4B6CAE
:100120005E6C716CB46C4B6C5E6C5A6E5A6E5A6E2F
:10013000F36C1C6DF36C1C6D456D676D8A6DB66D4F
:10014000E66D1E6E00761F762F763C76F382F38284
:1001500066767D768D769A76AA76B776C776D676E7
:10016000A277B277BF77CF77DC77EC7700781F780C
:1001700033784978527864787B78FD780D791A79EC
:100180002A79377947795479D6798F7A9F7AD27AD2
:10019000387B467B527BC07B557C4F7D627D6E7D7C
:1001A000B97DDE7D727E7F7E927EAB7E267F667F0E
:1001B0009C7FD87FE97FF57FF382F382F382F3821D
:1001C000F382F382F382F382F382F382F382F38287
:1001D000F382C67DD27DF382F3821A803D80478010
:1001E000538061806D807D80B0804D819B81AC812A
:1001F000E281FC81498255826A827682620308002C
:1002000079030800F8072600E2091E004203FFA058
:1002100001FBCF007D67003F44002A33001F22000E
:100220001B19001B10001B53494D434F4D5F534991
:100230004D393030520053494D434F4D5F53494D76
:1002400038303000524459002B4346554E3A203145
:10025000002B4350494E3A205245414459004361D6
:100260006C6C20526561647900534D532052656176
:1002700064790052454D4F544520495000434F4E3C
:100280004E454354002B524543454956452C002CBE
:1002900020434C4F534544002B504450204445418B
:1002A00043540052494E47004E4F20434152524959
:1002B0004552004F4B00782C20434F4E4E4543543F
:1002C000204F4B00534552564552204F4B0053454B
:1002D0005256455220434C4F5345003E00782C2047
:1002E00053454E44204F4B00434C4F5345204F4BFA
:1002F00000782C20434C4F5345204F4B002B435349
:10030000513A0053485554204F4B00434F4E4E45F1
:1003100043542039363030002B2B2B004154004100
:10032000542B4950523D393630300041544530004D
:1003300041542B43474D4D0041542B434C49503DB4
:10034000310041542B434349440041542B49464317
:100350003D322C320041542B434D47463D31004144
:10036000542B43534D503D31372C3136372C302CE4
:10037000300041542B434D47533D222B0041542B19
:100380004349504D4F44453D300041542B43495063
:100390004D4F44453D310041542B4349504D555834
:1003A0003D300041542B4349504D55583D3100419B
:1003B000542B43474154543D310041542B43495041
:1003C000435347503D312C220041542B4353545446
:1003D0000041542B43494943520041542B43494661
:1003E00053520041542B43495053544152543D30D1
:1003F0002C22554450222C0041542B434950534544
:10040000525645523D312C0041542B4349505345DF
:10041000525645523D300041542B43495053454EAE
:10042000443D0041542B434950434C4F53453D7884
:100430002C310041542B434950434C4F53453D31DF
:100440000041542B434950534855540041542B43C9
:100450005351004154410041544800020000000043
:100460000CFE08070CFE08070CFE70170CFE701738
:100470000CFE70170CFE70170CFE08070000000041
:1004800030F8E02E7017504630F84C1D30F87017D9
:1004900000000000DAFDE204000000F2E5F1F2EEF7
:1004A000E2EEE520F1EEEEE1F9E5EDE8E5003031D0
:1004B000323334353637383961626364656667686C
:1004C000696A6B6C6D6E6F70717273747576777824
:1004D000797A4142434445464748494A4B4C4D4E40
:1004E0004F505152535455565758595AE0E1E2E390
:1004F000E4E5B8BAE6E7E8B3BFE9EAEBECEDEEEF26
:10050000F0F1F2F3F4F5F6F7F8F9FAFBFCFDFEFF73
:10051000C0C1C2C3C4C5A8AAC6C7C8B2AFC9CACBE6
:10052000CCCDCECFD0D1D2D3D4D5D6D7D8D9DADB93
:10053000DCDDDEDF202B2D3D3C3E2425262E2C3F0E
:100540002127403A2829227C2A232F0030313233B8
:100550003435363738390030313233343536373880
:1005600039652B2D2E000C0D0E2975736572000058
:1005700000000000000000000000737570657275D7
:100580007365720000000000000073657276696395
:100590006500000000000000000061646D696E00ED
:1005A00000000000000000000000485454502F31AB
:1005B0002E3020323030204F4B0D0A00436F6E74C6
:1005C000656E742D547970653A20000D0A436F6E84
:1005D00074656E742D4C656E6774683A200074659E
:1005E00078742F68746D6C3B2063686172736574F6
:1005F0003D77696E646F77732D313235310D0A00A6
:10060000696D6167652F0068746D6C0069636F00C8
:10061000676966006A70656700436F6E6E65637434
:10062000696F6E3A20636C6F73650D0A0D0A003CAA
:10063000696E70757420747970653D2768696464AB
:10064000656E27206E616D653D27534553534944C0
:10065000272076616C75653D27003F53455353490C
:10066000443D00485454502F312E30203430342033
:100670004E6F7420466F756E640D0A436F6E74651D
:100680006E742D547970653A20746578742F68748F
:100690006D6C3B20636861727365743D77696E644D
:1006A0006F77732D313235310D0A436F6E6E65638E
:1006B00074696F6E3A20636C6F73650D0A0D0A3CA6
:1006C00068313E343034202D204E6F7420466F75D3
:1006D0006E643C2F68313E00000000000000000006
:1006E00075006306474554202F00504F5354202F68
:1006F00000302E392E3200302E392E3100312E3876
:100700002E3000322E382E3000332E382E3000346A
:100710002E382E300033322E372E300035322E3721
:100720002E300037322E372E300033312E372E3018
:100730000035312E372E300037312E372E30003134
:10074000362E372E3000432E36302E3000432E36D4
:10075000302E3200432E36312E3000432E36312ECD
:100760003200432E36322E3000432E36322E3200E7
:10077000302E302E3000462E462E30002F3F2100E6
:1007800006303530000001010101010101017781CE
:10079000000500001025000816114F8A00081621D8
:1007A0004F9E000816008F8641540D0041545A0D8B
:1007B00000415445300D002B2B2B4154480D004176
:1007C00054410D000D0A4F4B0D0A000D0A52494EBF
:1007D000470D0A000D0A434F4E4E4543540D0A0083
:1007E0000D0A4E4F20434152524945520D0A0042D4
:1007F0003003756C6F67696E2E68746D6C00576599
:100800006C636F6D6520746F20454D526561646542
:10081000722120506C65617365206C6F6720696E72
:1008200021202020202020202020202020202000E7
:10083000454D5265616465722069732062757379F4
:10084000206E6F772E20416E6F746865722075730D
:1008500065722073746172742073657373696F6E4F
:100860002E004C6F67696E206973206E6F7420765E
:10087000616C69642120202020202020202020205D
:100880002020202020202020202020202020202068
:100890002020200050617373776F72642069732089
:1008A0006E6F742076616C696421202020202020E6
:1008B0002020202020202020202020202020202038
:1008C000202020202000FE073008620894082262C1
:1008D000010000151D8705C60800078F0A000000EB
:1008E000148F050000003C48544D4C3E0D0A3C4816
:1008F0004541443E0D0A3C5449544C453E7B7B7B6C
:100900007B7B7B7B7B7B7B7B7B7B7B7B7B7B7B7B37
:100910007B3C2F5449544C453E0D0A3C6D65746137
:1009200020687474702D65717569763D22436F6E11
:1009300074656E742D547970652220636F6E7465D2
:100940006E743D22746578742F68746D6C3B2063FF
:100950006861727365743D77696E646F77732D316A
:10096000323531223E0D0A3C2F484541443E0D0AA6
:100970003C424F445920414C49474E3D43454E541B
:1009800045523E0D0A7B7B7B7B7B7B7B7B7B7B7B32
:100990007B7B7B7B7B7B7B7B7B7B7B7B7B7B7B7BA7
:1009A0007B7B7B7B7B7B7B7B7B7B7B7B7B7B7B7B97
:1009B0007B7B7B7B7B7B3C2F42523E3C2F42523EDB
:1009C0000D0A4944207B7B7B7B207B7B7B7B7B7B75
:1009D0007B7B7B3C2F42523E3C2F42523E0D0A3CD9
:1009E000464F524D20616374696F6E3D272F27205B
:1009F0006D6574686F643D27504F5354273E0D0A50
:100A0000094C6F67696E203C696E7075742074794B
:100A100070653D277465787427206E616D653D278C
:100A20006C6F67696E272073697A653D27313527BA
:100A30003E3C2F42523E3C2F42523E0D0A0950612D
:100A40007373776F7264203C696E7075742074796B
:100A500070653D2770617373776F726427206E61D4
:100A60006D653D2770617373776F726427207369BA
:100A70007A653D273130273E3C2F42523E3C2F4283
:100A8000523E090D0A093C696E70757420747970C4
:100A9000653D277375626D6974272076616C756595
:100AA0003D274F4B273E3C2F42523E0D0A3C2F46DE
:100AB0004F524D3E0D0A3C2F424F44593E0D0A3CC9
:100AC0002F48544D4C3E0D0A006C6F67696E002133
:100AD0006209000000000200000000000000107029
:100AE000617373776F726400217205000000000269
:100AF000000000483F00000BC90ACF0ADF0AE80ADD
:100B0000F307CE080800F80AE301E608696E646599
:100B1000782E68746D6C002020202020202020007A
:100B200073656C656374656400200B170B170B20ED
:100B30000B200B170B170B170B170B170B200B1793
:100B40000B170B170B170B170B200B170B170B178C
:100B50000B170B170B200B170B170B170B170B177C
:100B60000B200B200B170B170B170B170B170B1763
:100B70000B170B170B170B200B170B170B170B175C
:100B80000B170B170B170B170B170B200B170B174C
:100B90000B170B170B170B170B170B170B170B203C
:100BA0000B170B170B170B170B170B170B170B1735
:100BB0000B170B200B170B170B170B170B170B171C
:100BC0000B170B170B170B200B170B170B170B170C
:100BD0000B170B170B170B170B170B200B170B17FC
:100BE0000B170B170B170B170B170B170B170B20EC
:100BF0000B170B170B170B170B170B170B170B17E5
:100C00000B170B200B200B170B170B170B170B20B9
:100C10000B170B170B170B170B200B170B170B17BB
:100C20000B170B200B200B170B170B170B200B1799
:100C30000B170B170B200B200B170B170B200B227E
:100C40006201000015226201000015078F0A0000F2
:100C500000148F0500000010DB0100000310DF010D
:100C600000000310E30100000310E7010000031E71
:100C70005C01310B001E5C013B0B001E5C01450B4F
:100C8000001E5C014F0B001E5C01590B001DD609B4
:100C9000630B001DD609750B001DD609870B001DBF
:100CA000D609990B001DD609AB0B001DD609BD0B4B
:100CB000001DD609CF0B001DD609E10B001DD6097A
:100CC000F30B001DDC09050C001DDC090D0C001DDB
:100CD000DC09150C001DDC091D0C001D8905250C07
:100CE000001D89052B0C001D8905310C001DB30862
:100CF000370C001DB3083B0C001E7B01290B001EA6
:100D00007B012D0B00087C010000003C48544D4C39
:100D10003E0D0A3C484541443E0D0A3C5449544C62
:100D2000453E7B7B7B7B7B7B7B7B7B7B7B7B7B7B86
:100D30007B7B7B7B7B7B3C2F5449544C453E0D0A8F
:100D40003C6D65746120687474702D657175697689
:100D50003D22436F6E74656E742D54797065222048
:100D6000636F6E74656E743D22746578742F687459
:100D70006D6C3B20636861727365743D77696E6466
:100D80006F77732D31323531223E0D0A3C2F4845A5
:100D900041443E0D0A3C424F44593E0D0A0D0A3C67
:100DA00048323E454D5265616465722E207B7B7BE7
:100DB0007B7B7B7B7B7B7B7B7B7B7B7B7B7B7B7B83
:100DC0007B3C2F48323E0D0A49443A207B7B7B7B9B
:100DD000207B7B7B7B7B7B7B7B7B200953573A2073
:100DE000332E30353C2F42523E0D0A3C48523E0DC8
:100DF0000A3C6120687265663D22696E6465782EE2
:100E000068746D6C223EC3EBE0E2EDE0FF3C2F61C5
:100E10003E207C200D0A3C6120687265663D226E92
:100E20006574776F726B2E68746D6C223ED1E5F23B
:100E3000E5E2FBE520EDE0F1F2F0EEE9EAE83C2F37
:100E4000613E207C200D0A3C6120687265663D226F
:100E500067736D2E68746D6C223E47534D2F47505B
:100E600052533C2F613E207C200D0A3C6120687269
:100E700065663D226373642E68746D6C223E435335
:100E8000443C2F613E207C200D0A3C612068726545
:100E9000663D2273797374656D2E68746D6C223EA5
:100EA000D1E8F1F2E5ECE03C2F613E207C200D0A18
:100EB0003C6120687265663D226C6F676F75742EA9
:100EC00068746D6C223EC2FBF5EEE43C2F613E0D72
:100ED0000A3C48523E0D0A3C68333ED1F7B8F2F75F
:100EE000E8EAE820FDEBE5EAF2F0EEFDEDE5F0E3FF
:100EF000E8E83A3C2F68333E0D0A412B207B7B7B90
:100F00007B7B7B7B7B7B7B7B20EAC2F22AF7207C8E
:100F100020412D207B7B7B7B7B7B7B7B7B7B7B20BA
:100F2000EAC2F22AF7207C20522B207B7B7B7B7B42
:100F30007B7B7B7B7B7B20EAC2C0F02AF7207C2076
:100F4000522D207B7B7B7B7B7B7B7B7B7B7B20EAAF
:100F5000C2C0F02AF70D0A3C2F42523E0D0A3C68EF
:100F6000333ED2E8EF20FDEBE5EAF2F0EEF1F7B820
:100F7000F2F7E8EAE03A3C2F68333E0D0A3C666F30
:100F8000726D20616374696F6E3D272F27206D6538
:100F900074686F643D27474554273E0D0A093C534A
:100FA000454C454354204E414D453D22454D6574C9
:100FB000657254797065223E200D0A3C4F505449A9
:100FC0004F4E2056414C55453D30207B7B7B7B7BF3
:100FD0007B7B7B3ECDE5F2200D0A3C4F5054494FC0
:100FE0004E2056414C55453D31207B7B7B7B7B7BA6
:100FF0007B7B3E4C616E646973264779720D0A3CB7
:101000004F5054494F4E2056414C55453D32207B60
:101010007B7B7B7B7B7B7B3EDDCBC2C8CD0D0A3CE3
:101020004F5054494F4E2056414C55453D33207B3F
:101030007B7B7B7B7B7B7B3ECCE5F0EAF3F0E8E9D6
:101040003233300D0A3C4F5054494F4E2056414CDC
:1010500055453D34207B7B7B7B7B7B7B7B3EDDCBA7
:10106000C2C8CD20ECEEE4E5EC0D0A093C2F534557
:101070004C4543543E200D0A093C696E707574203E
:10108000747970653D277375626D69742720766188
:101090006C75653D274F4B273E0D0A3C2F666F72DE
:1010A0006D3E0D0A3C2F42523E0D0A0D0A3C68333C
:1010B0003ECFE0F0E0ECE5F2F0FB20525332333269
:1010C0002F52533438353A3C2F68333E0D0A3C6674
:1010D0006F726D20616374696F6E3D272F27206DDD
:1010E0006574686F643D27474554273E0D0A0D0A15
:1010F00009D1EAEEF0EEF1F2FC3A0D0A093C534553
:101100004C454354204E414D453D22526174652269
:101110003E200D0A093C4F5054494F4E2056414C39
:1011200055453D30207B7B7B7B7B7B7B7B3E31321F
:1011300030306270730D0A093C4F5054494F4E20B5
:1011400056414C55453D31207B7B7B7B7B7B7B7BBC
:101150003E323430306270730D0A093C4F505449AE
:101160004F4E2056414C55453D32207B7B7B7B7B4F
:101170007B7B7B3E343830306270730D0A093C4F04
:101180005054494F4E2056414C55453D33207B7BB2
:101190007B7B7B7B7B7B3E393630306270730D0A04
:1011A000093C4F5054494F4E2056414C55453D3413
:1011B000207B7B7B7B7B7B7B7B3E3134343030629E
:1011C00070730D0A093C4F5054494F4E2056414C04
:1011D00055453D35207B7B7B7B7B7B7B7B3E313963
:1011E0003230306270730D0A093C4F5054494F4EF3
:1011F0002056414C55453D36207B7B7B7B7B7B7B62
:101200007B3E32383830306270730D0A093C4F50E3
:1012100054494F4E2056414C55453D37207B7B7BF2
:101220007B7B7B7B7B3E33383430306270730D0ABE
:10123000093C4F5054494F4E2056414C55453D387E
:10124000207B7B7B7B7B7B7B7B3E35373630306204
:1012500070730D0A093C2F53454C4543543E0D0A0B
:101260000D0A09CAEEEBE8F7E5F1F2E2EE20E1E85B
:10127000F23A0D0A093C53454C454354204E414D2A
:10128000453D224269745174223E200D0A093C4FAB
:101290005054494F4E2056414C55453D30207B7BA4
:1012A0007B7B7B7B7B7B3E350D0A093C4F50544951
:1012B0004F4E2056414C55453D31207B7B7B7B7BFF
:1012C0007B7B7B3E360D0A093C4F5054494F4E20E4
:1012D00056414C55453D32207B7B7B7B7B7B7B7B2A
:1012E0003E370D0A093C4F5054494F4E2056414C51
:1012F00055453D33207B7B7B7B7B7B7B7B3E380D69
:101300000A093C2F53454C4543543E200D0A0D0A13
:1013100009D7B8F2EDEEF1F2FC3A0D0A093C53455B
:101320004C454354204E414D453D225061726974F5
:1013300079223E200D0A093C4F5054494F4E205609
:10134000414C55453D30207B7B7B7B7B7B7B7B3ED3
:10135000EDE5F20D0A093C4F5054494F4E205641DD
:101360004C55453D31207B7B7B7B7B7B7B7B3EF7FC
:10137000E5F2EDFBE90D0A093C4F5054494F4E2070
:1013800056414C55453D32207B7B7B7B7B7B7B7B79
:101390003EEDE5F7B8F2EDFBE90D0A093C2F5345A8
:1013A0004C4543543E200D0A0D0A09D1F2EEEF2DB3
:1013B000E1E8F2FB3A0D0A093C53454C4543542001
:1013C0004E414D453D2253746F7042697473223E05
:1013D000200D0A093C4F5054494F4E2056414C5560
:1013E000453D30207B7B7B7B7B7B7B7B3E310D0ACD
:1013F000093C4F5054494F4E2056414C55453D31C4
:10140000207B7B7B7B7B7B7B7B3E320D0A093C2FE9
:1014100053454C4543543E200D0A0D0A093C696E64
:1014200070757420747970653D277375626D697489
:10143000272076616C75653D274F4B273E0D0A3C92
:101440002F666F726D3E0D0A3C2F42523E0D0A3CD4
:1014500068333ECEEFF0EEF120F1F7B8F2F7E8EAAC
:10146000E03A3C2F68333E3C2F42523E0D0A3C6628
:101470006F726D20616374696F6E3D272F27206D39
:101480006574686F643D27474554273E0D0A093C43
:1014900053454C454354204E414D453D22417574C2
:1014A0006F53656E64223E200D0A093C4F5054492B
:1014B0004F4E2056414C55453D30207B7B7B7B7BFE
:1014C0007B7B7B3ECDE5F2200D0A093C4F50544911
:1014D0004F4E2056414C55453D31207B7B7B7B7BDD
:1014E0007B7B7B3EC4E00D0A093C2F53454C4543B2
:1014F000543E200D0A093C696E7075742074797031
:10150000653D277375626D6974272076616C75651A
:101510003D274F4B273E0D0A3C2F666F726D3E0DE7
:101520000A3C666F726D20616374696F6E3D272F90
:1015300027206D6574686F643D27474554273E0D2D
:101540000A20CFE5F0E8EEE43A0D0A093C696E7036
:10155000757420747970653D277465787427206EE2
:10156000616D653D274375727244617461506572A7
:10157000696F64272073697A653D27352720766176
:101580006C75653D277B7B7B7B7B273E0D0A09F1D4
:10159000E5EA0D0A093C696E70757420747970650E
:1015A0003D277375626D6974272076616C75653DA2
:1015B000274F4B273E0D0A3C2F666F726D3E0D0A7A
:1015C0003C2F42523E0D0A3C2F424F44593E0D0AD9
:1015D0003C2F48544D4C3E0D0A00454D65746572D4
:1015E0005479706500015C010000000004000000F7
:1015F000C167000000526174650000D60900000058
:1016000000080000000000000000426974517400EE
:1016100000DC0900000000030000000000000000E2
:1016200050617269747900008905000000000200B1
:101630000000000000000053746F70426974730072
:1016400000B30800000000010000001C5900000069
:101650004175746F53656E6400017B0100000000EA
:1016600001000000000000000043757272446174C4
:1016700061506572696F6400087C013C000000FFE6
:10168000FF00000000000000DA15E515F515FA1559
:101690000A161016201627163716401669167816E1
:1016A000501659160C0B3F0C1C008816CF080B0D5A
:1016B00066617669636F6E2E69636F0000000100DA
:1016C000010010100000010008006805000016006D
:1016D00000002800000010000000200000000100B1
:1016E00008000000000000010000000000000000F1
:1016F00000000001000000000000271FED00A4A171
:10170000F8005953F1007570F4002D25EE00C7C59F
:10171000FA003932EF00F0EFFE008B87F500A7A446
:10172000F8003C35EF00FFFFFF00C3C1FA00332B88
:10173000EE006862F300F6F5FE00ADAAF800B9B756
:10174000F9002C24EE002921ED003B34EF00C2C04B
:10175000FA00251DED00DBDAFC00322AEE00E8E796
:10176000FD00938FF600807BF5002B23EE00E1E077
:10177000FD007C78F400342DEE00A29FF700D7D650
:10178000FC009B98F700241CED00B8B5F9000000A0
:101790000000000000000000000000000000000049
:1017A0000000000000000000000000000000000039
:1017B0000000000000000000000000000000000029
:1017C0000000000000000000000000000000000019
:101AF000000000000000000000000B0B0B0B0B0BA4
:101B00000B0B0B0B0B0B0B0B0B0B0B0023232323D0
:101B100023232323232323230A0B0B232323231CE5
:101B20001E09010E16232323180B0B2323230D213B
:101B30000B0B0B0B24162323180B0B232323200B37
:101B40000B0B0B0B0B032323180B0B232316070B79
:101B50000B0B0B0B0B0C2323180B0B2323180B0B5A
:101B60000B0B0B0B0B1D2323180B0B2323040B0B4D
:101B70000B0B0B0B0B172323180B0B232323190B16
:101B80000B0B0B0B0B112323180B0B232323100B15
:101B90000B0B0B0B0B1B2323180B0B232323020B09
:101BA0000B0B0B0B0F1F2323180B0B2323232315C6
:101BB0000B0B0B0B1A232323180B0B2323232314A8
:101BC000190B0B0513232323180B0B232323232388
:101BD0000622081223232323180B0B00232323237D
:101BE00023232323232323230A0B0B0B0B0B0B0B86
:101BF0000B0B0B0B0B0B0B0B0B0B00000000000077
:101C000000000000000000000000000000000000D4
:101C100000000000000000000000000000000000C4
:101C200000000000000000000000000000000000B4
:101C300000000000000000000000B01600000000DE
:101C400000007E05BC166E6574776F726B2E68742B
:101C50006D6C002262010000152262010000150770
:101C60008F0A000000148F050000000864000000C7
:101C700000087600000002112C010000020166003D
:101C80000000000167000000000168000000000182
:101C90006900000000016A00000000016B00000004
:101CA00000016C00000000016D00000000016E00EA
:101CB000000000016F000000000170000000000142
:101CC00071000000000172000000000173000000BC
:101CD00000017400000000017500000000014C00CC
:101CE000000000014D00000000014E000000000156
:101CF0004F00000000085C000000000150000000E0
:101D000000015100000000015200000000015300DA
:101D1000000000085E000000000154000000000107
:101D200055000000000156000000000157000000AF
:101D30000008600000000001580000000001590088
:101D4000000000015A00000000015B0000000008D4
:101D500062000000003C48544D4C3E0D0A3C484592
:101D600041443E0D0A3C5449544C453E7B7B7B7BB1
:101D70007B7B7B7B7B7B7B7B7B7B7B7B7B7B7B7BB3
:101D80003C2F5449544C453E0D0A3C6D657461200E
:101D9000687474702D65717569763D22436F6E7439
:101DA000656E742D547970652220636F6E74656E54
:101DB000743D22746578742F68746D6C3B20636881
:101DC00061727365743D77696E646F77732D31321C
:101DD0003531223E0D0A3C2F484541443E0D0A3C18
:101DE000424F44593E0D0A0D0A3C48323E454D5281
:101DF00065616465722E207B7B7B7B7B7B7B7B7B41
:101E00007B7B7B7B7B7B7B7B7B7B7B3C2F48323E66
:101E10000D0A49443A207B7B7B7B207B7B7B7B7B51
:101E20007B7B7B7B200953573A20332E30353C2F68
:101E300042523E0D0A3C48523E0D0A3C61206872F7
:101E400065663D22696E6465782E68746D6C223E0D
:101E5000C3EBE0E2EDE0FF3C2F613E207C200D0A69
:101E60003C6120687265663D226E6574776F726BA7
:101E70002E68746D6C223ED1E5F2E5E2FBE520EDC3
:101E8000E0F1F2F0EEE9EAE83C2F613E207C200D23
:101E90000A3C6120687265663D2267736D2E687426
:101EA0006D6C223E47534D2F475052533C2F613E9D
:101EB000207C200D0A3C6120687265663D226373B8
:101EC000642E68746D6C223E4353443C2F613E2067
:101ED0007C200D0A3C6120687265663D227379732F
:101EE00074656D2E68746D6C223ED1E8F1F2E5ECFC
:101EF000E03C2F613E207C200D0A3C612068726529
:101F0000663D226C6F676F75742E68746D6C223E2F
:101F1000C2FBF5EEE43C2F613E0D0A3C48523E0DFB
:101F20000A0D0A3C68333E5443502F4950205365F4
:101F3000727665723C2F68333E0D0A3C666F726D97
:101F400020616374696F6E3D272F27206D6574686B
:101F50006F643D27474554273E0D0A094C69737449
:101F6000656E20706F72743A0D0A093C696E707567
:101F70007420747970653D277465787427206E61CC
:101F80006D653D275443505F4C697374656E506FA7
:101F90007274272073697A653D2735272076616C36
:101FA00075653D277B7B7B7B7B273E0D0A093C6962
:101FB0006E70757420747970653D277375626D69F4
:101FC00074272076616C75653D274F4B273E0D0ABF
:101FD0003C2F666F726D3E0D0A3C2F42523E0D0A39
:101FE0003C666F726D20616374696F6E3D272F27A9
:101FF000206D6574686F643D27474554273E0D0A80
:10200000095443502F495020636F6E6E65637469A5
:102010006F6E2074696D656F75743A0D0A093C69BD
:102020006E70757420747970653D277465787427B7
:10203000206E616D653D275443505F434F4E4E45C2
:1020400043545F74696D656F7574272073697A6591
:102050003D2737272076616C75653D277B7B7B7B31
:102060007B7B273E7365630D0A093C696E7075744E
:1020700020747970653D277375626D6974272076C9
:10208000616C75653D274F4B273E0D0A3C2F666FEF
:10209000726D3E0D0A3C2F42523E0D0A3C666F7235
:1020A0006D20616374696F6E3D272F27206D657405
:1020B000686F643D27474554273E0D0A09536573F1
:1020C00073696F6E2074696D656F75743A0D0A09D6
:1020D0003C696E70757420747970653D27746578FD
:1020E0007427206E616D653D275765624D61785399
:1020F000657373696F6E54696D65272073697A65BE
:102100003D2737272076616C75653D277B7B7B7B80
:102110007B7B7B7B7B7B273E7365630D0A093C6978
:102120006E70757420747970653D277375626D6982
:1021300074272076616C75653D274F4B273E0D0A4D
:102140003C2F666F726D3E0D0A3C2F42523E0D0AC7
:102150000D0A3C68333E4950204669726577616CD0
:102160006C3C2F68333E0D0A3C666F726D206163D4
:1021700074696F6E3D272F27206D6574686F643D0D
:1021800027474554273E0D0A094950313A0D0A099F
:102190003C696E70757420747970653D277465783C
:1021A0007427206E616D653D27436C69305F49502F
:1021B00031272073697A653D2733272076616C7556
:1021C000653D277B7B7B273E2E0D0A093C696E709F
:1021D000757420747970653D277465787427206E56
:1021E000616D653D27436C69305F4950322720732C
:1021F000697A653D2733272076616C75653D277BBD
:102200007B7B273E2E0D0A093C696E707574207425
:102210007970653D277465787427206E616D653D22
:1022200027436C69305F495033272073697A653DD5
:102230002733272076616C75653D277B7B7B273EA6
:102240002E0D0A093C696E70757420747970653DB5
:10225000277465787427206E616D653D27436C692E
:10226000305F495034272073697A653D2733272032
:1022700076616C75653D277B7B7B273E0D0A093CAB
:10228000696E70757420747970653D277375626D21
:102290006974272076616C75653D274F4B273E0D8D
:1022A0000A3C2F666F726D3E0D0A3C2F42523E0D66
:1022B0000A3C666F726D20616374696F6E3D272FF3
:1022C00027206D6574686F643D27474554273E0D90
:1022D0000A094950323A0D0A093C696E707574203A
:1022E000747970653D277465787427206E616D651B
:1022F0003D27436C69315F495031272073697A6506
:102300003D2733272076616C75653D277B7B7B27D6
:102310003E2E0D0A093C696E7075742074797065E3
:102320003D277465787427206E616D653D27436C89
:1023300069315F495032272073697A653D27332719
:102340002076616C75653D277B7B7B273E2E0D0AD1
:10235000093C696E70757420747970653D277465E9
:10236000787427206E616D653D27436C69315F4944
:102370005033272073697A653D2733272076616CB7
:1023800075653D277B7B7B273E2E0D0A093C696ED8
:1023900070757420747970653D2774657874272092
:1023A0006E616D653D27436C69315F49503427206C
:1023B00073697A653D2733272076616C75653D2703
:1023C0007B7B7B273E0D0A093C696E707574207417
:1023D0007970653D277375626D6974272076616C2D
:1023E00075653D274F4B273E0D0A3C2F666F726D7A
:1023F0003E0D0A3C2F42523E0D0A3C666F726D2024
:10240000616374696F6E3D272F27206D6574686F57
:10241000643D27474554273E0D0A094950333A0D7C
:102420000A093C696E70757420747970653D277473
:1024300065787427206E616D653D27436C69325F56
:10244000495031272073697A653D2733272076610B
:102450006C75653D277B7B7B273E2E0D0A093C6909
:102460006E70757420747970653D27746578742773
:10247000206E616D653D27436C69325F495032279C
:102480002073697A653D2733272076616C75653D39
:10249000277B7B7B273E2E0D0A093C696E70757485
:1024A00020747970653D277465787427206E616D9E
:1024B000653D27436C69325F495033272073697A41
:1024C000653D2733272076616C75653D277B7B7BD7
:1024D000273E2E0D0A093C696E7075742074797060
:1024E000653D277465787427206E616D653D2743CF
:1024F0006C69325F495034272073697A653D273310
:10250000272076616C75653D277B7B7B273E0D0A16
:10251000093C696E70757420747970653D27737518
:10252000626D6974272076616C75653D274F4B2776
:102530003E0D0A3C2F666F726D3E0D0A3C2F4252D3
:102540003E0D0A3C666F726D20616374696F6E3D6B
:10255000272F27206D6574686F643D2747455427F2
:102560003E0D0A094950343A0D0A093C696E7075EE
:102570007420747970653D277465787427206E61C6
:102580006D653D27436C69335F495031272073697E
:102590007A653D2733272076616C75653D277B7B07
:1025A0007B273E2E0D0A093C696E70757420747984
:1025B00070653D277465787427206E616D653D27D1
:1025C000436C69335F495032272073697A653D2730
:1025D00033272076616C75653D277B7B7B273E2EFC
:1025E0000D0A093C696E70757420747970653D2719
:1025F0007465787427206E616D653D27436C69337F
:102600005F495033272073697A653D273327207649
:10261000616C75653D277B7B7B273E2E0D0A093C4F
:10262000696E70757420747970653D27746578746F
:1026300027206E616D653D27436C69335F495034D7
:10264000272073697A653D2733272076616C75658D
:102650003D277B7B7B273E0D0A093C696E707574B4
:1026600020747970653D277375626D6974272076D3
:10267000616C75653D274F4B273E0D0A3C2F666FF9
:10268000726D3E0D0A3C2F42523E0D0A3C464F529F
:102690004D20616374696F6E3D272F27206D65742F
:1026A000686F643D27474554273E0D0A093C696E13
:1026B00070757420747970653D277375626D6974E7
:1026C00027206E616D653D27526573657447534DD4
:1026D000272076616C75653D275265736574475395
:1026E0004D273E0D0A3C2F464F524D3E0D0A3C2FC2
:1026F00042523E0D0A0D0A0D0A3C68333ECEF2F1FD
:10270000FBEBEAE020F2E5EAF3F9E8F520E4E0ED9E
:10271000EDFBF53A3C2F68333E0D0A3C2F42523E0A
:102720000D0A0D0A3C666F726D20616374696F6EED
:102730003D272F27206D6574686F643D27474554FA
:10274000273E0D0A5544502053657276657231203C
:1027500049503A0D0A093C696E707574207479709D
:10276000653D277465787427206E616D653D27553A
:1027700044503031272073697A653D27332720760E
:10278000616C75653D277B7B7B273E2E0D0A093CDE
:10279000696E70757420747970653D2774657874FE
:1027A00027206E616D653D275544503032272073D8
:1027B000697A653D2733272076616C75653D277BF7
:1027C0007B7B273E2E0D0A093C696E707574207460
:1027D0007970653D277465787427206E616D653D5D
:1027E000275544503033272073697A653D273327B6
:1027F0002076616C75653D277B7B7B273E2E0D0A1D
:10280000093C696E70757420747970653D27746534
:10281000787427206E616D653D275544503034270C
:102820002073697A653D2733272076616C75653D95
:10283000277B7B7B273E0D0A506F72743A0D0A0985
:102840003C696E70757420747970653D2774657885
:102850007427206E616D653D27554450305F506F81
:102860007274272073697A653D2735272076616C5D
:1028700075653D277B7B7B7B7B273E0D0A093C6989
:102880006E70757420747970653D277375626D691B
:1028900074272076616C75653D274F4B273E0D0AE6
:1028A0003C2F666F726D3E0D0A3C2F42523E0D0A60
:1028B0003C666F726D20616374696F6E3D272F27D0
:1028C000206D6574686F643D27474554273E0D0AA7
:1028D00055445020536572766572322049503A0D46
:1028E0000A093C696E70757420747970653D2774AF
:1028F00065787427206E616D653D275544503131F0
:10290000272073697A653D2733272076616C7565CA
:102910003D277B7B7B273E2E0D0A093C696E707537
:102920007420747970653D277465787427206E6112
:102930006D653D275544503132272073697A653DD6
:102940002733272076616C75653D277B7B7B273E8F
:102950002E0D0A093C696E70757420747970653D9E
:10296000277465787427206E616D653D2755445046
:102970003133272073697A653D2733272076616CD0
:1029800075653D277B7B7B273E2E0D0A093C696ED2
:1029900070757420747970653D277465787427208C
:1029A0006E616D653D275544503134272073697A37
:1029B000653D2733272076616C75653D277B7B7BE2
:1029C000273E0D0A506F72743A0D0A093C696E7009
:1029D000757420747970653D277465787427206E4E
:1029E000616D653D27554450315F506F72742720EB
:1029F00073697A653D2735272076616C75653D27BB
:102A00007B7B7B7B7B273E0D0A093C696E7075746E
:102A100020747970653D277375626D69742720761F
:102A2000616C75653D274F4B273E0D0A3C2F666F45
:102A3000726D3E0D0A3C2F42523E0D0A0D0A3C6655
:102A40006F726D20616374696F6E3D272F27206D53
:102A50006574686F643D27474554273E0D0A554409
:102A60005020536572766572332049503A0D0A0939
:102A70003C696E70757420747970653D2774657853
:102A80007427206E616D653D2755445032312720F3
:102A900073697A653D2733272076616C75653D271C
:102AA0007B7B7B273E2E0D0A093C696E7075742076
:102AB000747970653D277465787427206E616D6543
:102AC0003D275544503232272073697A653D2733BC
:102AD000272076616C75653D277B7B7B273E2E0D1D
:102AE0000A093C696E70757420747970653D2774AD
:102AF00065787427206E616D653D275544503233EB
:102B0000272073697A653D2733272076616C7565C8
:102B10003D277B7B7B273E2E0D0A093C696E707535
:102B20007420747970653D277465787427206E6110
:102B30006D653D275544503234272073697A653DD1
:102B40002733272076616C75653D277B7B7B273E8D
:102B50000D0A506F72743A0D0A093C696E707574F3
:102B600020747970653D277465787427206E616DD7
:102B7000653D27554450325F506F7274272073694A
:102B80007A653D2735272076616C75653D277B7B0F
:102B90007B7B7B273E0D0A093C696E70757420743F
:102BA0007970653D277375626D6974272076616C55
:102BB00075653D274F4B273E0D0A3C2F666F726DA2
:102BC0003E0D0A3C2F42523E0D0A0D0A3C666F72C2
:102BD0006D20616374696F6E3D272F27206D6574CA
:102BE000686F643D27474554273E0D0A55445020E1
:102BF000536572766572342049503A0D0A093C6972
:102C00006E70757420747970653D277465787427CB
:102C1000206E616D653D275544503331272073691F
:102C20007A653D2733272076616C75653D277B7B70
:102C30007B273E2E0D0A093C696E707574207479ED
:102C400070653D277465787427206E616D653D273A
:102C50005544503332272073697A653D2733272046
:102C600076616C75653D277B7B7B273E2E0D0A09BF
:102C70003C696E70757420747970653D2774657851
:102C80007427206E616D653D2755445033332720EE
:102C900073697A653D2733272076616C75653D271A
:102CA0007B7B7B273E2E0D0A093C696E7075742074
:102CB000747970653D277465787427206E616D6541
:102CC0003D275544503334272073697A653D2733B7
:102CD000272076616C75653D277B7B7B273E0D0A3F
:102CE000506F72743A0D0A093C696E7075742074E5
:102CF0007970653D277465787427206E616D653D38
:102D000027554450335F506F7274272073697A657A
:102D10003D2735272076616C75653D277B7B7B7B66
:102D20007B273E0D0A093C696E70757420747970BA
:102D3000653D277375626D6974272076616C7565D2
:102D40003D274F4B273E0D0A3C2F666F726D3E0D9F
:102D50000A3C2F42523E0D0A0D0A203C2F424F449E
:102D6000593E0D0A3C2F48544D4C3E0D0A00544329
:102D7000505F4C697374656E506F72740008640024
:102D800000000000FFFF0000F1530000005443501A
:102D90005F434F4E4E4543545F74696D656F757464
:102DA0000008760000000000FFFF0000F153000063
:102DB000025765624D617853657373696F6E54692C
:102DC0006D6500112C0100000000FFC99A3B000056
:102DD000000002436C69305F495031000166000019
:102DE000000000FF0000000000000000436C69309C
:102DF0005F4950320001670000000000FF00000042
:102E00000000000000436C69305F495033000168E6
:102E10000000000000FF0000000000000000436C04
:102E200069305F4950340001690000000000FF0074
:102E300000000000000000436C69315F4950310020
:102E4000016A0000000000FF000000000000000018
:102E5000436C69315F49503200016B000000000093
:102E6000FF0000000000000000436C69315F495022
:102E70003300016C0000000000FF000000000000B3
:102E80000000436C69315F49503400016D0000005F
:102E90000000FF0000000000000000436C69325F8A
:102EA00049503100016E0000000000FF00000000EA
:102EB00000000000436C69325F49503200016F002E
:102EC00000000000FF0000000000000000436C69EB
:102ED000325F4950330001700000000000FF000025
:102EE000000000000000436C69325F49503400016B
:102EF000710000000000FF0000000000000000431F
:102F00006C69335F4950310001720000000000FF1E
:102F10000000000000000000436C69335F4950323C
:102F20000001730000000000FF000000000000002E
:102F300000436C69335F49503300017400000000A6
:102F400000FF0000000000000000436C69335F498F
:102F500050340001750000000000FF000000000078
:102F6000000000554450303100014C0000000000CA
:102F7000FF00000000000000005544503032000106
:102F80004D0000000000FF000000000000000055A0
:102F90004450303300014E0000000000FF000000EC
:102FA0000000000000554450303400014F00000084
:102FB0000000FF00000000000000005544503131C7
:102FC0000001500000000000FF00000000000000B1
:102FD0000055445031320001510000000000FF0054
:102FE0000000000000000055445031330001520041
:102FF00000000000FF0000000000000000554450E9
:1030000031340001530000000000FF000000000008
:10301000000000554450323100015400000000000F
:10302000FF00000000000000005544503232000153
:10303000550000000000FF000000000000000055E7
:10304000445032330001560000000000FF00000031
:1030500000000000005544503234000157000000C9
:103060000000FF0000000000000000554450333114
:103070000001580000000000FF00000000000000F8
:103080000055445033320001590000000000FF0099
:1030900000000000000000554450333300015A0086
:1030A00000000000FF000000000000000055445038
:1030B000333400015B0000000000FF00000000004E
:1030C000000000554450305F506F727400085C007F
:1030D00000000000FFFF0000000000000055445009
:1030E000315F506F727400085E0000000000FFFF47
:1030F00000000000000000554450325F506F7274B1
:103100000008600000000000FFFF00000000000059
:1031100000554450335F506F727400086200000025
:103120000000FFFF0000000000000052657365749E
:1031300047534D00009C0500000000FF000000D92F
:103140003D0000006E2D7D2D8D2DA12DB12DC32DA7
:103150002B313431D32DDC2DEC2DF52D052E0E2EFB
:103160001E2E272E372E402E502E592E692E722EAF
:10317000822E8B2E9B2EA42EB42EBD2ECD2ED62E7F
:10318000E62EEF2EFF2E082F182F212F312F3A2F4A
:103190004A2F532F632F692F792F7F2F8F2F952F32
:1031A000A52FAB2FBB2FC12FD12FD72FE72FED2F5F
:1031B000FD2F03301330193029302F303F30453088
:1031C00055305B306B3071308130873097309D30B7
:1031D000AD30B330C330CD30DD30E730F7300131C2
:1031E00011311B31461C531CA00044311910551DD0
:1031F00067736D2E68746D6C0022620100001522E9
:103200006201000015078F0A000000148F050000FE
:103210000000A20500000022060000001E2224007B
:103220000000142238000000143C48544D4C3E0D60
:103230000A3C484541443E0D0A3C5449544C453EE5
:103240007B7B7B7B7B7B7B7B7B7B7B7B7B7B7B7BCE
:103250007B7B7B7B3C2F5449544C453E0D0A3C6D97
:1032600065746120687474702D65717569763D228E
:10327000436F6E74656E742D547970652220636F90
:103280006E74656E743D22746578742F68746D6C0D
:103290003B20636861727365743D77696E646F7714
:1032A000732D31323531223E0D0A3C2F48454144C1
:1032B0003E0D0A3C424F44593E0D0A0D0A3C48322D
:1032C0003E454D5265616465722E207B7B7B7B7B26
:1032D0007B7B7B7B7B7B7B7B7B7B7B7B7B7B7B3C7D
:1032E0002F48323E0D0A49443A207B7B7B7B207B72
:1032F0007B7B7B7B7B7B7B7B200953573A20332E68
:1033000030353C2F42523E0D0A3C48523E0D0A3C9D
:103310006120687265663D22696E6465782E687406
:103320006D6C223EC3EBE0E2EDE0FF3C2F613E20FE
:103330007C200D0A3C6120687265663D226E6574D2
:10334000776F726B2E68746D6C223ED1E5F2E5E208
:10335000FBE520EDE0F1F2F0EEE9EAE83C2F613E1A
:10336000207C200D0A3C6120687265663D226773EF
:103370006D2E68746D6C223E47534D2F475052534B
:103380003C2F613E207C200D0A3C612068726566FE
:103390003D226373642E68746D6C223E4353443C3B
:1033A0002F613E207C200D0A3C6120687265663DDD
:1033B0002273797374656D2E68746D6C223ED1E84A
:1033C000F1F2E5ECE03C2F613E207C200D0A3C61EF
:1033D00020687265663D226C6F676F75742E687425
:1033E0006D6C223EC2FBF5EEE43C2F613E0D0A3CC3
:1033F00048523E0D0AD3F0EEE2E5EDFC20F1E8E3A1
:10340000EDE0EBE0207B7B2028302D3331293C2F71
:1034100042523E0D0A3C68333E475052533C2F689F
:10342000333E3C2F42523E0D0A3C666F726D206166
:103430006374696F6E3D272F27206D6574686F6414
:103440003D27474554273E0D0A0941504E206E61E5
:103450006D653A200D0A093C696E707574207479A7
:1034600070653D277465787427206E616D653D2712
:10347000475052535F61706E272073697A653D270C
:103480003239272076616C75653D277B7B7B7B7BA2
:103490007B7B7B7B7B7B7B7B7B7B7B7B7B7B7B7B7C
:1034A0007B7B7B7B7B7B7B7B273E0D0A093C696EAC
:1034B00070757420747970653D277375626D6974D9
:1034C000272076616C75653D274F4B273E0D0A3CE2
:1034D0002F666F726D3E0D0A3C2F42523E0D0A3C24
:1034E000666F726D20616374696F6E3D272F2720B0
:1034F0006D6574686F643D27474554273E0D0A0982
:1035000055736572206E616D653A200D0A093C693C
:103510006E70757420747970653D277465787427B2
:10352000206E616D653D27475052535F61706E5F3D
:10353000757365725F6E616D65272073697A653D8D
:10354000273139272076616C75653D277B7B7B7B36
:103550007B7B7B7B7B7B7B7B7B7B7B7B7B7B7B270F
:103560003E0D0A093C696E70757420747970653D72
:10357000277375626D6974272076616C75653D27C8
:103580004F4B273E0D0A3C2F666F726D3E0D0A3C75
:103590002F42523E0D0A3C666F726D206163746962
:1035A0006F6E3D272F27206D6574686F643D274738
:1035B0004554273E0D0A0950617373776F72643A60
:1035C000200D0A093C696E70757420747970653D30
:1035D000277465787427206E616D653D27475052CA
:1035E000535F61706E5F707377272073697A653DF2
:1035F000273139272076616C75653D277B7B7B7B86
:103600007B7B7B7B7B7B7B7B7B7B7B7B7B7B7B275E
:103610003E0D0A093C696E70757420747970653DC1
:10362000277375626D6974272076616C75653D2717
:103630004F4B273E0D0A3C2F666F726D0D0A3C2FD3
:1036400042523E0D0A3C464F524D20616374696FF1
:103650006E3D272F27206D6574686F643D274745B1
:1036600054273E0D0A093C696E7075742074797098
:10367000653D277375626D697427206E616D653DC8
:1036800027526573657447534D272076616C7565C5
:103690003D27526573657447534D273E0D0A3C2FF5
:1036A000464F524D3E0D0A3C2F42523E3C2F425255
:1036B0003E0D0A203C2F424F44593E0D0A3C2F48F4
:1036C000544D4C3E0D0A00475052535F61706E00DE
:1036D0002206000000000002000000F15300001E5E
:1036E000475052535F61706E5F757365725F6E61B4
:1036F0006D65002224000000000002000000F1536C
:10370000000014475052535F61706E5F7073770012
:103710002238000000000002000000F153000014F5
:10372000534D534F6E0001250100000000010000C1
:10373000000000000000534D535F4E756D626572CE
:103740003100227C000000000000000000000000AA
:10375000000D534D535F4E756D62657232002289C4
:10376000000000000000000000000000000D534DAC
:10377000535F4E756D626572330022960000000043
:103780000000000000000000000DC736D036E03613
:10379000F33603371037203726373637423752375C
:1037A0005E376E377A37F031F9311C008A379E0464
:1037B00029326373642E68746D6C0022620100000C
:1037C00015226201000015078F0A000000148F0502
:1037D0000000001E2601290B001E26012D0B0022D1
:1037E000A30000000D22B00000000D22BD0000006B
:1037F0000D22CA0000000D22D70000000D22E400B7
:1038000000000D22F10000000D22FE0000000D223C
:103810000B0100000D22180100000D3C48544D4CD6
:103820003E0D0A3C484541443E0D0A3C5449544C27
:10383000453E7B7B7B7B7B7B7B7B7B7B7B7B7B7B4B
:103840007B7B7B7B7B7B3C2F5449544C453E0D0A54
:103850003C6D65746120687474702D65717569764E
:103860003D22436F6E74656E742D5479706522200D
:10387000636F6E74656E743D22746578742F68741E
:103880006D6C3B20636861727365743D77696E642B
:103890006F77732D31323531223E0D0A3C2F48456A
:1038A00041443E0D0A3C424F44593E0D0A0D0A3C2C
:1038B00048323E454D5265616465722E207B7B7BAC
:1038C0007B7B7B7B7B7B7B7B7B7B7B7B7B7B7B7B48
:1038D0007B3C2F48323E0D0A49443A207B7B7B7B60
:1038E000207B7B7B7B7B7B7B7B7B200953573A2038
:1038F000332E30353C2F42523E0D0A3C48523E0D8D
:103900000A3C6120687265663D22696E6465782EA6
:1039100068746D6C223EC3EBE0E2EDE0FF3C2F618A
:103920003E207C200D0A3C6120687265663D226E57
:103930006574776F726B2E68746D6C223ED1E5F200
:10394000E5E2FBE520EDE0F1F2F0EEE9EAE83C2FFC
:10395000613E207C200D0A3C6120687265663D2234
:1039600067736D2E68746D6C223E47534D2F475020
:1039700052533C2F613E207C200D0A3C612068722E
:1039800065663D226373642E68746D6C223E4353FA
:10399000443C2F613E207C200D0A3C61206872650A
:1039A000663D2273797374656D2E68746D6C223E6A
:1039B000D1E8F1F2E5ECE03C2F613E207C200D0ADD
:1039C0003C6120687265663D226C6F676F75742E6E
:1039D00068746D6C223EC2FBF5EEE43C2F613E0D37
:1039E0000A3C48523E0D0A3C666F726D206163745A
:1039F000696F6E3D272F27206D6574686F643D27C2
:103A0000474554273E0D0A09CFF0EEE2E5F0EAE023
:103A100020EDEEECE5F0E03A0D0A093C53454C454B
:103A20004354204E414D453D22434C49504F6E2258
:103A30003E200D0A093C4F5054494F4E2056414CF0
:103A400055453D30207B7B7B7B7B7B7B7B3ECDE587
:103A5000F2200D0A093C4F5054494F4E2056414C1C
:103A600055453D31207B7B7B7B7B7B7B7B3EC4E074
:103A70000D0A093C2F53454C4543543E200D0A097D
:103A80003C696E70757420747970653D277375623A
:103A90006D6974272076616C75653D274F4B273E15
:103AA0000D0A3C2F666F726D3E0D0A3C68333ED0A6
:103AB000E0E7F0E5F8B8EDEDFBE520EDEEECE5F044
:103AC000E03C2F68333E3C2F42523E0D0A3C666F6D
:103AD000726D20616374696F6E3D272F27206D65BD
:103AE00074686F643D27474554273E0D0A09B93174
:103AF0003A200D0A093C696E7075742074797065FE
:103B00003D277465787427206E616D653D274353AA
:103B10004430272073697A653D273132272076614A
:103B20006C75653D277B7B7B7B7B7B7B7B7B7B7BA2
:103B30007B273E0D0A093C696E707574207479709C
:103B4000653D277375626D6974272076616C7565B4
:103B50003D274F4B273E0D0A3C2F666F726D3E0D81
:103B60000A3C666F726D20616374696F6E3D272F2A
:103B700027206D6574686F643D27474554273E0DC7
:103B80000A09B9323A200D0A093C696E7075742031
:103B9000747970653D277465787427206E616D6552
:103BA0003D2743534431272073697A653D273132DD
:103BB000272076616C75653D277B7B7B7B7B7B7BE0
:103BC0007B7B7B7B7B273E0D0A093C696E7075749D
:103BD00020747970653D277375626D69742720764E
:103BE000616C75653D274F4B273E0D0A3C2F666F74
:103BF000726D3E0D0A3C666F726D20616374696F71
:103C00006E3D272F27206D6574686F643D274745FB
:103C100054273E0D0A09B9333A200D0A093C696E52
:103C200070757420747970653D27746578742720E9
:103C30006E616D653D2743534432272073697A6571
:103C40003D273132272076616C75653D277B7B7B74
:103C50007B7B7B7B7B7B7B7B7B273E0D0A093C69E7
:103C60006E70757420747970653D277375626D6927
:103C700074272076616C75653D274F4B273E0D0AF2
:103C80003C2F666F726D3E0D0A3C666F726D20614F
:103C90006374696F6E3D272F27206D6574686F64AC
:103CA0003D27474554273E0D0A09B9343A200D0AED
:103CB000093C696E70757420747970653D27746570
:103CC000787427206E616D653D2743534433272068
:103CD00073697A653D273132272076616C75653DC1
:103CE000277B7B7B7B7B7B7B7B7B7B7B7B273E0D77
:103CF0000A093C696E70757420747970653D27738C
:103D000075626D6974272076616C75653D274F4B30
:103D1000273E0D0A3C2F666F726D3E0D0A3C666FA2
:103D2000726D20616374696F6E3D272F27206D656A
:103D300074686F643D27474554273E0D0A09B9351D
:103D40003A200D0A093C696E7075742074797065AB
:103D50003D277465787427206E616D653D27435358
:103D60004434272073697A653D27313227207661F4
:103D70006C75653D277B7B7B7B7B7B7B7B7B7B7B50
:103D80007B273E0D0A093C696E707574207479704A
:103D9000653D277375626D6974272076616C756562
:103DA0003D274F4B273E0D0A3C2F666F726D3E0D2F
:103DB0000A3C666F726D20616374696F6E3D272FD8
:103DC00027206D6574686F643D27474554273E0D75
:103DD0000A09B9363A200D0A093C696E70757420DB
:103DE000747970653D277465787427206E616D6500
:103DF0003D2743534435272073697A653D27313287
:103E0000272076616C75653D277B7B7B7B7B7B7B8D
:103E10007B7B7B7B7B273E0D0A093C696E7075744A
:103E200020747970653D277375626D6974272076FB
:103E3000616C75653D274F4B273E0D0A3C2F666F21
:103E4000726D3E0D0A3C666F726D20616374696F1E
:103E50006E3D272F27206D6574686F643D274745A9
:103E600054273E0D0A09B9373A200D0A093C696EFC
:103E700070757420747970653D2774657874272097
:103E80006E616D653D2743534436272073697A651B
:103E90003D273132272076616C75653D277B7B7B22
:103EA0007B7B7B7B7B7B7B7B7B273E0D0A093C6995
:103EB0006E70757420747970653D277375626D69D5
:103EC00074272076616C75653D274F4B273E0D0AA0
:103ED0003C2F666F726D3E0D0A3C666F726D2061FD
:103EE0006374696F6E3D272F27206D6574686F645A
:103EF0003D27474554273E0D0A09B9383A200D0A97
:103F0000093C696E70757420747970653D2774651D
:103F1000787427206E616D653D2743534437272011
:103F200073697A653D273132272076616C75653D6E
:103F3000277B7B7B7B7B7B7B7B7B7B7B7B273E0D24
:103F40000A093C696E70757420747970653D277339
:103F500075626D6974272076616C75653D274F4BDE
:103F6000273E0D0A3C2F666F726D3E0D0A3C666F50
:103F7000726D20616374696F6E3D272F27206D6518
:103F800074686F643D27474554273E0D0A09B939C7
:103F90003A200D0A093C696E707574207479706559
:103FA0003D277465787427206E616D653D27435306
:103FB0004438272073697A653D273132272076619E
:103FC0006C75653D277B7B7B7B7B7B7B7B7B7B7BFE
:103FD0007B273E0D0A093C696E70757420747970F8
:103FE000653D277375626D6974272076616C756510
:103FF0003D274F4B273E0D0A3C2F666F726D3E0DDD
:104000000A3C666F726D20616374696F6E3D272F85
:1040100027206D6574686F643D27474554273E0D22
:104020000A09B931303A200D0A093C696E7075747D
:1040300020747970653D277465787427206E616DF2
:10404000653D2743534439272073697A653D2731FD
:1040500032272076616C75653D277B7B7B7B7B7B84
:104060007B7B7B7B7B7B273E0D0A093C696E7075F1
:104070007420747970653D277375626D69742720AB
:1040800076616C75653D274F4B273E0D0A3C2F66C8
:104090006F726D3E0D0A3C2F42523E0D0A203C2F9E
:1040A000424F44593E0D0A3C2F48544D4C3E0D0A98
:1040B00000434C49504F6E000126010000000001F2
:1040C0000000000000000000435344300022A30021
:1040D0000000000000000000000000000D435344F9
:1040E000310022B0000000000000000000000000CD
:1040F000000D435344320022BD00000000000000C8
:104100000000000000000D435344330022CA0000A9
:1041100000000000000000000000000D4353443484
:104120000022D70000000000000000000000000096
:104130000D435344350022E400000000000000005D
:1041400000000000000D435344360022F10000003F
:10415000000000000000000000000D435344370041
:1041600022FE000000000000000000000000000D22
:104170004353443800220B010000000000000000FF
:10418000000000000D4353443900221801000000D4
:104190000000000000000000000DB140B840C84021
:1041A000CD40DD40E240F240F74007410C411C4168
:1041B00021413141364146414B415B4160417041B3
:1041C000754185418A41B237BB372C009A41960828
:1041D0001B3873797374656D2E68746D6C00226280
:1041E00001000015226201000015078F0A0000007F
:1041F000148F0500000022620100001510D0080095
:1042000000020970050000010A77010000010A7927
:104210000100000100EA0800000000D809000000C9
:104220003C48544D4C3E0D0A3C484541443E0D0A25
:104230003C5449544C453E7B7B7B7B7B7B7B7B7B2F
:104240007B7B7B7B7B7B7B7B7B7B7B3C2F544954C9
:104250004C453E0D0A3C6D65746120687474702D88
:1042600065717569763D22436F6E74656E742D5469
:104270007970652220636F6E74656E743D2274657B
:1042800078742F68746D6C3B206368617273657419
:104290003D77696E646F77732D31323531223E0D73
:1042A0000A3C2F484541443E0D0A3C424F44593E8A
:1042B0000D0A0D0A3C48323E454D526561646572F7
:1042C0002E207B7B7B7B7B7B7B7B7B7B7B7B7B7BE6
:1042D0007B7B7B7B7B7B3C2F48323E0D0A49443AFB
:1042E000207B7B7B7B207B7B7B7B7B7B7B7B7B202F
:1042F0000953573A20332E30353C2F42523E0D0A97
:104300003C48523E0D0A3C6120687265663D226958
:104310006E6465782E68746D6C223EC3EBE0E2ED4E
:10432000E0FF3C2F613E207C200D0A3C612068723A
:1043300065663D226E6574776F726B2E68746D6C66
:10434000223ED1E5F2E5E2FBE520EDE0F1F2F0EE10
:10435000E9EAE83C2F613E207C200D0A3C612068A0
:104360007265663D2267736D2E68746D6C223E47E0
:10437000534D2F475052533C2F613E207C200D0A55
:104380003C6120687265663D226373642E68746DBB
:104390006C223E4353443C2F613E207C200D0A3C5E
:1043A0006120687265663D2273797374656D2E684D
:1043B000746D6C223ED1E8F1F2E5ECE03C2F613EF9
:1043C000207C200D0A3C6120687265663D226C6F7E
:1043D000676F75742E68746D6C223EC2FBF5EEE457
:1043E0003C2F613E0D0A3C48523E0D0A0D0A3C66C8
:1043F0006F726D20616374696F6E3D272F27206D8A
:104400006574686F643D27474554273E0D0A09CD02
:10441000E0E7E2E0EDE8E520EEE1FAE5EAF2E03A95
:104420000D0A093C696E70757420747970653D27BA
:104430007465787427206E616D653D275469746CCE
:1044400065272073697A653D273430272076616CB3
:1044500075653D277B7B7B7B7B7B7B7B7B7B7B7B5A
:104460007B7B7B7B7B7B7B7B273E0D0A093C696EDC
:1044700070757420747970653D277375626D697409
:10448000272076616C75653D274F4B273E0D0A3C12
:104490002F666F726D3E0D0A3C2F42523E0D0A0D83
:1044A0000ACDE0F0E0E1EEF2EAE0203A7B7B7B7BB4
:1044B0007B7B7B7B7B7B7B20F1E5EA0D0A3C464FD7
:1044C000524D20616374696F6E3D272F27206D6503
:1044D00074686F643D27474554273E0D0A093C69BF
:1044E0006E70757420747970653D277375626D699F
:1044F0007427206E616D653D275265626F6F74276A
:104500002076616C75653D275265626F6F74273E3A
:104510000D0A3C2F464F524D3E0D0AC2E5F0F1E820
:10452000FF20CFCE3A20332E30350D0A3C464F5275
:104530004D20616374696F6E3D272F27206D657470
:10454000686F643D27474554273E0D0A093C696E54
:1045500070757420747970653D277375626D697428
:1045600027206E616D653D27426F6F746C6F6164CB
:104570006572272076616C75653D27426F6F746C9C
:104580006F616465722720636F6C6F723D275245BF
:1045900044273E0D0A3C2F464F524D3E0D0A3C2FFC
:1045A00042523E0D0A3C464F524D20616374696F82
:1045B0006E3D272F27206D6574686F643D27474542
:1045C00054273E0D0A093C696E7075742074797029
:1045D000653D277375626D697427206E616D653D59
:1045E00027424C75706772616465272076616C752F
:1045F000653D27424C75706772616465273E0D0A00
:104600003C2F464F524D3E0D0A3C2F42523E0D0A62
:104610003C48323ED2E5ECEFE5F0E0F2F3F0E03C6E
:104620002F48323E0D0AD2E5ECEFE5F0E0F2F3F070
:10463000E03A7B7B7B7B7B7B7B2623313736433C9D
:104640002F42523E0D0A3C666F726D2061637469A1
:104650006F6E3D272F27206D6574686F643D274777
:104660004554273E0D0A09D2E2FBF1EEEAE0FF3A9B
:104670000D0A093C696E70757420747970653D2768
:104680007465787427206E616D653D27546869678D
:1046900068272073697A653D2735272076616C7518
:1046A000653D277B7B7B7B7B7B7B273E26233137CE
:1046B00036430D0A093C696E707574207479706513
:1046C0003D277375626D6974272076616C75653D51
:1046D000274F4B273E0D0A3C2F666F726D3E0D0A29
:1046E0003C2F42523E0D0A3C666F726D206163742E
:1046F000696F6E3D272F27206D6574686F643D27B5
:10470000474554273E0D0A09D2EDE8E7EAE0FF3AB3
:104710000D0A093C696E70757420747970653D27C7
:104720007465787427206E616D653D27546C6F77D2
:10473000272073697A653D2735272076616C75657A
:104740003D277B7B7B7B7B7B7B273E26233137365C
:10475000430D0A093C696E70757420747970653D6B
:10476000277375626D6974272076616C75653D27C6
:104770004F4B273E0D0A3C2F666F726D3E0D0A3C73
:104780002F42523E0D0AC1F3F4E5F02047534D2D60
:104790003E454D3A207B7B7B2F286D61782032355A
:1047A0003029E1E0E9F23C2F42523E0D0AC1F3F418
:1047B000E5F020454D2D3E47534D3A207B7B7B2F26
:1047C000286D61782032353029E1E0E9F23C2F4252
:1047D000523E0D0A0D0A3C2F424F44593E0D0A3CF1
:1047E0002F48544D4C3E0D0A005469746C650022EC
:1047F00062010000000002000000000000001552ED
:1048000065626F6F7400009C0500000000FF0000EF
:1048100000D73D000000426F6F746C6F6164657279
:1048200000009C0500000000FF0000002652000070
:1048300000424C7570677261646500009C05000061
:104840000000FF000000DD3D00000054686967685B
:10485000000A770118FCFFFFDC05000000000000E3
:1048600001546C6F77000A790118FCFFFFDC05002A
:10487000000000000001E947EF47FF4706481648DF
:10488000214831483B484B48514861486648D2412D
:10489000DE4118007648C9052042A416000B3A1CD8
:1048A000E431A637C6418E48EDE5F220F1E2FFE79C
:1048B000E820F120DDD12000E5F1F2FC20F1E2FF5B
:1048C000E7FC20F120DDD1004C26472020B920252F
:1048D00038730025387300256C7564002568687589
:1048E0003A256868753A2568687500256868752DE9
:1048F000256868752D25686875000D0A0025303813
:104900006C78273E0D0A002530386C780025750D2F
:104910000A006C6F676F75742E68746D6C002F00E1
:104920000702015C047C04900461006200026100E3
:1049300062000161006200043400350033000201AE
:1049400034003500330001013A003B00390001001A
:104950003A003B0039000200504F53540047455481
:1049600020002B4353513A20256868752C25686830
:1049700075002B524543454956452C256868752CD2
:10498000256868750052454D4F54452049503A25D9
:104990006868752E256868752E256868752E2568E7
:1049A000687500256868752C20434C4F53454400BA
:1049B0002568687520256868752025686875202534
:1049C00068687500257500256C7564009C009B0067
:1049D0009A009D0098009900B429BA29BD29BE29E2
:1049E0000052005100F52944004300FB2900C0C1DA
:1049F00001C30302C2C60607C705C5C404CC0C0D1B
:104A0000CD0FCFCE0E0ACACB0BC90908C8D81819CA
:104A1000D91BDBDA1A1EDEDF1FDD1D1CDC14D4D52A
:104A200015D71716D6D21213D311D1D010F03031BA
:104A3000F133F3F23236F6F737F53534F43CFCFD5A
:104A40003DFF3F3EFEFA3A3BFB39F9F83828E8E9EA
:104A500029EB2B2AEAEE2E2FEF2DEDEC2CE424256A
:104A6000E527E7E62622E2E323E12120E0A06061DA
:104A7000A163A3A26266A6A767A56564A46CACAD9A
:104A80006DAF6F6EAEAA6A6BAB69A9A86878B8B94A
:104A900079BB7B7ABABE7E7FBF7DBDBC7CB47475AA
:104AA000B577B7B67672B2B373B17170B0509091FA
:104AB000519353529296565797559594549C5C5DDA
:104AC0009D5F9F9E5E5A9A9B5B995958988848496A
:104AD000894B8B8A4A4E8E8F4F8D4D4C8C448485EA
:104AE0004587474686824243834181804000C18199
:104AF0004001C0804101C0804100C1814001C080AF
:104B00004100C1814000C1814001C0804101C0809D
:104B10004100C1814000C1814001C0804100C1818C
:104B20004001C0804101C0804100C1814001C0807E
:104B30004100C1814000C1814001C0804100C1816C
:104B40004001C0804101C0804100C1814000C1815D
:104B50004001C0804101C0804100C1814001C0804E
:104B60004100C1814000C1814001C0804101C0803D
:104B70004100C1814000C1814001C0804100C1812C
:104B80004001C0804101C0804100C1814000C1811D
:104B90004001C0804101C0804100C1814001C0800E
:104BA0004100C1814000C1814001C0804100C181FC
:104BB0004001C0804101C0804100C1814001C080EE
:104BC0004100C1814000C1814001C0804101C080DD
:104BD0004100C1814000C1814001C0804100C181CC
:104BE0004001C0804101C0804100C18140636469CF
:104BF0006E6F70737578585B000011241FBECFEF85
:104C0000D0E1DEBFCDBF11E0A0E0B1E0E6E6F3E227
:104C100001E00BBF02C007900D92AA3DB107D9F782
:104C20001DE0AAEDB1E001C01D92A33BB107E1F781
:104C30000E94E9850C948F870C940000FC01808110
:104C40000895FC0184910895FC0125913491C901D6
:104C50000895FC012591359145915491B901CA01FE
:104C60000895A0E0B0E080509040AF4FBF4FABBF81
:104C7000FC0187910895FC0184910895FC01259120
:104C80003491C90108956F927F928F929F92AF9253
:104C9000BF92CF92DF92EF92FF920F931F93CF9329
:104CA000DF933C01EB0149015A01C12ED02EEE24C5
:104CB000FF24870117C0CE018E0D9F1DF3010995BA
:104CC000D8262D2D30E0C9018351954BFC01D4909D
:104CD000DC242351364BF901C4900894E11CF11CEB
:104CE000011D111DE814F9040A051B0520F39C2D74
:104CF00080E02D2D30E0282B392BC901DF91CF9199
:104D00001F910F91FF90EF90DF90CF90BF90AF90E9
:104D10009F908F907F906F9008950F931F930FEF48
:104D20001FEF0E9443261F910F9108950F931F9329
:104D300081E296E260E070E020E030E041E050E0A7
:104D40000E948D268C0181E396E260E070E020E015
:104D500030E041E050E00E9443261F910F910895FA
:104D6000CF92DF92EF92FF920F931F939EE1C92E95
:104D70009AE5D92E8CE8E82E81E0F82E970140E0E4
:104D800050E0C60160E070E00E948D268C012BEFA0
:104D90003FE02E193F0940E050E0C60165E070E0B9
:104DA000E60EF71EB7010E9443261F910F91FF9058
:104DB000EF90DF90CF900895789408958FB7807822
:104DC0008093FC01F89408958091FC01882309F0F8
:104DD00078940895A8952FE088E190E00FB6F894B4
:104DE000A89581BD0FBE21BD08958091CB018F5F35
:104DF0008093CB01815008958091CC018F5F809387
:104E0000CC01815008958091CD018F5F8093CD01B9
:104E100081500895882311F490E005C09091CB0152
:104E2000890F8093CB01892F0895882311F490E096
:104E300005C09091CC01890F8093CC01892F0895F2
:104E4000882311F490E005C09091CD01890F8093E3
:104E5000CD01892F08959091CE01890F8093CE01C5
:104E6000892F08959091CF01890F8093CF01892FC9
:104E700008959091D001890F8093D001892F0895D2
:104E80007FB770787093FC01F894282F30E0F90117
:104E9000E350FE4F60839081869586958695A901A3
:104EA00047705070992381F0E82FF0E0EB5CFC4FE5
:104EB000208181E090E002C0880F991F4A95E2F7B7
:104EC0008095822380830EC0E82FF0E0EB5CFC4FDE
:104ED000208181E090E002C0880F991F4A95E2F797
:104EE000282B2083772309F078940895AFB7A07812
:104EF000A093FC01F894482F50E0FA01EE0FFF1F39
:104F0000EB5DFD4F718360832081318186958695AD
:104F1000869547705070232B81F0E82FF0E0E55C18
:104F2000FC4F208181E090E002C0880F991F4A95D4
:104F3000E2F78095822380830EC0E82FF0E0E55CE5
:104F4000FC4F208181E090E002C0880F991F4A95B4
:104F5000E2F7282B2083AA2309F0789408951F9361
:104F60001FB710781093FC01F894A82FB0E0FD0152
:104F7000EE0FFF1FEE0FFF1FEB56FD4F40835183D7
:104F80006283738320813181428153818695869526
:104F90008695A770B070211531054105510581F046
:104FA000E82FF0E0ED5BFC4F208181E090E002C053
:104FB000880F991FAA95E2F78095822380830EC0FF
:104FC000E82FF0E0ED5BFC4F208181E090E002C033
:104FD000880F991FAA95E2F7282B2083112309F047
:104FE00078941F9108954FB740784093FC01F8944E
:104FF000E82FE695E695E695F0E0EB5CFC4F9081B6
:10500000877021E030E002C0220F331F8A95E2F75B
:10501000922B9083442309F0789408954FB74078F9
:105020004093FC01F894E82FE695E695E695F0E0CC
:10503000E55CFC4F9081877021E030E002C0220FD8
:10504000331F8A95E2F7922B9083442309F07894DA
:1050500008954FB740784093FC01F894E82FE69507
:10506000E695E695F0E0ED5BFC4F9081877021E0DE
:1050700030E002C0220F331F8A95E2F7922B908313
:10508000442309F078940895E82FE695E695E6958F
:10509000F0E0EB5CFC4F2081E82FF0E030E0CF0146
:1050A0008770907002C0359527958A95E2F720FDAC
:1050B00003C080E090E00895E350FE4F808120E03F
:1050C000811121E081E02827822F08954FB7407891
:1050D0004093FC01F894E82FE695E695E695F0E01C
:1050E000E55CFC4F2081E82FF0E030E0CF018770D5
:1050F000907002C0359527958A95E2F720FD03C090
:1051000080E090E00DC0EE0FFF1FEB5DFD4F808152
:10511000918120E0892B09F021E081E02827822F6E
:10512000442309F0789408954FB740784093FC01E8
:10513000F894E82FE695E695E695F0E0ED5BFC4FF8
:105140002081E82FF0E030E0CF018770907002C03E
:10515000359527958A95E2F720FD03C080E090E021
:1051600013C0EE0FFF1FEE0FFF1FEB56FD4F8081A8
:105170009181A281B38120E00097A105B10509F0DA
:1051800021E081E02827822F442309F078940895B4
:105190005FB750785093FC01F894E82FE695E695B8
:1051A000E695F0E0EB5CFC4F4081A82FB0E09D015C
:1051B0002770307081E090E002C0880F991F2A9517
:1051C000E2F7482B4083552309F07894A350BE4F53
:1051D0001C920895E82F5FB750785093FC01F89423
:1051E000A82FA695A695A695B0E0A55CBC4F4C91BE
:1051F000F0E09F012770307081E090E002C0880FDE
:10520000991F2A95E2F7482B4C93EE0FFF1FEB5D99
:10521000FD4F11821082552309F078940895E82FEC
:105220005FB750785093FC01F894A82FA695A695E7
:10523000A695B0E0AD5BBC4F4C91F0E09F012770AC
:10524000307081E090E002C0880F991F2A95E2F744
:10525000482B4C93EE0FFF1FEE0FFF1FEB56FD4F39
:105260001082118212821382552309F078940895D6
:10527000EDEFF1E0E80FF11D80810895E82F8FB781
:1052800080788093FC01F894F0E0EE0FFF1FEB5D57
:10529000FD4F0190F081E02D882309F07894CF0133
:1052A0000895E82F8FB780788093FC01F894F0E0A0
:1052B000EE0FFF1FEE0FFF1FEB56FD4F20813181D8
:1052C00042815381882309F07894B901CA01089575
:1052D0008091CE018F5F8093CE01815080934903EE
:1052E0006FEF0E9440270895A89590914903E92FF8
:1052F000F0E0E350FE4FE081E095E093AF0880914D
:10530000A1058E1710F4E093A105892F6FEF0E947D
:10531000402708951092A105089520EA3FE004C0B7
:10532000F9013197F1F781508823D1F70895A0E072
:10533000B0E0BC01CD010E94D3892DEC3CEC4CE4E3
:105340005FE30E94618A0E94A78995E005C0892FCA
:105350008A95F1F76150704061157105C1F70895A4
:105360008C9A94980895089582B390E1892782BB1E
:105370000895089508950895089508950895882337
:1053800051F4809164008160809364008091650095
:105390008E7F809365000895882351F48091640086
:1053A0008E7F80936400809165008E7F809365007E
:1053B00008958091630081700895F894179A789405
:1053C0000895F8941F9878940895F8941F9A789403
:1053D00008958D9A089595980895959A08958E98B0
:1053E000969A089580B3807408958FE083BF87B73D
:1053F000826087BF08958DE085BD87B7806887BFCD
:105400000895682F70E09B01220F331FCB01A3E0AA
:10541000880F991FAA95E1F7280F391F220F331F14
:105420002253364BF901A591B4913C91AB01465BF7
:10543000574FFA01208184E190E0689FF001699F55
:10544000F00D789FF00D1124E453F64BA591B49123
:10545000F62FEE27E20FF11DE155F34F8C9180837B
:105460002F5FFA012083232F30E023FF0DC0FB01C3
:1054700044E0EE0FFF1F4A95E1F7EF56F54F8685A2
:1054800097850196978786872C713070232B61F062
:1054900081E090E002C0880F991F6A95E2F72091A1
:1054A0004A03282B20934A030895CF92DF92EF926C
:1054B000FF920F931F93E82EFF24F701EC59FC4F46
:1054C00083E0808384E190E0E89E8001E99E100DF6
:1054D000F89E100D1124045F1F4F7CECC72E79E459
:1054E000D72EC601800F911F0C501040FC01259152
:1054F0003491F9010995F601E00FF11FA591B491DE
:10550000FE2DEE27E155F34F80818C939701220FFA
:10551000331FC70143E0880F991F4A95E1F7280F11
:10552000391F2F5F3F4F220F331F2C0D3D1DF901F7
:10553000A591B4918C9180648C93C701880F991FB9
:10554000880F991F8E0D9F1D0196880F991F880F38
:10555000991F8C0D9D1DFC01A591B4918C918062C9
:105560008C931F910F91FF90EF90DF90CF90089553
:10557000CF93DF93DC0130E044E150E001C03F5FB6
:10558000C32FD0E0C49FF001C59FF00DD49FF00D54
:105590001124E453F64B85919491A817B90779F734
:1055A000FE01EC59FC4F80818230C9F1833030F428
:1055B000882341F0813009F049C00BC0853008F0E4
:1055C00045C03EC08C91FC2FEE27E155F34F808300
:1055D00029C082E0808381E090E0032E02C0880F22
:1055E000991F0A94E2F7809520914A03282320937B
:1055F0004A03FE01E65BF74F1082832F0E94012AC7
:10560000CE01880F991F8C0F9D1F880F991F8B51FA
:10561000964BFC0125913491F901099517C0832F10
:105620000E94012ACE01880F991F8C0F9D1F880FA1
:10563000991F8F51964BFC01A591B4911C9206C005
:105640008C91FC2FEE27E155F34F8083DF91CF91B2
:1056500008950F931F93CF93DF93382FC82FD0E077
:10566000FE01E65BF74F208180914A0390E0032E14
:1056700002C0959587950A94E2F780FD1BC0233000
:10568000C8F02250732F60E0FB01E20FF11DE155DD
:10569000F34F008111816155734F30E040E050E0DD
:1056A0008EE196E20E948D260817190719F480E012
:1056B00090E002C081E090E0082F8823C9F0FE014D
:1056C00054E0EE0FFF1F5A95E1F7ED56F54F80813C
:1056D000918101969183808384E190E0C89F90013D
:1056E000C99F300DD89F300D11242452364B18C05D
:1056F000FE0144E0EE0FFF1F4A95E1F7EF56F54F2C
:105700008081918101969183808384E190E0C89F9C
:105710009001C99F300DD89F300D11242252364B75
:10572000F90185919491FC010995802FDF91CF912A
:105730001F910F910895DF92EF92FF920F931F93A5
:10574000EAE4F8E0E80FF11DD0809EEFD90E182FA3
:1057500000E06FEAE62E6CE0F62EB701600F711FD5
:105760002D2D30E040E050E08EE196E20E948D2643
:105770000D0D111DE00EF11EF701918380831F9125
:105780000F91FF90EF90DF90089570E0AFEABCE0DA
:10579000F82FE0E0EA0FFB1FE60FF71F418150E012
:1057A000382F20E0260F371FA20FB31F9C9180E0F7
:1057B000482B592BCA01089520E030E090E0E3E047
:1057C000880F991FEA95E1F7FC01E20FF31FEE0F36
:1057D000FF1FEF56F54F118210822F5F3F4F283089
:1057E000310591F708953F924F925F926F927F92A9
:1057F0008F929F92AF92BF92CF92DF92EF92FF92E1
:105800000F931F93CF93DF93382EC82FD0E08E01D4
:105810000C591C4FF80180818823C1F0823009F0B7
:10582000EFC284E0F8018083832D0E94292B882316
:1058300069F4FC2FEE27E155F34F9081992351F045
:10584000FE01E558FC4F8081981721F081E0F801B6
:105850008083D6C284E190E0C89F2001C99F500C8C
:10586000D89F500C11248AED99E4480E591EF2017C
:1058700025913491F90109956E01B4E0CC0CDD1C41
:10588000BA95E1F7F601EF56F54F868197810196BB
:10589000978386835C2F44274F54534FFA0190819E
:1058A00080E09C2E8824D401A155B34F13962C91EF
:1058B0001397022F10E0082B192B11966C9111975A
:1058C000653038F4633008F0B1C0613008F449C283
:1058D0000AC06F3009F43EC1603109F4D1C16630AD
:1058E00009F03FC202C18C91882309F442C2FE0133
:1058F000E65BF74F8081883009F0FFC0FC2FEE2770
:10590000ED54F34F908180E015962C91E22EFF2408
:10591000E82AF92A613049F4FE0174E0EE0FFF1F16
:105920007A95E1F7E250FE4F03C0F601EE5FFD4FBE
:1059300025913491C701800F911F2817390708F46A
:105940004CC1613049F4FE0164E0EE0FFF1F6A951F
:10595000E1F7E450FE4F08C0FE0154E0EE0FFF1FD8
:105960005A95E1F7E050FE4F85919491282FA22F90
:10597000B92F20E0C70187709070892B09F021E0D2
:10598000C70143E0969587954A95E1F7820FFC2F72
:10599000EE27EF54F34F8083FE01E65BF74F8B5FFA
:1059A000808370E021E0A22EB12CDC2ECC2438C004
:1059B0009C01200F311F472F4695469546954D5F18
:1059C00087709070F50102C0EE0FFF1F8A95E2F715
:1059D0006E2FF90183E0F695E7958A95E1F7EA0FD6
:1059E000FB1F808190E02770307002C095958795ED
:1059F0002A95E2F750E080FF09C0F601E40FF51F99
:105A0000E155F34F8081862B808309C0F601E40FB6
:105A1000F51FE155F34F60958081682360837F5FB8
:105A2000872F90E08E159F0518F2A5C18C918823D1
:105A300009F49FC1FE01E65BF74F8081883009F0D1
:105A40005CC015964C91633021F4F601EA5FFD4F7E
:105A500003C0F601E65FFD4F25913491C801840F24
:105A6000911D2817390708F4B8C0633049F4FE01C6
:105A7000B4E0EE0FFF1FBA95E1F7EC5FFD4F08C0F1
:105A8000FE01A4E0EE0FFF1FAA95E1F7E85FFD4FCE
:105A900025913491842F90E0880F991FFC2FEE27D9
:105AA000EF54F34F8083FE01E65BF74F8B5F8083FB
:105AB000FC2FEE27E155F34F4581D801AA0FBB1FFC
:105AC000A20FB31F90E09F010DC0892F880FF9012D
:105AD000E80FF11D11968C91119783838C9184832B
:105AE0009F5F1296941788F346C1BE01665B774F9D
:105AF000FB01F080F8E0FF1619F083E0FA01E9C03D
:105B0000F601EA5FFD4F25913491C80101962817EF
:105B1000390708F4EBC0FB01F082FE0134E0EE0F20
:105B2000FF1F3A95E1F7EC5FFD4F85919491000FCF
:105B3000111F080F191FFC2FEE27ED54F34F908112
:105B400080E015962C9130E0822B932BF801918305
:105B5000808311C1FC2FEE27ED54F34F4081159641
:105B60005C91159716966C91FE01E65BF74F2081CC
:105B700030E0862F90E009962817390709F0A4C075
:105B8000942F80E0A52FB0E0A82BB92B20E030E0C7
:105B9000CD0187709070892B11F021E030E0CD01AC
:105BA00073E0969587957A95E1F7280F391F862F30
:105BB00090E02817390709F087C0FE0164E0EE0F76
:105BC000FF1F6A95E1F7E250FE4F25913491CD0118
:105BD000800F911F2817390730F4FC2FEE27EF5460
:105BE000F34F82E085C0FE0144E0EE0FFF1F4A95AF
:105BF000E1F7E450FE4FA590B490FE01E65BF74F4D
:105C000088E08083DD2431E0832E912C7C2F662771
:105C10006155734F2FC09A01200F311FC901877042
:105C20009070740102C0EE0CFF1C8A95E2F78D2D76
:105C3000869586958695FB01E80FF11D878190E09A
:105C40004770507002C0959587954A95E2F793E0AA
:105C5000369527959A95E1F7F501E20FF31F80FF3E
:105C600003C080818E2904C09E2D90958081892358
:105C70008083D3944D2D50E04A175B0760F27BC0C0
:105C800016968C911697682F70E08AE4E82E88E0CB
:105C9000F82EEC0EFD1EF701808190E09B01275F3E
:105CA0003F4F8217930781F4F5E0AF2EB12CAA0E77
:105CB000BB1E15968C911597282F30E0C901880FCF
:105CC000991F8617970741F0FC2FEE27EF54F34FEB
:105CD00083E0808313E050C0F601EA5FFD4F8591B9
:105CE0009491200F311F8217930728F482E0FA0164
:105CF000808312E041C088E0F7018083FE0134E038
:105D0000EE0FFF1F3A95E1F7EC5FFD4F6590749041
:105D100040E064017D01B5011FC0A42FB0E0CD01BA
:105D2000880F991F895F282F30E0A00FB11FAA0F9D
:105D3000BB1FA60DB71DF701E20FF31F818190E095
:105D40002C0D3D1D2155334FF901308120E0822B70
:105D5000932B8D939C934F5FFB0180814817E8F252
:105D60000AC0FC2FEE27EF54F34F81E0808311E04F
:105D700003C01FEF01C010E0FC2FEE27E155F34FE9
:105D80008081882369F0112341F0818180688183BB
:105D9000FE01E65BF74F85E08083832D0E949B2BFD
:105DA000112369F0FE0114E0EE0FFF1F1A95E1F7D1
:105DB000EB56F54F80819181019691838083FC2F72
:105DC000EE27E155F34F8081882321F0832D0E9437
:105DD000552A16C0FE01A4E0EE0FFF1FAA95E1F7B9
:105DE000E756F54F80819181019691838083CC594C
:105DF000DC4F81E08883F20185919491FC01099543
